{
  "contractName": "CrowdFunding",
  "abi": [
    {
      "inputs": [
        {
          "internalType": "uint256",
          "name": "_deadline",
          "type": "uint256"
        },
        {
          "internalType": "uint256",
          "name": "_goal",
          "type": "uint256"
        },
        {
          "internalType": "uint256",
          "name": "_minContribution",
          "type": "uint256"
        }
      ],
      "stateMutability": "nonpayable",
      "type": "constructor"
    },
    {
      "inputs": [],
      "name": "admin",
      "outputs": [
        {
          "internalType": "address",
          "name": "",
          "type": "address"
        }
      ],
      "stateMutability": "view",
      "type": "function",
      "constant": true
    },
    {
      "inputs": [
        {
          "internalType": "address",
          "name": "",
          "type": "address"
        }
      ],
      "name": "contributors",
      "outputs": [
        {
          "internalType": "uint256",
          "name": "",
          "type": "uint256"
        }
      ],
      "stateMutability": "view",
      "type": "function",
      "constant": true
    },
    {
      "inputs": [],
      "name": "deadline",
      "outputs": [
        {
          "internalType": "uint256",
          "name": "",
          "type": "uint256"
        }
      ],
      "stateMutability": "view",
      "type": "function",
      "constant": true
    },
    {
      "inputs": [],
      "name": "goal",
      "outputs": [
        {
          "internalType": "uint256",
          "name": "",
          "type": "uint256"
        }
      ],
      "stateMutability": "view",
      "type": "function",
      "constant": true
    },
    {
      "inputs": [],
      "name": "id",
      "outputs": [
        {
          "internalType": "uint256",
          "name": "",
          "type": "uint256"
        }
      ],
      "stateMutability": "view",
      "type": "function",
      "constant": true
    },
    {
      "inputs": [],
      "name": "minContribution",
      "outputs": [
        {
          "internalType": "uint256",
          "name": "",
          "type": "uint256"
        }
      ],
      "stateMutability": "view",
      "type": "function",
      "constant": true
    },
    {
      "inputs": [],
      "name": "noOfContributors",
      "outputs": [
        {
          "internalType": "uint256",
          "name": "",
          "type": "uint256"
        }
      ],
      "stateMutability": "view",
      "type": "function",
      "constant": true
    },
    {
      "inputs": [],
      "name": "raisedAmount",
      "outputs": [
        {
          "internalType": "uint256",
          "name": "",
          "type": "uint256"
        }
      ],
      "stateMutability": "view",
      "type": "function",
      "constant": true
    },
    {
      "inputs": [
        {
          "internalType": "uint256",
          "name": "",
          "type": "uint256"
        }
      ],
      "name": "spendingRequests",
      "outputs": [
        {
          "internalType": "uint256",
          "name": "id",
          "type": "uint256"
        },
        {
          "internalType": "string",
          "name": "title",
          "type": "string"
        },
        {
          "internalType": "string",
          "name": "description",
          "type": "string"
        },
        {
          "internalType": "uint256",
          "name": "value",
          "type": "uint256"
        },
        {
          "internalType": "address payable",
          "name": "recipient",
          "type": "address"
        },
        {
          "internalType": "bool",
          "name": "completed",
          "type": "bool"
        },
        {
          "internalType": "uint256",
          "name": "noOfVOters",
          "type": "uint256"
        }
      ],
      "stateMutability": "view",
      "type": "function",
      "constant": true
    },
    {
      "inputs": [
        {
          "internalType": "address",
          "name": "",
          "type": "address"
        }
      ],
      "name": "voted",
      "outputs": [
        {
          "internalType": "bool",
          "name": "",
          "type": "bool"
        }
      ],
      "stateMutability": "view",
      "type": "function",
      "constant": true
    },
    {
      "stateMutability": "payable",
      "type": "receive",
      "payable": true
    },
    {
      "inputs": [],
      "name": "contribute",
      "outputs": [],
      "stateMutability": "payable",
      "type": "function",
      "payable": true
    },
    {
      "inputs": [],
      "name": "getRefund",
      "outputs": [],
      "stateMutability": "payable",
      "type": "function",
      "payable": true
    },
    {
      "inputs": [
        {
          "internalType": "string",
          "name": "_title",
          "type": "string"
        },
        {
          "internalType": "string",
          "name": "_description",
          "type": "string"
        },
        {
          "internalType": "address payable",
          "name": "_recipient",
          "type": "address"
        },
        {
          "internalType": "uint256",
          "name": "_value",
          "type": "uint256"
        }
      ],
      "name": "spendingRequest",
      "outputs": [],
      "stateMutability": "nonpayable",
      "type": "function"
    },
    {
      "inputs": [
        {
          "internalType": "uint256",
          "name": "_id",
          "type": "uint256"
        }
      ],
      "name": "vote",
      "outputs": [],
      "stateMutability": "nonpayable",
      "type": "function"
    },
    {
      "inputs": [
        {
          "internalType": "address",
          "name": "_voter",
          "type": "address"
        }
      ],
      "name": "hasVoted",
      "outputs": [
        {
          "internalType": "bool",
          "name": "",
          "type": "bool"
        }
      ],
      "stateMutability": "view",
      "type": "function",
      "constant": true
    },
    {
      "inputs": [
        {
          "internalType": "uint256",
          "name": "_id",
          "type": "uint256"
        }
      ],
      "name": "votedForSpendingRequest",
      "outputs": [
        {
          "internalType": "bool",
          "name": "",
          "type": "bool"
        }
      ],
      "stateMutability": "view",
      "type": "function",
      "constant": true
    },
    {
      "inputs": [],
      "name": "deadline_",
      "outputs": [
        {
          "internalType": "bool",
          "name": "",
          "type": "bool"
        }
      ],
      "stateMutability": "view",
      "type": "function",
      "constant": true
    },
    {
      "inputs": [],
      "name": "getContractBalance",
      "outputs": [
        {
          "internalType": "uint256",
          "name": "",
          "type": "uint256"
        }
      ],
      "stateMutability": "view",
      "type": "function",
      "constant": true
    },
    {
      "inputs": [
        {
          "internalType": "uint256",
          "name": "_id",
          "type": "uint256"
        }
      ],
      "name": "getSpendingRequest",
      "outputs": [
        {
          "internalType": "uint256",
          "name": "",
          "type": "uint256"
        },
        {
          "internalType": "string",
          "name": "",
          "type": "string"
        },
        {
          "internalType": "string",
          "name": "",
          "type": "string"
        },
        {
          "internalType": "uint256",
          "name": "",
          "type": "uint256"
        },
        {
          "internalType": "address",
          "name": "",
          "type": "address"
        },
        {
          "internalType": "uint256",
          "name": "",
          "type": "uint256"
        },
        {
          "internalType": "bool",
          "name": "",
          "type": "bool"
        }
      ],
      "stateMutability": "view",
      "type": "function",
      "constant": true
    },
    {
      "inputs": [],
      "name": "raisedAmount_",
      "outputs": [
        {
          "internalType": "bool",
          "name": "",
          "type": "bool"
        }
      ],
      "stateMutability": "view",
      "type": "function",
      "constant": true
    },
    {
      "inputs": [
        {
          "internalType": "uint256",
          "name": "_id",
          "type": "uint256"
        }
      ],
      "name": "noOfVoters_",
      "outputs": [
        {
          "internalType": "bool",
          "name": "",
          "type": "bool"
        }
      ],
      "stateMutability": "view",
      "type": "function",
      "constant": true
    },
    {
      "inputs": [],
      "name": "goal_",
      "outputs": [
        {
          "internalType": "uint256",
          "name": "",
          "type": "uint256"
        }
      ],
      "stateMutability": "view",
      "type": "function",
      "constant": true
    },
    {
      "inputs": [
        {
          "internalType": "uint256",
          "name": "_id",
          "type": "uint256"
        }
      ],
      "name": "transferRequestFunds",
      "outputs": [],
      "stateMutability": "payable",
      "type": "function",
      "payable": true
    },
    {
      "inputs": [
        {
          "internalType": "uint256",
          "name": "_id",
          "type": "uint256"
        }
      ],
      "name": "completedRequests",
      "outputs": [
        {
          "internalType": "bool",
          "name": "",
          "type": "bool"
        }
      ],
      "stateMutability": "nonpayable",
      "type": "function"
    }
  ],
  "bytecode": "0x60806040523480156200001157600080fd5b50604051620024c9380380620024c98339818101604052810190620000379190620000b9565b8060048190555082426200004c919062000115565b60038190555081600281905550336000806101000a81548173ffffffffffffffffffffffffffffffffffffffff021916908373ffffffffffffffffffffffffffffffffffffffff160217905550505050620001ca565b600081519050620000b381620001b0565b92915050565b600080600060608486031215620000d557620000d4620001ab565b5b6000620000e586828701620000a2565b9350506020620000f886828701620000a2565b92505060406200010b86828701620000a2565b9150509250925092565b6000620001228262000172565b91506200012f8362000172565b9250827fffffffffffffffffffffffffffffffffffffffffffffffffffffffffffffffff038211156200016757620001666200017c565b5b828201905092915050565b6000819050919050565b7f4e487b7100000000000000000000000000000000000000000000000000000000600052601160045260246000fd5b600080fd5b620001bb8162000172565b8114620001c757600080fd5b50565b6122ef80620001da6000396000f3fe60806040526004361061014f5760003560e01c806390aadd60116100b6578063c59ee1dc1161006f578063c59ee1dc14610487578063d7bb99ba146104b2578063e77e0f8e146104bc578063f0fbfbf3146104ff578063f851a4401461053c578063fdba0ed91461056757610156565b806390aadd60146103a3578063aaffadf3146103ce578063aec2ccae146103f9578063af640d0f14610436578063af87b5b614610461578063b2d5ae441461047d57610156565b80634159f397116101085780634159f3971461027f5780634c69b583146102aa5780634e18eb29146102e75780634e260f6f146103245780636bbe36721461034f5780636f9fb98a1461037857610156565b80630121b93f1461015b57806302d802d01461018457806309eef43e146101af5780631f6d4942146101ec57806329dcb0cf14610229578063401938831461025457610156565b3661015657005b600080fd5b34801561016757600080fd5b50610182600480360381019061017d91906116df565b6105aa565b005b34801561019057600080fd5b50610199610839565b6040516101a69190611978565b60405180910390f35b3480156101bb57600080fd5b506101d660048036038101906101d19190611613565b610856565b6040516101e39190611978565b60405180910390f35b3480156101f857600080fd5b50610213600480360381019061020e9190611613565b6108ac565b6040516102209190611b13565b60405180910390f35b34801561023557600080fd5b5061023e6108c4565b60405161024b9190611b13565b60405180910390f35b34801561026057600080fd5b506102696108ca565b6040516102769190611b13565b60405180910390f35b34801561028b57600080fd5b506102946108d0565b6040516102a19190611b13565b60405180910390f35b3480156102b657600080fd5b506102d160048036038101906102cc91906116df565b6108da565b6040516102de9190611978565b60405180910390f35b3480156102f357600080fd5b5061030e600480360381019061030991906116df565b610921565b60405161031b9190611978565b60405180910390f35b34801561033057600080fd5b50610339610990565b6040516103469190611b13565b60405180910390f35b34801561035b57600080fd5b5061037660048036038101906103719190611640565b610996565b005b34801561038457600080fd5b5061038d610b33565b60405161039a9190611b13565b60405180910390f35b3480156103af57600080fd5b506103b8610b3b565b6040516103c59190611978565b60405180910390f35b3480156103da57600080fd5b506103e3610b59565b6040516103f09190611b13565b60405180910390f35b34801561040557600080fd5b50610420600480360381019061041b9190611613565b610b5f565b60405161042d9190611978565b60405180910390f35b34801561044257600080fd5b5061044b610b7f565b6040516104589190611b13565b60405180910390f35b61047b600480360381019061047691906116df565b610b85565b005b610485610dd5565b005b34801561049357600080fd5b5061049c610fe9565b6040516104a99190611b13565b60405180910390f35b6104ba610fef565b005b3480156104c857600080fd5b506104e360048036038101906104de91906116df565b61114a565b6040516104f69796959493929190611b2e565b60405180910390f35b34801561050b57600080fd5b50610526600480360381019061052191906116df565b6112c9565b6040516105339190611978565b60405180910390f35b34801561054857600080fd5b506105516112fb565b60405161055e919061195d565b60405180910390f35b34801561057357600080fd5b5061058e600480360381019061058991906116df565b61131f565b6040516105a19796959493929190611bab565b60405180910390f35b6000600760003373ffffffffffffffffffffffffffffffffffffffff1673ffffffffffffffffffffffffffffffffffffffff168152602001908152602001600020541161062c576040517f08c379a000000000000000000000000000000000000000000000000000000000815260040161062390611ad3565b60405180910390fd5b600060086000838152602001908152602001600020905060008054906101000a900473ffffffffffffffffffffffffffffffffffffffff1673ffffffffffffffffffffffffffffffffffffffff163373ffffffffffffffffffffffffffffffffffffffff1614156106d2576040517f08c379a00000000000000000000000000000000000000000000000000000000081526004016106c9906119b3565b60405180910390fd5b600015158160060160003373ffffffffffffffffffffffffffffffffffffffff1673ffffffffffffffffffffffffffffffffffffffff16815260200190815260200160002060009054906101000a900460ff16151514610767576040517f08c379a000000000000000000000000000000000000000000000000000000000815260040161075e90611a53565b60405180910390fd5b60018160060160003373ffffffffffffffffffffffffffffffffffffffff1673ffffffffffffffffffffffffffffffffffffffff16815260200190815260200160002060006101000a81548160ff02191690831515021790555060018160050160008282546107d69190611ca5565b925050819055506001600960003373ffffffffffffffffffffffffffffffffffffffff1673ffffffffffffffffffffffffffffffffffffffff16815260200190815260200160002060006101000a81548160ff0219169083151502179055505050565b6000806000905042600354101561084f57600190505b8091505090565b6000600960008373ffffffffffffffffffffffffffffffffffffffff1673ffffffffffffffffffffffffffffffffffffffff16815260200190815260200160002060009054906101000a900460ff169050919050565b60076020528060005260406000206000915090505481565b60035481565b60025481565b6000600254905090565b60008060009050600060086000858152602001908152602001600020905060026001546109079190611cfb565b8160050154111561091757600191505b8192505050919050565b6000806008600084815260200190815260200160002090508060060160003373ffffffffffffffffffffffffffffffffffffffff1673ffffffffffffffffffffffffffffffffffffffff16815260200190815260200160002060009054906101000a900460ff16915050919050565b60015481565b60008054906101000a900473ffffffffffffffffffffffffffffffffffffffff1673ffffffffffffffffffffffffffffffffffffffff163373ffffffffffffffffffffffffffffffffffffffff1614610a24576040517f08c379a0000000000000000000000000000000000000000000000000000000008152600401610a1b90611af3565b60405180910390fd5b8060055411610a68576040517f08c379a0000000000000000000000000000000000000000000000000000000008152600401610a5f90611a93565b60405180910390fd5b60006008600060065481526020019081526020016000209050600654816000018190555083816002019080519060200190610aa49291906114c1565b5084816001019080519060200190610abd9291906114c1565b50828160040160006101000a81548173ffffffffffffffffffffffffffffffffffffffff021916908373ffffffffffffffffffffffffffffffffffffffff1602179055508181600301819055506000816005018190555060066000815480929190610b2790611e2b565b91905055505050505050565b600047905090565b6000806000905060025460055410610b5257600190505b8091505090565b60045481565b60096020528060005260406000206000915054906101000a900460ff1681565b60065481565b60008054906101000a900473ffffffffffffffffffffffffffffffffffffffff1673ffffffffffffffffffffffffffffffffffffffff163373ffffffffffffffffffffffffffffffffffffffff1614610c13576040517f08c379a0000000000000000000000000000000000000000000000000000000008152600401610c0a90611af3565b60405180910390fd5b8060006008600083815260200190815260200160002090506002600154610c3a9190611cfb565b816005015411610c7f576040517f08c379a0000000000000000000000000000000000000000000000000000000008152600401610c7690611a73565b60405180910390fd5b6002546005541015610cc6576040517f08c379a0000000000000000000000000000000000000000000000000000000008152600401610cbd90611a33565b60405180910390fd5b600060086000858152602001908152602001600020905060018160040160146101000a81548160ff02191690831515021790555060008160040160009054906101000a900473ffffffffffffffffffffffffffffffffffffffff1673ffffffffffffffffffffffffffffffffffffffff168260030154604051610d4890611948565b60006040518083038185875af1925050503d8060008114610d85576040519150601f19603f3d011682016040523d82523d6000602084013e610d8a565b606091505b5050905080610dce576040517f08c379a0000000000000000000000000000000000000000000000000000000008152600401610dc590611ab3565b60405180910390fd5b5050505050565b42600354118015610de95750600254600554105b610e28576040517f08c379a0000000000000000000000000000000000000000000000000000000008152600401610e1f906119f3565b60405180910390fd5b6000600760003373ffffffffffffffffffffffffffffffffffffffff1673ffffffffffffffffffffffffffffffffffffffff1681526020019081526020016000205411610eaa576040517f08c379a0000000000000000000000000000000000000000000000000000000008152600401610ea190611993565b60405180910390fd5b60003390506000600760003373ffffffffffffffffffffffffffffffffffffffff1673ffffffffffffffffffffffffffffffffffffffff1681526020019081526020016000205490506000600760003373ffffffffffffffffffffffffffffffffffffffff1673ffffffffffffffffffffffffffffffffffffffff1681526020019081526020016000208190555060008273ffffffffffffffffffffffffffffffffffffffff1682604051610f5e90611948565b60006040518083038185875af1925050503d8060008114610f9b576040519150601f19603f3d011682016040523d82523d6000602084013e610fa0565b606091505b5050905080610fe4576040517f08c379a0000000000000000000000000000000000000000000000000000000008152600401610fdb90611ab3565b60405180910390fd5b505050565b60055481565b4260035411611033576040517f08c379a000000000000000000000000000000000000000000000000000000000815260040161102a906119d3565b60405180910390fd5b600454341015611078576040517f08c379a000000000000000000000000000000000000000000000000000000000815260040161106f90611a13565b60405180910390fd5b6000600760003373ffffffffffffffffffffffffffffffffffffffff1673ffffffffffffffffffffffffffffffffffffffff1681526020019081526020016000205414156110d957600160008154809291906110d390611e2b565b91905055505b34600760003373ffffffffffffffffffffffffffffffffffffffff1673ffffffffffffffffffffffffffffffffffffffff16815260200190815260200160002060008282546111289190611ca5565b9250508190555034600560008282546111419190611ca5565b92505081905550565b600860205280600052604060002060009150905080600001549080600101805461117390611dc8565b80601f016020809104026020016040519081016040528092919081815260200182805461119f90611dc8565b80156111ec5780601f106111c1576101008083540402835291602001916111ec565b820191906000526020600020905b8154815290600101906020018083116111cf57829003601f168201915b50505050509080600201805461120190611dc8565b80601f016020809104026020016040519081016040528092919081815260200182805461122d90611dc8565b801561127a5780601f1061124f5761010080835404028352916020019161127a565b820191906000526020600020905b81548152906001019060200180831161125d57829003601f168201915b5050505050908060030154908060040160009054906101000a900473ffffffffffffffffffffffffffffffffffffffff16908060040160149054906101000a900460ff16908060050154905087565b6000806008600084815260200190815260200160002090508060040160149054906101000a900460ff16915050919050565b60008054906101000a900473ffffffffffffffffffffffffffffffffffffffff1681565b60006060806000806000806000600860008a815260200190815260200160002090508060000154816001018260020183600301548460040160009054906101000a900473ffffffffffffffffffffffffffffffffffffffff1685600501548660040160149054906101000a900460ff1685805461139b90611dc8565b80601f01602080910402602001604051908101604052809291908181526020018280546113c790611dc8565b80156114145780601f106113e957610100808354040283529160200191611414565b820191906000526020600020905b8154815290600101906020018083116113f757829003601f168201915b5050505050955084805461142790611dc8565b80601f016020809104026020016040519081016040528092919081815260200182805461145390611dc8565b80156114a05780601f10611475576101008083540402835291602001916114a0565b820191906000526020600020905b81548152906001019060200180831161148357829003601f168201915b50505050509450975097509750975097509750975050919395979092949650565b8280546114cd90611dc8565b90600052602060002090601f0160209004810192826114ef5760008555611536565b82601f1061150857805160ff1916838001178555611536565b82800160010185558215611536579182015b8281111561153557825182559160200191906001019061151a565b5b5090506115439190611547565b5090565b5b80821115611560576000816000905550600101611548565b5090565b600061157761157284611c4d565b611c28565b90508281526020810184848401111561159357611592611f35565b5b61159e848285611d86565b509392505050565b6000813590506115b581612274565b92915050565b6000813590506115ca8161228b565b92915050565b600082601f8301126115e5576115e4611f30565b5b81356115f5848260208601611564565b91505092915050565b60008135905061160d816122a2565b92915050565b60006020828403121561162957611628611f3f565b5b6000611637848285016115a6565b91505092915050565b6000806000806080858703121561165a57611659611f3f565b5b600085013567ffffffffffffffff81111561167857611677611f3a565b5b611684878288016115d0565b945050602085013567ffffffffffffffff8111156116a5576116a4611f3a565b5b6116b1878288016115d0565b93505060406116c2878288016115bb565b92505060606116d3878288016115fe565b91505092959194509250565b6000602082840312156116f5576116f4611f3f565b5b6000611703848285016115fe565b91505092915050565b61171581611d3e565b82525050565b61172481611d2c565b82525050565b61173381611d50565b82525050565b600061174482611c7e565b61174e8185611c94565b935061175e818560208601611d95565b61176781611f44565b840191505092915050565b600061177f603883611c94565b915061178a82611f55565b604082019050919050565b60006117a2601a83611c94565b91506117ad82611fa4565b602082019050919050565b60006117c5602a83611c94565b91506117d082611fcd565b604082019050919050565b60006117e8603b83611c94565b91506117f38261201c565b604082019050919050565b600061180b601d83611c94565b91506118168261206b565b602082019050919050565b600061182e602c83611c94565b915061183982612094565b604082019050919050565b6000611851603283611c94565b915061185c826120e3565b604082019050919050565b6000611874603583611c94565b915061187f82612132565b604082019050919050565b6000611897603483611c94565b91506118a282612181565b604082019050919050565b60006118ba602683611c94565b91506118c5826121d0565b604082019050919050565b60006118dd600083611c89565b91506118e88261221f565b600082019050919050565b6000611900601183611c94565b915061190b82612222565b602082019050919050565b6000611923600b83611c94565b915061192e8261224b565b602082019050919050565b61194281611d7c565b82525050565b6000611953826118d0565b9150819050919050565b6000602082019050611972600083018461171b565b92915050565b600060208201905061198d600083018461172a565b92915050565b600060208201905081810360008301526119ac81611772565b9050919050565b600060208201905081810360008301526119cc81611795565b9050919050565b600060208201905081810360008301526119ec816117b8565b9050919050565b60006020820190508181036000830152611a0c816117db565b9050919050565b60006020820190508181036000830152611a2c816117fe565b9050919050565b60006020820190508181036000830152611a4c81611821565b9050919050565b60006020820190508181036000830152611a6c81611844565b9050919050565b60006020820190508181036000830152611a8c81611867565b9050919050565b60006020820190508181036000830152611aac8161188a565b9050919050565b60006020820190508181036000830152611acc816118ad565b9050919050565b60006020820190508181036000830152611aec816118f3565b9050919050565b60006020820190508181036000830152611b0c81611916565b9050919050565b6000602082019050611b286000830184611939565b92915050565b600060e082019050611b43600083018a611939565b8181036020830152611b558189611739565b90508181036040830152611b698188611739565b9050611b786060830187611939565b611b85608083018661170c565b611b9260a083018561172a565b611b9f60c0830184611939565b98975050505050505050565b600060e082019050611bc0600083018a611939565b8181036020830152611bd28189611739565b90508181036040830152611be68188611739565b9050611bf56060830187611939565b611c02608083018661171b565b611c0f60a0830185611939565b611c1c60c083018461172a565b98975050505050505050565b6000611c32611c43565b9050611c3e8282611dfa565b919050565b6000604051905090565b600067ffffffffffffffff821115611c6857611c67611f01565b5b611c7182611f44565b9050602081019050919050565b600081519050919050565b600081905092915050565b600082825260208201905092915050565b6000611cb082611d7c565b9150611cbb83611d7c565b9250827fffffffffffffffffffffffffffffffffffffffffffffffffffffffffffffffff03821115611cf057611cef611e74565b5b828201905092915050565b6000611d0682611d7c565b9150611d1183611d7c565b925082611d2157611d20611ea3565b5b828204905092915050565b6000611d3782611d5c565b9050919050565b6000611d4982611d5c565b9050919050565b60008115159050919050565b600073ffffffffffffffffffffffffffffffffffffffff82169050919050565b6000819050919050565b82818337600083830152505050565b60005b83811015611db3578082015181840152602081019050611d98565b83811115611dc2576000848401525b50505050565b60006002820490506001821680611de057607f821691505b60208210811415611df457611df3611ed2565b5b50919050565b611e0382611f44565b810181811067ffffffffffffffff82111715611e2257611e21611f01565b5b80604052505050565b6000611e3682611d7c565b91507fffffffffffffffffffffffffffffffffffffffffffffffffffffffffffffffff821415611e6957611e68611e74565b5b600182019050919050565b7f4e487b7100000000000000000000000000000000000000000000000000000000600052601160045260246000fd5b7f4e487b7100000000000000000000000000000000000000000000000000000000600052601260045260246000fd5b7f4e487b7100000000000000000000000000000000000000000000000000000000600052602260045260246000fd5b7f4e487b7100000000000000000000000000000000000000000000000000000000600052604160045260246000fd5b600080fd5b600080fd5b600080fd5b600080fd5b6000601f19601f8301169050919050565b7f596f752068617665206e6f7420636f6e747269627574656420746f207468652060008201527f63616d706169676e2c2063616e6e6f7420726566756e64210000000000000000602082015250565b7f41646d696e2063616e6e6f742063617374206120766f74652120000000000000600082015250565b7f205468652063616d706169676e20636f6e747269627574696f6e20646561646c60008201527f696e6520656e6465642100000000000000000000000000000000000000000000602082015250565b7f5468652063616d706169676e2072616973656420616d6f756e7420686173206260008201527f65656e20726561636865642c2063616e6e6f7420726566756e64210000000000602082015250565b7f4d696e696d756d20636f6e747269627574696f6e206e6f74206d657421000000600082015250565b7f5468652066756e64696e672066756e647320676f616c20686173206e6f74206260008201527f65656e2072656163686564210000000000000000000000000000000000000000602082015250565b7f596f75206861766520616c6c726561647920766f74656420666f72207468697360008201527f207370656e64696e672072657175657374210000000000000000000000000000602082015250565b7f546865207265717565737420686173206e6f74207265636569766564206d6f7260008201527f65207468616e2068616c66206f6620766f746573210000000000000000000000602082015250565b7f4e6f7420656e6f7567682066756e64732072616973656420666f72207468697360008201527f207265717565737465642070726f706f73616c21000000000000000000000000602082015250565b7f5472616e7366657220746f206f776e6572206f662074686520636f757273652060008201527f6661696c65640000000000000000000000000000000000000000000000000000602082015250565b50565b7f4e6f20726967687420746f20766f746521000000000000000000000000000000600082015250565b7f4f6e6c792061646d696e21000000000000000000000000000000000000000000600082015250565b61227d81611d2c565b811461228857600080fd5b50565b61229481611d3e565b811461229f57600080fd5b50565b6122ab81611d7c565b81146122b657600080fd5b5056fea264697066735822122061c8fe9aa857b555168c3d1c95031df48b08df240d8c93dea430ffed6ef424a864736f6c63430008070033",
  "immutableReferences": {},
  "source": "// SPDX-License-Identifier: MIT\r\npragma solidity 0.8.7;\r\npragma experimental ABIEncoderV2;\r\n\r\ncontract CrowdFunding {\r\n    address public admin;\r\n    uint256 public noOfContributors;\r\n    uint256 public goal;\r\n    uint256 public deadline;\r\n    uint256 public minContribution;\r\n    uint256 public raisedAmount;\r\n    uint256 public id;\r\n\r\n    struct Request {\r\n        uint256 id;\r\n        string title;\r\n        string description;\r\n        uint256 value;\r\n        address payable recipient;\r\n        bool completed;\r\n        uint256 noOfVOters;\r\n        mapping(address => bool) voters;\r\n    }\r\n\r\n    mapping(address => uint256) public contributors;\r\n    mapping(uint256 => Request) public spendingRequests;\r\n    mapping(address => bool) public voted;\r\n\r\n    constructor(\r\n        uint256 _deadline,\r\n        uint256 _goal,\r\n        uint256 _minContribution\r\n    ) {\r\n        minContribution = _minContribution;\r\n        deadline = block.timestamp + _deadline;\r\n        goal = _goal;\r\n        admin = msg.sender;\r\n    }\r\n\r\n    receive() external payable {}\r\n\r\n    function contribute() external payable {\r\n        require(\r\n            deadline > block.timestamp,\r\n            \" The campaign contribution deadline ended!\"\r\n        );\r\n        require(msg.value >= minContribution, \"Minimum contribution not met!\");\r\n        if (contributors[msg.sender] == 0) {\r\n            noOfContributors++;\r\n        }\r\n        contributors[msg.sender] += msg.value;\r\n        raisedAmount += msg.value;\r\n    }\r\n\r\n    function getRefund() external payable {\r\n        require(\r\n            deadline > block.timestamp && raisedAmount < goal,\r\n            \"The campaign raised amount has been reached, cannot refund!\"\r\n        );\r\n   \r\n        require(\r\n            contributors[msg.sender] > 0,\r\n            \"You have not contributed to the campaign, cannot refund!\"\r\n        );\r\n        address payable recipient = payable(msg.sender);\r\n        uint256 value = contributors[msg.sender];\r\n        contributors[msg.sender] = 0;\r\n\r\n        (bool success, ) = recipient.call{value: value}(\"\");\r\n        require(success, \"Transfer to owner of the course failed\");\r\n    }\r\n\r\n    function spendingRequest(\r\n        string memory _title,\r\n        string memory _description,\r\n        address payable _recipient,\r\n        uint256 _value\r\n    ) external onlyOwner {\r\n        require(\r\n            raisedAmount > _value,\r\n            \"Not enough funds raised for this requested proposal!\"\r\n        );\r\n\r\n        Request storage newRequest = spendingRequests[id];\r\n        newRequest.id = id;\r\n        newRequest.description = _description;\r\n        newRequest.title = _title;\r\n        newRequest.recipient = _recipient;\r\n        newRequest.value = _value;\r\n        newRequest.noOfVOters = 0;\r\n\r\n        id++;\r\n    }\r\n\r\n    function vote(uint256 _id) external contributorRights {\r\n        Request storage request = spendingRequests[_id];\r\n        require(msg.sender != admin, \"Admin cannot cast a vote! \");\r\n        require(\r\n            request.voters[msg.sender] == false,\r\n            \"You have allready voted for this spending request!\"\r\n        );\r\n        request.voters[msg.sender] = true;\r\n        request.noOfVOters += 1;\r\n        voted[msg.sender] = true;\r\n    }\r\n\r\n    function hasVoted(address _voter) external view returns (bool) {\r\n        return voted[_voter];\r\n    }\r\n\r\n    function votedForSpendingRequest(uint256 _id) external view returns (bool) {\r\n        Request storage r = spendingRequests[_id];\r\n\r\n        return r.voters[msg.sender];\r\n    }\r\n\r\n    function deadline_() external view returns (bool) {\r\n        bool isDeadline = false;\r\n\r\n        if (deadline < block.timestamp) {\r\n            isDeadline = true;\r\n        }\r\n\r\n        return isDeadline;\r\n    }\r\n\r\n    function getContractBalance() external view returns (uint256) {\r\n        return address(this).balance;\r\n    }\r\n\r\n    function getSpendingRequest(uint256 _id)\r\n        public\r\n        view\r\n        returns (\r\n            uint256,\r\n            string memory,\r\n            string memory,\r\n            uint256,\r\n            address,\r\n            uint256,\r\n            bool\r\n        )\r\n    {\r\n        Request storage r = spendingRequests[_id];\r\n\r\n        return (\r\n            r.id,\r\n            r.title,\r\n            r.description,\r\n            r.value,\r\n            r.recipient,\r\n            r.noOfVOters,\r\n            r.completed\r\n        );\r\n    }\r\n\r\n    function raisedAmount_() external view returns (bool) {\r\n        bool isRaised = false;\r\n\r\n        if (raisedAmount >= goal) {\r\n            isRaised = true;\r\n        }\r\n\r\n        return isRaised;\r\n    }\r\n\r\n    function noOfVoters_(uint256 _id) external view returns (bool) {\r\n        bool enoughVoters = false;\r\n        Request storage request = spendingRequests[_id];\r\n        if (request.noOfVOters > noOfContributors / 2) {\r\n            enoughVoters = true;\r\n        }\r\n\r\n        return enoughVoters;\r\n    }\r\n\r\n    function goal_() external view returns (uint256) {\r\n        return goal;\r\n    }\r\n\r\n    function transferRequestFunds(uint256 _id)\r\n        external\r\n        payable\r\n        onlyOwner\r\n        requestApproved(_id)\r\n    {\r\n        require(\r\n            raisedAmount >= goal,\r\n            \"The funding funds goal has not been reached!\"\r\n        );\r\n        Request storage request = spendingRequests[_id];\r\n        request.completed = true;\r\n\r\n        (bool success, ) = request.recipient.call{value: request.value}(\"\");\r\n        require(success, \"Transfer to owner of the course failed\");\r\n    }\r\n\r\n    function completedRequests(uint256 _id) external returns (bool) {\r\n        Request storage request = spendingRequests[_id];\r\n\r\n        return (request.completed);\r\n    }\r\n\r\n    modifier requestApproved(uint256 _id) {\r\n        Request storage request = spendingRequests[_id];\r\n        require(\r\n            request.noOfVOters > noOfContributors / 2,\r\n            \"The request has not received more than half of votes!\"\r\n        );\r\n        _;\r\n    }\r\n\r\n    modifier contributorRights() {\r\n        require(contributors[msg.sender] > 0, \"No right to vote!\");\r\n        _;\r\n    }\r\n\r\n    modifier onlyOwner() {\r\n        require(msg.sender == admin, \"Only admin!\");\r\n        _;\r\n    }\r\n}\r\n",
  "sourcePath": "C:\\Udemy -Complete DApp blockchain development\\daodapp_nextjs\\contracts\\Crowdfunding.sol",
  "compiler": {
    "name": "solc",
    "version": "0.8.7+commit.e28d00a7.Emscripten.clang"
  },
  "schemaVersion": "3.4.4",
  "updatedAt": "2022-02-11T08:17:44.292Z",
  "networkType": "ethereum",
  "devdoc": {
    "kind": "dev",
    "methods": {},
    "version": 1
  },
  "userdoc": {
    "kind": "user",
    "methods": {},
    "version": 1
  }
}