{
  "contractName": "CrowdFunding",
  "abi": [
    {
      "inputs": [
        {
          "internalType": "uint256",
          "name": "_deadline",
          "type": "uint256"
        },
        {
          "internalType": "uint256",
          "name": "_goal",
          "type": "uint256"
        },
        {
          "internalType": "uint256",
          "name": "_minContribution",
          "type": "uint256"
        }
      ],
      "stateMutability": "nonpayable",
      "type": "constructor"
    },
    {
      "inputs": [],
      "name": "admin",
      "outputs": [
        {
          "internalType": "address",
          "name": "",
          "type": "address"
        }
      ],
      "stateMutability": "view",
      "type": "function",
      "constant": true
    },
    {
      "inputs": [
        {
          "internalType": "address",
          "name": "",
          "type": "address"
        }
      ],
      "name": "contributors",
      "outputs": [
        {
          "internalType": "uint256",
          "name": "",
          "type": "uint256"
        }
      ],
      "stateMutability": "view",
      "type": "function",
      "constant": true
    },
    {
      "inputs": [],
      "name": "deadline",
      "outputs": [
        {
          "internalType": "uint256",
          "name": "",
          "type": "uint256"
        }
      ],
      "stateMutability": "view",
      "type": "function",
      "constant": true
    },
    {
      "inputs": [],
      "name": "goal",
      "outputs": [
        {
          "internalType": "uint256",
          "name": "",
          "type": "uint256"
        }
      ],
      "stateMutability": "view",
      "type": "function",
      "constant": true
    },
    {
      "inputs": [],
      "name": "id",
      "outputs": [
        {
          "internalType": "uint256",
          "name": "",
          "type": "uint256"
        }
      ],
      "stateMutability": "view",
      "type": "function",
      "constant": true
    },
    {
      "inputs": [],
      "name": "minContribution",
      "outputs": [
        {
          "internalType": "uint256",
          "name": "",
          "type": "uint256"
        }
      ],
      "stateMutability": "view",
      "type": "function",
      "constant": true
    },
    {
      "inputs": [],
      "name": "noOfContributors",
      "outputs": [
        {
          "internalType": "uint256",
          "name": "",
          "type": "uint256"
        }
      ],
      "stateMutability": "view",
      "type": "function",
      "constant": true
    },
    {
      "inputs": [],
      "name": "raisedAmount",
      "outputs": [
        {
          "internalType": "uint256",
          "name": "",
          "type": "uint256"
        }
      ],
      "stateMutability": "view",
      "type": "function",
      "constant": true
    },
    {
      "inputs": [
        {
          "internalType": "uint256",
          "name": "",
          "type": "uint256"
        }
      ],
      "name": "spendingRequests",
      "outputs": [
        {
          "internalType": "uint256",
          "name": "id",
          "type": "uint256"
        },
        {
          "internalType": "string",
          "name": "title",
          "type": "string"
        },
        {
          "internalType": "string",
          "name": "description",
          "type": "string"
        },
        {
          "internalType": "uint256",
          "name": "value",
          "type": "uint256"
        },
        {
          "internalType": "address payable",
          "name": "recipient",
          "type": "address"
        },
        {
          "internalType": "bool",
          "name": "completed",
          "type": "bool"
        },
        {
          "internalType": "uint256",
          "name": "noOfVOters",
          "type": "uint256"
        }
      ],
      "stateMutability": "view",
      "type": "function",
      "constant": true
    },
    {
      "inputs": [
        {
          "internalType": "address",
          "name": "",
          "type": "address"
        }
      ],
      "name": "voted",
      "outputs": [
        {
          "internalType": "bool",
          "name": "",
          "type": "bool"
        }
      ],
      "stateMutability": "view",
      "type": "function",
      "constant": true
    },
    {
      "stateMutability": "payable",
      "type": "receive",
      "payable": true
    },
    {
      "inputs": [],
      "name": "contribute",
      "outputs": [],
      "stateMutability": "payable",
      "type": "function",
      "payable": true
    },
    {
      "inputs": [],
      "name": "getRefund",
      "outputs": [],
      "stateMutability": "payable",
      "type": "function",
      "payable": true
    },
    {
      "inputs": [
        {
          "internalType": "string",
          "name": "_title",
          "type": "string"
        },
        {
          "internalType": "string",
          "name": "_description",
          "type": "string"
        },
        {
          "internalType": "address payable",
          "name": "_recipient",
          "type": "address"
        },
        {
          "internalType": "uint256",
          "name": "_value",
          "type": "uint256"
        }
      ],
      "name": "spendingRequest",
      "outputs": [],
      "stateMutability": "nonpayable",
      "type": "function"
    },
    {
      "inputs": [
        {
          "internalType": "uint256",
          "name": "_id",
          "type": "uint256"
        }
      ],
      "name": "vote",
      "outputs": [],
      "stateMutability": "nonpayable",
      "type": "function"
    },
    {
      "inputs": [
        {
          "internalType": "address",
          "name": "_voter",
          "type": "address"
        }
      ],
      "name": "hasVoted",
      "outputs": [
        {
          "internalType": "bool",
          "name": "",
          "type": "bool"
        }
      ],
      "stateMutability": "view",
      "type": "function",
      "constant": true
    },
    {
      "inputs": [
        {
          "internalType": "uint256",
          "name": "_id",
          "type": "uint256"
        }
      ],
      "name": "votedForSpendingRequest",
      "outputs": [
        {
          "internalType": "bool",
          "name": "",
          "type": "bool"
        }
      ],
      "stateMutability": "view",
      "type": "function",
      "constant": true
    },
    {
      "inputs": [],
      "name": "deadline_",
      "outputs": [
        {
          "internalType": "bool",
          "name": "",
          "type": "bool"
        }
      ],
      "stateMutability": "view",
      "type": "function",
      "constant": true
    },
    {
      "inputs": [],
      "name": "getContractBalance",
      "outputs": [
        {
          "internalType": "uint256",
          "name": "",
          "type": "uint256"
        }
      ],
      "stateMutability": "view",
      "type": "function",
      "constant": true
    },
    {
      "inputs": [
        {
          "internalType": "uint256",
          "name": "_id",
          "type": "uint256"
        }
      ],
      "name": "getSpendingRequest",
      "outputs": [
        {
          "internalType": "uint256",
          "name": "",
          "type": "uint256"
        },
        {
          "internalType": "string",
          "name": "",
          "type": "string"
        },
        {
          "internalType": "string",
          "name": "",
          "type": "string"
        },
        {
          "internalType": "uint256",
          "name": "",
          "type": "uint256"
        },
        {
          "internalType": "address",
          "name": "",
          "type": "address"
        },
        {
          "internalType": "uint256",
          "name": "",
          "type": "uint256"
        },
        {
          "internalType": "bool",
          "name": "",
          "type": "bool"
        }
      ],
      "stateMutability": "view",
      "type": "function",
      "constant": true
    },
    {
      "inputs": [],
      "name": "raisedAmount_",
      "outputs": [
        {
          "internalType": "bool",
          "name": "",
          "type": "bool"
        }
      ],
      "stateMutability": "view",
      "type": "function",
      "constant": true
    },
    {
      "inputs": [
        {
          "internalType": "uint256",
          "name": "_id",
          "type": "uint256"
        }
      ],
      "name": "noOfVoters_",
      "outputs": [
        {
          "internalType": "bool",
          "name": "",
          "type": "bool"
        }
      ],
      "stateMutability": "view",
      "type": "function",
      "constant": true
    },
    {
      "inputs": [],
      "name": "goal_",
      "outputs": [
        {
          "internalType": "uint256",
          "name": "",
          "type": "uint256"
        }
      ],
      "stateMutability": "view",
      "type": "function",
      "constant": true
    },
    {
      "inputs": [
        {
          "internalType": "uint256",
          "name": "_id",
          "type": "uint256"
        }
      ],
      "name": "transferRequestFunds",
      "outputs": [],
      "stateMutability": "payable",
      "type": "function",
      "payable": true
    },
    {
      "inputs": [
        {
          "internalType": "uint256",
          "name": "_id",
          "type": "uint256"
        }
      ],
      "name": "completedRequests",
      "outputs": [
        {
          "internalType": "bool",
          "name": "",
          "type": "bool"
        }
      ],
      "stateMutability": "nonpayable",
      "type": "function"
    }
  ],
  "bytecode": "0x60806040523480156200001157600080fd5b506040516200234b3803806200234b8339818101604052810190620000379190620000b9565b8060048190555082426200004c919062000115565b60038190555081600281905550336000806101000a81548173ffffffffffffffffffffffffffffffffffffffff021916908373ffffffffffffffffffffffffffffffffffffffff160217905550505050620001ca565b600081519050620000b381620001b0565b92915050565b600080600060608486031215620000d557620000d4620001ab565b5b6000620000e586828701620000a2565b9350506020620000f886828701620000a2565b92505060406200010b86828701620000a2565b9150509250925092565b6000620001228262000172565b91506200012f8362000172565b9250827fffffffffffffffffffffffffffffffffffffffffffffffffffffffffffffffff038211156200016757620001666200017c565b5b828201905092915050565b6000819050919050565b7f4e487b7100000000000000000000000000000000000000000000000000000000600052601160045260246000fd5b600080fd5b620001bb8162000172565b8114620001c757600080fd5b50565b61217180620001da6000396000f3fe60806040526004361061014f5760003560e01c806390aadd60116100b6578063c59ee1dc1161006f578063c59ee1dc14610487578063d7bb99ba146104b2578063e77e0f8e146104bc578063f0fbfbf3146104ff578063f851a4401461053c578063fdba0ed91461056757610156565b806390aadd60146103a3578063aaffadf3146103ce578063aec2ccae146103f9578063af640d0f14610436578063af87b5b614610461578063b2d5ae441461047d57610156565b80634159f397116101085780634159f3971461027f5780634c69b583146102aa5780634e18eb29146102e75780634e260f6f146103245780636bbe36721461034f5780636f9fb98a1461037857610156565b80630121b93f1461015b57806302d802d01461018457806309eef43e146101af5780631f6d4942146101ec57806329dcb0cf14610229578063401938831461025457610156565b3661015657005b600080fd5b34801561016757600080fd5b50610182600480360381019061017d9190611613565b6105aa565b005b34801561019057600080fd5b50610199610839565b6040516101a69190611851565b60405180910390f35b3480156101bb57600080fd5b506101d660048036038101906101d19190611547565b610856565b6040516101e39190611851565b60405180910390f35b3480156101f857600080fd5b50610213600480360381019061020e9190611547565b6108ac565b60405161022091906119cc565b60405180910390f35b34801561023557600080fd5b5061023e6108c4565b60405161024b91906119cc565b60405180910390f35b34801561026057600080fd5b506102696108ca565b60405161027691906119cc565b60405180910390f35b34801561028b57600080fd5b506102946108d0565b6040516102a191906119cc565b60405180910390f35b3480156102b657600080fd5b506102d160048036038101906102cc9190611613565b6108da565b6040516102de9190611851565b60405180910390f35b3480156102f357600080fd5b5061030e60048036038101906103099190611613565b610921565b60405161031b9190611851565b60405180910390f35b34801561033057600080fd5b50610339610990565b60405161034691906119cc565b60405180910390f35b34801561035b57600080fd5b5061037660048036038101906103719190611574565b610996565b005b34801561038457600080fd5b5061038d610b33565b60405161039a91906119cc565b60405180910390f35b3480156103af57600080fd5b506103b8610b3b565b6040516103c59190611851565b60405180910390f35b3480156103da57600080fd5b506103e3610b59565b6040516103f091906119cc565b60405180910390f35b34801561040557600080fd5b50610420600480360381019061041b9190611547565b610b5f565b60405161042d9190611851565b60405180910390f35b34801561044257600080fd5b5061044b610b7f565b60405161045891906119cc565b60405180910390f35b61047b60048036038101906104769190611613565b610b85565b005b610485610d6f565b005b34801561049357600080fd5b5061049c610f1d565b6040516104a991906119cc565b60405180910390f35b6104ba610f23565b005b3480156104c857600080fd5b506104e360048036038101906104de9190611613565b61107e565b6040516104f697969594939291906119e7565b60405180910390f35b34801561050b57600080fd5b5061052660048036038101906105219190611613565b6111fd565b6040516105339190611851565b60405180910390f35b34801561054857600080fd5b5061055161122f565b60405161055e9190611836565b60405180910390f35b34801561057357600080fd5b5061058e60048036038101906105899190611613565b611253565b6040516105a19796959493929190611a64565b60405180910390f35b6000600760003373ffffffffffffffffffffffffffffffffffffffff1673ffffffffffffffffffffffffffffffffffffffff168152602001908152602001600020541161062c576040517f08c379a00000000000000000000000000000000000000000000000000000000081526004016106239061198c565b60405180910390fd5b600060086000838152602001908152602001600020905060008054906101000a900473ffffffffffffffffffffffffffffffffffffffff1673ffffffffffffffffffffffffffffffffffffffff163373ffffffffffffffffffffffffffffffffffffffff1614156106d2576040517f08c379a00000000000000000000000000000000000000000000000000000000081526004016106c99061188c565b60405180910390fd5b600015158160060160003373ffffffffffffffffffffffffffffffffffffffff1673ffffffffffffffffffffffffffffffffffffffff16815260200190815260200160002060009054906101000a900460ff16151514610767576040517f08c379a000000000000000000000000000000000000000000000000000000000815260040161075e9061192c565b60405180910390fd5b60018160060160003373ffffffffffffffffffffffffffffffffffffffff1673ffffffffffffffffffffffffffffffffffffffff16815260200190815260200160002060006101000a81548160ff02191690831515021790555060018160050160008282546107d69190611b53565b925050819055506001600960003373ffffffffffffffffffffffffffffffffffffffff1673ffffffffffffffffffffffffffffffffffffffff16815260200190815260200160002060006101000a81548160ff0219169083151502179055505050565b6000806000905042600354101561084f57600190505b8091505090565b6000600960008373ffffffffffffffffffffffffffffffffffffffff1673ffffffffffffffffffffffffffffffffffffffff16815260200190815260200160002060009054906101000a900460ff169050919050565b60076020528060005260406000206000915090505481565b60035481565b60025481565b6000600254905090565b60008060009050600060086000858152602001908152602001600020905060026001546109079190611ba9565b8160050154111561091757600191505b8192505050919050565b6000806008600084815260200190815260200160002090508060060160003373ffffffffffffffffffffffffffffffffffffffff1673ffffffffffffffffffffffffffffffffffffffff16815260200190815260200160002060009054906101000a900460ff16915050919050565b60015481565b60008054906101000a900473ffffffffffffffffffffffffffffffffffffffff1673ffffffffffffffffffffffffffffffffffffffff163373ffffffffffffffffffffffffffffffffffffffff1614610a24576040517f08c379a0000000000000000000000000000000000000000000000000000000008152600401610a1b906119ac565b60405180910390fd5b8060055411610a68576040517f08c379a0000000000000000000000000000000000000000000000000000000008152600401610a5f9061196c565b60405180910390fd5b60006008600060065481526020019081526020016000209050600654816000018190555083816002019080519060200190610aa49291906113f5565b5084816001019080519060200190610abd9291906113f5565b50828160040160006101000a81548173ffffffffffffffffffffffffffffffffffffffff021916908373ffffffffffffffffffffffffffffffffffffffff1602179055508181600301819055506000816005018190555060066000815480929190610b2790611cd9565b91905055505050505050565b600047905090565b6000806000905060025460055410610b5257600190505b8091505090565b60045481565b60096020528060005260406000206000915054906101000a900460ff1681565b60065481565b60008054906101000a900473ffffffffffffffffffffffffffffffffffffffff1673ffffffffffffffffffffffffffffffffffffffff163373ffffffffffffffffffffffffffffffffffffffff1614610c13576040517f08c379a0000000000000000000000000000000000000000000000000000000008152600401610c0a906119ac565b60405180910390fd5b8060006008600083815260200190815260200160002090506002600154610c3a9190611ba9565b816005015411610c7f576040517f08c379a0000000000000000000000000000000000000000000000000000000008152600401610c769061194c565b60405180910390fd5b6002546005541015610cc6576040517f08c379a0000000000000000000000000000000000000000000000000000000008152600401610cbd9061190c565b60405180910390fd5b600060086000858152602001908152602001600020905060018160040160146101000a81548160ff0219169083151502179055508060040160009054906101000a900473ffffffffffffffffffffffffffffffffffffffff1673ffffffffffffffffffffffffffffffffffffffff166108fc82600301549081150290604051600060405180830381858888f19350505050158015610d68573d6000803e3d6000fd5b5050505050565b42600354108015610d835750600254600554105b610dc2576040517f08c379a0000000000000000000000000000000000000000000000000000000008152600401610db9906118ec565b60405180910390fd5b6000600760003373ffffffffffffffffffffffffffffffffffffffff1673ffffffffffffffffffffffffffffffffffffffff1681526020019081526020016000205411610e44576040517f08c379a0000000000000000000000000000000000000000000000000000000008152600401610e3b9061186c565b60405180910390fd5b60003390506000600760003373ffffffffffffffffffffffffffffffffffffffff1673ffffffffffffffffffffffffffffffffffffffff1681526020019081526020016000205490506000600760003373ffffffffffffffffffffffffffffffffffffffff1673ffffffffffffffffffffffffffffffffffffffff168152602001908152602001600020819055508173ffffffffffffffffffffffffffffffffffffffff166108fc829081150290604051600060405180830381858888f19350505050158015610f18573d6000803e3d6000fd5b505050565b60055481565b4260035411610f67576040517f08c379a0000000000000000000000000000000000000000000000000000000008152600401610f5e906118ac565b60405180910390fd5b600454341015610fac576040517f08c379a0000000000000000000000000000000000000000000000000000000008152600401610fa3906118cc565b60405180910390fd5b6000600760003373ffffffffffffffffffffffffffffffffffffffff1673ffffffffffffffffffffffffffffffffffffffff16815260200190815260200160002054141561100d576001600081548092919061100790611cd9565b91905055505b34600760003373ffffffffffffffffffffffffffffffffffffffff1673ffffffffffffffffffffffffffffffffffffffff168152602001908152602001600020600082825461105c9190611b53565b9250508190555034600560008282546110759190611b53565b92505081905550565b60086020528060005260406000206000915090508060000154908060010180546110a790611c76565b80601f01602080910402602001604051908101604052809291908181526020018280546110d390611c76565b80156111205780601f106110f557610100808354040283529160200191611120565b820191906000526020600020905b81548152906001019060200180831161110357829003601f168201915b50505050509080600201805461113590611c76565b80601f016020809104026020016040519081016040528092919081815260200182805461116190611c76565b80156111ae5780601f10611183576101008083540402835291602001916111ae565b820191906000526020600020905b81548152906001019060200180831161119157829003601f168201915b5050505050908060030154908060040160009054906101000a900473ffffffffffffffffffffffffffffffffffffffff16908060040160149054906101000a900460ff16908060050154905087565b6000806008600084815260200190815260200160002090508060040160149054906101000a900460ff16915050919050565b60008054906101000a900473ffffffffffffffffffffffffffffffffffffffff1681565b60006060806000806000806000600860008a815260200190815260200160002090508060000154816001018260020183600301548460040160009054906101000a900473ffffffffffffffffffffffffffffffffffffffff1685600501548660040160149054906101000a900460ff168580546112cf90611c76565b80601f01602080910402602001604051908101604052809291908181526020018280546112fb90611c76565b80156113485780601f1061131d57610100808354040283529160200191611348565b820191906000526020600020905b81548152906001019060200180831161132b57829003601f168201915b5050505050955084805461135b90611c76565b80601f016020809104026020016040519081016040528092919081815260200182805461138790611c76565b80156113d45780601f106113a9576101008083540402835291602001916113d4565b820191906000526020600020905b8154815290600101906020018083116113b757829003601f168201915b50505050509450975097509750975097509750975050919395979092949650565b82805461140190611c76565b90600052602060002090601f016020900481019282611423576000855561146a565b82601f1061143c57805160ff191683800117855561146a565b8280016001018555821561146a579182015b8281111561146957825182559160200191906001019061144e565b5b509050611477919061147b565b5090565b5b8082111561149457600081600090555060010161147c565b5090565b60006114ab6114a684611b06565b611ae1565b9050828152602081018484840111156114c7576114c6611de3565b5b6114d2848285611c34565b509392505050565b6000813590506114e9816120f6565b92915050565b6000813590506114fe8161210d565b92915050565b600082601f83011261151957611518611dde565b5b8135611529848260208601611498565b91505092915050565b60008135905061154181612124565b92915050565b60006020828403121561155d5761155c611ded565b5b600061156b848285016114da565b91505092915050565b6000806000806080858703121561158e5761158d611ded565b5b600085013567ffffffffffffffff8111156115ac576115ab611de8565b5b6115b887828801611504565b945050602085013567ffffffffffffffff8111156115d9576115d8611de8565b5b6115e587828801611504565b93505060406115f6878288016114ef565b925050606061160787828801611532565b91505092959194509250565b60006020828403121561162957611628611ded565b5b600061163784828501611532565b91505092915050565b61164981611bec565b82525050565b61165881611bda565b82525050565b61166781611bfe565b82525050565b600061167882611b37565b6116828185611b42565b9350611692818560208601611c43565b61169b81611df2565b840191505092915050565b60006116b3603883611b42565b91506116be82611e03565b604082019050919050565b60006116d6601a83611b42565b91506116e182611e52565b602082019050919050565b60006116f9602a83611b42565b915061170482611e7b565b604082019050919050565b600061171c601d83611b42565b915061172782611eca565b602082019050919050565b600061173f604f83611b42565b915061174a82611ef3565b606082019050919050565b6000611762602c83611b42565b915061176d82611f68565b604082019050919050565b6000611785603283611b42565b915061179082611fb7565b604082019050919050565b60006117a8603583611b42565b91506117b382612006565b604082019050919050565b60006117cb603483611b42565b91506117d682612055565b604082019050919050565b60006117ee601183611b42565b91506117f9826120a4565b602082019050919050565b6000611811600b83611b42565b915061181c826120cd565b602082019050919050565b61183081611c2a565b82525050565b600060208201905061184b600083018461164f565b92915050565b6000602082019050611866600083018461165e565b92915050565b60006020820190508181036000830152611885816116a6565b9050919050565b600060208201905081810360008301526118a5816116c9565b9050919050565b600060208201905081810360008301526118c5816116ec565b9050919050565b600060208201905081810360008301526118e58161170f565b9050919050565b6000602082019050818103600083015261190581611732565b9050919050565b6000602082019050818103600083015261192581611755565b9050919050565b6000602082019050818103600083015261194581611778565b9050919050565b600060208201905081810360008301526119658161179b565b9050919050565b60006020820190508181036000830152611985816117be565b9050919050565b600060208201905081810360008301526119a5816117e1565b9050919050565b600060208201905081810360008301526119c581611804565b9050919050565b60006020820190506119e16000830184611827565b92915050565b600060e0820190506119fc600083018a611827565b8181036020830152611a0e818961166d565b90508181036040830152611a22818861166d565b9050611a316060830187611827565b611a3e6080830186611640565b611a4b60a083018561165e565b611a5860c0830184611827565b98975050505050505050565b600060e082019050611a79600083018a611827565b8181036020830152611a8b818961166d565b90508181036040830152611a9f818861166d565b9050611aae6060830187611827565b611abb608083018661164f565b611ac860a0830185611827565b611ad560c083018461165e565b98975050505050505050565b6000611aeb611afc565b9050611af78282611ca8565b919050565b6000604051905090565b600067ffffffffffffffff821115611b2157611b20611daf565b5b611b2a82611df2565b9050602081019050919050565b600081519050919050565b600082825260208201905092915050565b6000611b5e82611c2a565b9150611b6983611c2a565b9250827fffffffffffffffffffffffffffffffffffffffffffffffffffffffffffffffff03821115611b9e57611b9d611d22565b5b828201905092915050565b6000611bb482611c2a565b9150611bbf83611c2a565b925082611bcf57611bce611d51565b5b828204905092915050565b6000611be582611c0a565b9050919050565b6000611bf782611c0a565b9050919050565b60008115159050919050565b600073ffffffffffffffffffffffffffffffffffffffff82169050919050565b6000819050919050565b82818337600083830152505050565b60005b83811015611c61578082015181840152602081019050611c46565b83811115611c70576000848401525b50505050565b60006002820490506001821680611c8e57607f821691505b60208210811415611ca257611ca1611d80565b5b50919050565b611cb182611df2565b810181811067ffffffffffffffff82111715611cd057611ccf611daf565b5b80604052505050565b6000611ce482611c2a565b91507fffffffffffffffffffffffffffffffffffffffffffffffffffffffffffffffff821415611d1757611d16611d22565b5b600182019050919050565b7f4e487b7100000000000000000000000000000000000000000000000000000000600052601160045260246000fd5b7f4e487b7100000000000000000000000000000000000000000000000000000000600052601260045260246000fd5b7f4e487b7100000000000000000000000000000000000000000000000000000000600052602260045260246000fd5b7f4e487b7100000000000000000000000000000000000000000000000000000000600052604160045260246000fd5b600080fd5b600080fd5b600080fd5b600080fd5b6000601f19601f8301169050919050565b7f596f752068617665206e6f7420636f6e747269627574656420746f207468652060008201527f63616d706169676e2c2063616e6e6f7420726566756e64210000000000000000602082015250565b7f41646d696e2063616e6e6f742063617374206120766f74652120000000000000600082015250565b7f205468652063616d706169676e20636f6e747269627574696f6e20646561646c60008201527f696e6520656e6465642100000000000000000000000000000000000000000000602082015250565b7f4d696e696d756d20636f6e747269627574696f6e206e6f74206d657421000000600082015250565b7f5468652063616d706169676e20646561646c696e6520686173206e6f7420706160008201527f73736564207965742c206f72207468652066756e64696e6720676f616c20686160208201527f73206e6f74206265656e206d6574210000000000000000000000000000000000604082015250565b7f5468652066756e64696e672066756e647320676f616c20686173206e6f74206260008201527f65656e2072656163686564210000000000000000000000000000000000000000602082015250565b7f596f75206861766520616c6c726561647920766f74656420666f72207468697360008201527f207370656e64696e672072657175657374210000000000000000000000000000602082015250565b7f546865207265717565737420686173206e6f74207265636569766564206d6f7260008201527f65207468616e2068616c66206f6620766f746573210000000000000000000000602082015250565b7f4e6f7420656e6f7567682066756e64732072616973656420666f72207468697360008201527f207265717565737465642070726f706f73616c21000000000000000000000000602082015250565b7f4e6f20726967687420746f20766f746521000000000000000000000000000000600082015250565b7f4f6e6c792061646d696e21000000000000000000000000000000000000000000600082015250565b6120ff81611bda565b811461210a57600080fd5b50565b61211681611bec565b811461212157600080fd5b50565b61212d81611c2a565b811461213857600080fd5b5056fea2646970667358221220ae2d7d145a82958484856841b59401b5d6a9861c3acfdfc311b244a4d57e193764736f6c63430008070033",
  "immutableReferences": {},
  "source": "// SPDX-License-Identifier: MIT\r\npragma solidity 0.8.7;\r\npragma experimental ABIEncoderV2;\r\n\r\ncontract CrowdFunding {\r\n    address public admin;\r\n    uint256 public noOfContributors;\r\n    uint256 public goal;\r\n    uint256 public deadline;\r\n    uint256 public minContribution;\r\n    uint256 public raisedAmount;\r\n    uint256 public id;\r\n\r\n    struct Request {\r\n        uint256 id;\r\n        string title;\r\n        string description;\r\n        uint256 value;\r\n        address payable recipient;\r\n        bool completed;\r\n        uint256 noOfVOters;\r\n        mapping(address => bool) voters;\r\n    }\r\n\r\n    mapping(address => uint256) public contributors;\r\n    mapping(uint256 => Request) public spendingRequests;\r\n    mapping(address => bool) public voted;\r\n\r\n    constructor(\r\n        uint256 _deadline,\r\n        uint256 _goal,\r\n        uint256 _minContribution\r\n    ) {\r\n        minContribution = _minContribution;\r\n        deadline = block.timestamp + _deadline;\r\n        goal = _goal;\r\n        admin = msg.sender;\r\n    }\r\n\r\n    receive() external payable {}\r\n\r\n    function contribute() external payable {\r\n        require(\r\n            deadline > block.timestamp,\r\n            \" The campaign contribution deadline ended!\"\r\n        );\r\n        require(msg.value >= minContribution, \"Minimum contribution not met!\");\r\n        if (contributors[msg.sender] == 0) {\r\n            noOfContributors++;\r\n        }\r\n        contributors[msg.sender] += msg.value;\r\n        raisedAmount += msg.value;\r\n    }\r\n\r\n    function getRefund() external payable {\r\n        require(\r\n            deadline < block.timestamp && raisedAmount < goal,\r\n            \"The campaign deadline has not passed yet, or the funding goal has not been met!\"\r\n        );\r\n        require(\r\n            contributors[msg.sender] > 0,\r\n            \"You have not contributed to the campaign, cannot refund!\"\r\n        );\r\n        address payable recipient = payable(msg.sender);\r\n        uint256 value = contributors[msg.sender];\r\n        contributors[msg.sender] = 0;\r\n        recipient.transfer(value);\r\n    }\r\n\r\n    function spendingRequest(\r\n        string memory _title,\r\n        string memory _description,\r\n        address payable _recipient,\r\n        uint256 _value\r\n    ) external onlyOwner {\r\n        require(\r\n            raisedAmount > _value,\r\n            \"Not enough funds raised for this requested proposal!\"\r\n        );\r\n\r\n        Request storage newRequest = spendingRequests[id];\r\n        newRequest.id = id;\r\n        newRequest.description = _description;\r\n        newRequest.title = _title;\r\n        newRequest.recipient = _recipient;\r\n        newRequest.value = _value;\r\n        newRequest.noOfVOters = 0;\r\n\r\n        id++;\r\n    }\r\n\r\n    function vote(uint256 _id) external contributorRights {\r\n        Request storage request = spendingRequests[_id];\r\n        require(msg.sender != admin, \"Admin cannot cast a vote! \");\r\n        require(\r\n            request.voters[msg.sender] == false,\r\n            \"You have allready voted for this spending request!\"\r\n        );\r\n        request.voters[msg.sender] = true;\r\n        request.noOfVOters += 1;\r\n        voted[msg.sender] = true;\r\n    }\r\n\r\n    function hasVoted(address _voter) external view returns (bool) {\r\n        return voted[_voter];\r\n    }\r\n\r\n    function votedForSpendingRequest(uint _id)external view returns (bool){\r\n        Request storage r = spendingRequests[_id];\r\n\r\n        return r.voters[msg.sender];\r\n\r\n    }\r\n\r\n    function deadline_() external view returns (bool) {\r\n        bool isDeadline = false;\r\n\r\n        if (deadline < block.timestamp) {\r\n            isDeadline = true;\r\n        }\r\n\r\n        return isDeadline;\r\n    }\r\n\r\n    function getContractBalance() external view returns (uint256) {\r\n        return address(this).balance;\r\n    }\r\n\r\n      function getSpendingRequest(uint _id) public view returns(uint, string memory, string memory, uint, address, uint, bool){\r\n        \r\n        Request storage r = spendingRequests[_id];\r\n        \r\n        return(r.id, r.title, r.description, r.value, r.recipient, r.noOfVOters, r.completed);\r\n\r\n\r\n    }\r\n\r\n    function raisedAmount_() external view returns (bool) {\r\n        bool isRaised = false;\r\n\r\n        if (raisedAmount >= goal) {\r\n            isRaised = true;\r\n        }\r\n\r\n        return isRaised;\r\n    }\r\n\r\n    function noOfVoters_(uint256 _id) external view returns (bool) {\r\n        bool enoughVoters = false;\r\n        Request storage request = spendingRequests[_id];\r\n        if (request.noOfVOters > noOfContributors / 2) {\r\n            enoughVoters = true;\r\n        }\r\n\r\n        return enoughVoters;\r\n    }\r\n\r\n    function goal_() external view returns (uint256) {\r\n        return goal;\r\n    }\r\n\r\n    function transferRequestFunds(uint256 _id)\r\n        external\r\n        payable\r\n        onlyOwner\r\n        requestApproved(_id)\r\n    {\r\n        require(\r\n            raisedAmount >= goal,\r\n            \"The funding funds goal has not been reached!\"\r\n        );\r\n        Request storage request = spendingRequests[_id];\r\n        request.completed = true;\r\n        request.recipient.transfer(request.value);\r\n    }\r\n\r\n    function completedRequests(uint256 _id) external returns (bool) {\r\n        Request storage request = spendingRequests[_id];\r\n\r\n        return (request.completed);\r\n    }\r\n\r\n    modifier requestApproved(uint256 _id) {\r\n        Request storage request = spendingRequests[_id];\r\n        require(\r\n            request.noOfVOters > noOfContributors / 2,\r\n            \"The request has not received more than half of votes!\"\r\n        );\r\n        _;\r\n    }\r\n\r\n    modifier contributorRights() {\r\n        require(contributors[msg.sender] > 0, \"No right to vote!\");\r\n        _;\r\n    }\r\n\r\n    modifier onlyOwner() {\r\n        require(msg.sender == admin, \"Only admin!\");\r\n        _;\r\n    }\r\n}\r\n",
  "sourcePath": "C:\\Udemy -Complete DApp blockchain development\\daodapp_nextjs\\contracts\\Crowdfunding.sol",
  "compiler": {
    "name": "solc",
    "version": "0.8.7+commit.e28d00a7.Emscripten.clang"
  },
  "schemaVersion": "3.4.4",
  "updatedAt": "2022-02-09T14:17:01.992Z",
  "networkType": "ethereum",
  "devdoc": {
    "kind": "dev",
    "methods": {},
    "version": 1
  },
  "userdoc": {
    "kind": "user",
    "methods": {},
    "version": 1
  }
}