{
  "contractName": "CrowdFunding",
  "abi": [
    {
      "inputs": [
        {
          "internalType": "uint256",
          "name": "_deadline",
          "type": "uint256"
        },
        {
          "internalType": "uint256",
          "name": "_goal",
          "type": "uint256"
        },
        {
          "internalType": "uint256",
          "name": "_minContribution",
          "type": "uint256"
        }
      ],
      "stateMutability": "nonpayable",
      "type": "constructor"
    },
    {
      "inputs": [],
      "name": "admin",
      "outputs": [
        {
          "internalType": "address",
          "name": "",
          "type": "address"
        }
      ],
      "stateMutability": "view",
      "type": "function",
      "constant": true
    },
    {
      "inputs": [
        {
          "internalType": "address",
          "name": "",
          "type": "address"
        }
      ],
      "name": "contributors",
      "outputs": [
        {
          "internalType": "uint256",
          "name": "",
          "type": "uint256"
        }
      ],
      "stateMutability": "view",
      "type": "function",
      "constant": true
    },
    {
      "inputs": [],
      "name": "deadline",
      "outputs": [
        {
          "internalType": "uint256",
          "name": "",
          "type": "uint256"
        }
      ],
      "stateMutability": "view",
      "type": "function",
      "constant": true
    },
    {
      "inputs": [],
      "name": "goal",
      "outputs": [
        {
          "internalType": "uint256",
          "name": "",
          "type": "uint256"
        }
      ],
      "stateMutability": "view",
      "type": "function",
      "constant": true
    },
    {
      "inputs": [],
      "name": "id",
      "outputs": [
        {
          "internalType": "uint256",
          "name": "",
          "type": "uint256"
        }
      ],
      "stateMutability": "view",
      "type": "function",
      "constant": true
    },
    {
      "inputs": [],
      "name": "minContribution",
      "outputs": [
        {
          "internalType": "uint256",
          "name": "",
          "type": "uint256"
        }
      ],
      "stateMutability": "view",
      "type": "function",
      "constant": true
    },
    {
      "inputs": [],
      "name": "noOfContributors",
      "outputs": [
        {
          "internalType": "uint256",
          "name": "",
          "type": "uint256"
        }
      ],
      "stateMutability": "view",
      "type": "function",
      "constant": true
    },
    {
      "inputs": [],
      "name": "raisedAmount",
      "outputs": [
        {
          "internalType": "uint256",
          "name": "",
          "type": "uint256"
        }
      ],
      "stateMutability": "view",
      "type": "function",
      "constant": true
    },
    {
      "inputs": [
        {
          "internalType": "uint256",
          "name": "",
          "type": "uint256"
        }
      ],
      "name": "spendingRequests",
      "outputs": [
        {
          "internalType": "uint256",
          "name": "id",
          "type": "uint256"
        },
        {
          "internalType": "string",
          "name": "title",
          "type": "string"
        },
        {
          "internalType": "string",
          "name": "description",
          "type": "string"
        },
        {
          "internalType": "uint256",
          "name": "value",
          "type": "uint256"
        },
        {
          "internalType": "address payable",
          "name": "recepient",
          "type": "address"
        },
        {
          "internalType": "bool",
          "name": "completed",
          "type": "bool"
        },
        {
          "internalType": "uint256",
          "name": "noOfVOters",
          "type": "uint256"
        }
      ],
      "stateMutability": "view",
      "type": "function",
      "constant": true
    },
    {
      "inputs": [
        {
          "internalType": "address",
          "name": "",
          "type": "address"
        }
      ],
      "name": "voted",
      "outputs": [
        {
          "internalType": "bool",
          "name": "",
          "type": "bool"
        }
      ],
      "stateMutability": "view",
      "type": "function",
      "constant": true
    },
    {
      "stateMutability": "payable",
      "type": "receive",
      "payable": true
    },
    {
      "inputs": [],
      "name": "contribute",
      "outputs": [],
      "stateMutability": "payable",
      "type": "function",
      "payable": true
    },
    {
      "inputs": [],
      "name": "getContractBalance",
      "outputs": [
        {
          "internalType": "uint256",
          "name": "",
          "type": "uint256"
        }
      ],
      "stateMutability": "nonpayable",
      "type": "function"
    },
    {
      "inputs": [],
      "name": "getRefund",
      "outputs": [],
      "stateMutability": "payable",
      "type": "function",
      "payable": true
    },
    {
      "inputs": [
        {
          "internalType": "string",
          "name": "_title",
          "type": "string"
        },
        {
          "internalType": "string",
          "name": "_description",
          "type": "string"
        },
        {
          "internalType": "address payable",
          "name": "_recepient",
          "type": "address"
        },
        {
          "internalType": "uint256",
          "name": "_value",
          "type": "uint256"
        }
      ],
      "name": "spendingRequest",
      "outputs": [],
      "stateMutability": "nonpayable",
      "type": "function"
    },
    {
      "inputs": [
        {
          "internalType": "uint256",
          "name": "_id",
          "type": "uint256"
        }
      ],
      "name": "getSpendingRequest",
      "outputs": [
        {
          "internalType": "uint256",
          "name": "",
          "type": "uint256"
        },
        {
          "internalType": "string",
          "name": "",
          "type": "string"
        },
        {
          "internalType": "string",
          "name": "",
          "type": "string"
        },
        {
          "internalType": "uint256",
          "name": "",
          "type": "uint256"
        },
        {
          "internalType": "address",
          "name": "",
          "type": "address"
        },
        {
          "internalType": "uint256",
          "name": "",
          "type": "uint256"
        },
        {
          "internalType": "bool",
          "name": "",
          "type": "bool"
        }
      ],
      "stateMutability": "view",
      "type": "function",
      "constant": true
    },
    {
      "inputs": [
        {
          "internalType": "uint256",
          "name": "_id",
          "type": "uint256"
        }
      ],
      "name": "vote",
      "outputs": [],
      "stateMutability": "nonpayable",
      "type": "function"
    },
    {
      "inputs": [
        {
          "internalType": "address",
          "name": "_voter",
          "type": "address"
        }
      ],
      "name": "hasVoted",
      "outputs": [
        {
          "internalType": "bool",
          "name": "",
          "type": "bool"
        }
      ],
      "stateMutability": "view",
      "type": "function",
      "constant": true
    },
    {
      "inputs": [],
      "name": "deadline_",
      "outputs": [
        {
          "internalType": "bool",
          "name": "",
          "type": "bool"
        }
      ],
      "stateMutability": "view",
      "type": "function",
      "constant": true
    },
    {
      "inputs": [],
      "name": "raisedAmount_",
      "outputs": [
        {
          "internalType": "bool",
          "name": "",
          "type": "bool"
        }
      ],
      "stateMutability": "view",
      "type": "function",
      "constant": true
    },
    {
      "inputs": [
        {
          "internalType": "uint256",
          "name": "_id",
          "type": "uint256"
        }
      ],
      "name": "noOfVoters_",
      "outputs": [
        {
          "internalType": "bool",
          "name": "",
          "type": "bool"
        }
      ],
      "stateMutability": "view",
      "type": "function",
      "constant": true
    },
    {
      "inputs": [],
      "name": "goal_",
      "outputs": [
        {
          "internalType": "uint256",
          "name": "",
          "type": "uint256"
        }
      ],
      "stateMutability": "view",
      "type": "function",
      "constant": true
    },
    {
      "inputs": [
        {
          "internalType": "uint256",
          "name": "_id",
          "type": "uint256"
        }
      ],
      "name": "transferRequestFunds",
      "outputs": [],
      "stateMutability": "payable",
      "type": "function",
      "payable": true
    },
    {
      "inputs": [
        {
          "internalType": "uint256",
          "name": "_id",
          "type": "uint256"
        }
      ],
      "name": "completedRequests",
      "outputs": [
        {
          "internalType": "bool",
          "name": "",
          "type": "bool"
        }
      ],
      "stateMutability": "nonpayable",
      "type": "function"
    }
  ],
  "bytecode": "0x60806040523480156200001157600080fd5b50604051620021c6380380620021c68339818101604052810190620000379190620000b9565b8060048190555082426200004c919062000115565b60038190555081600281905550336000806101000a81548173ffffffffffffffffffffffffffffffffffffffff021916908373ffffffffffffffffffffffffffffffffffffffff160217905550505050620001ca565b600081519050620000b381620001b0565b92915050565b600080600060608486031215620000d557620000d4620001ab565b5b6000620000e586828701620000a2565b9350506020620000f886828701620000a2565b92505060406200010b86828701620000a2565b9150509250925092565b6000620001228262000172565b91506200012f8362000172565b9250827fffffffffffffffffffffffffffffffffffffffffffffffffffffffffffffffff038211156200016757620001666200017c565b5b828201905092915050565b6000819050919050565b7f4e487b7100000000000000000000000000000000000000000000000000000000600052601160045260246000fd5b600080fd5b620001bb8162000172565b8114620001c757600080fd5b50565b611fec80620001da6000396000f3fe6080604052600436106101445760003560e01c806390aadd60116100b6578063c59ee1dc1161006f578063c59ee1dc14610447578063d7bb99ba14610472578063e77e0f8e1461047c578063f0fbfbf3146104bf578063f851a440146104fc578063fdba0ed91461052757610153565b806390aadd6014610363578063aaffadf31461038e578063aec2ccae146103b9578063af640d0f146103f6578063af87b5b614610421578063b2d5ae441461043d57610153565b8063401938831161010857806340193883146102515780634159f3971461027c5780634c69b583146102a75780634e260f6f146102e45780636bbe36721461030f5780636f9fb98a1461033857610153565b80630121b93f1461015857806302d802d01461018157806309eef43e146101ac5780631f6d4942146101e957806329dcb0cf1461022657610153565b366101535761015161056a565b005b600080fd5b34801561016457600080fd5b5061017f600480360381019061017a9190611520565b6106c5565b005b34801561018d57600080fd5b50610196610954565b6040516101a3919061173b565b60405180910390f35b3480156101b857600080fd5b506101d360048036038101906101ce9190611454565b610971565b6040516101e0919061173b565b60405180910390f35b3480156101f557600080fd5b50610210600480360381019061020b9190611454565b6109c7565b60405161021d9190611896565b60405180910390f35b34801561023257600080fd5b5061023b6109df565b6040516102489190611896565b60405180910390f35b34801561025d57600080fd5b506102666109e5565b6040516102739190611896565b60405180910390f35b34801561028857600080fd5b506102916109eb565b60405161029e9190611896565b60405180910390f35b3480156102b357600080fd5b506102ce60048036038101906102c99190611520565b6109f5565b6040516102db919061173b565b60405180910390f35b3480156102f057600080fd5b506102f9610a3c565b6040516103069190611896565b60405180910390f35b34801561031b57600080fd5b5061033660048036038101906103319190611481565b610a42565b005b34801561034457600080fd5b5061034d610b9b565b60405161035a9190611896565b60405180910390f35b34801561036f57600080fd5b50610378610ba3565b604051610385919061173b565b60405180910390f35b34801561039a57600080fd5b506103a3610bc1565b6040516103b09190611896565b60405180910390f35b3480156103c557600080fd5b506103e060048036038101906103db9190611454565b610bc7565b6040516103ed919061173b565b60405180910390f35b34801561040257600080fd5b5061040b610be7565b6040516104189190611896565b60405180910390f35b61043b60048036038101906104369190611520565b610bed565b005b610445610dd7565b005b34801561045357600080fd5b5061045c610f85565b6040516104699190611896565b60405180910390f35b61047a61056a565b005b34801561048857600080fd5b506104a3600480360381019061049e9190611520565b610f8b565b6040516104b697969594939291906118b1565b60405180910390f35b3480156104cb57600080fd5b506104e660048036038101906104e19190611520565b61110a565b6040516104f3919061173b565b60405180910390f35b34801561050857600080fd5b5061051161113c565b60405161051e9190611720565b60405180910390f35b34801561053357600080fd5b5061054e60048036038101906105499190611520565b611160565b604051610561979695949392919061192e565b60405180910390f35b42600354116105ae576040517f08c379a00000000000000000000000000000000000000000000000000000000081526004016105a590611796565b60405180910390fd5b6004543410156105f3576040517f08c379a00000000000000000000000000000000000000000000000000000000081526004016105ea906117b6565b60405180910390fd5b6000600760003373ffffffffffffffffffffffffffffffffffffffff1673ffffffffffffffffffffffffffffffffffffffff168152602001908152602001600020541415610654576001600081548092919061064e90611ba3565b91905055505b34600760003373ffffffffffffffffffffffffffffffffffffffff1673ffffffffffffffffffffffffffffffffffffffff16815260200190815260200160002060008282546106a39190611a1d565b9250508190555034600560008282546106bc9190611a1d565b92505081905550565b6000600760003373ffffffffffffffffffffffffffffffffffffffff1673ffffffffffffffffffffffffffffffffffffffff1681526020019081526020016000205411610747576040517f08c379a000000000000000000000000000000000000000000000000000000000815260040161073e90611856565b60405180910390fd5b600060086000838152602001908152602001600020905060008054906101000a900473ffffffffffffffffffffffffffffffffffffffff1673ffffffffffffffffffffffffffffffffffffffff163373ffffffffffffffffffffffffffffffffffffffff1614156107ed576040517f08c379a00000000000000000000000000000000000000000000000000000000081526004016107e490611776565b60405180910390fd5b600015158160060160003373ffffffffffffffffffffffffffffffffffffffff1673ffffffffffffffffffffffffffffffffffffffff16815260200190815260200160002060009054906101000a900460ff16151514610882576040517f08c379a000000000000000000000000000000000000000000000000000000000815260040161087990611816565b60405180910390fd5b60018160060160003373ffffffffffffffffffffffffffffffffffffffff1673ffffffffffffffffffffffffffffffffffffffff16815260200190815260200160002060006101000a81548160ff02191690831515021790555060018160050160008282546108f19190611a1d565b925050819055506001600960003373ffffffffffffffffffffffffffffffffffffffff1673ffffffffffffffffffffffffffffffffffffffff16815260200190815260200160002060006101000a81548160ff0219169083151502179055505050565b6000806000905042600354101561096a57600190505b8091505090565b6000600960008373ffffffffffffffffffffffffffffffffffffffff1673ffffffffffffffffffffffffffffffffffffffff16815260200190815260200160002060009054906101000a900460ff169050919050565b60076020528060005260406000206000915090505481565b60035481565b60025481565b6000600254905090565b6000806000905060006008600085815260200190815260200160002090506002600154610a229190611a73565b81600501541115610a3257600191505b8192505050919050565b60015481565b60008054906101000a900473ffffffffffffffffffffffffffffffffffffffff1673ffffffffffffffffffffffffffffffffffffffff163373ffffffffffffffffffffffffffffffffffffffff1614610ad0576040517f08c379a0000000000000000000000000000000000000000000000000000000008152600401610ac790611876565b60405180910390fd5b60006008600060065481526020019081526020016000209050600654816000018190555083816002019080519060200190610b0c929190611302565b5084816001019080519060200190610b25929190611302565b50828160040160006101000a81548173ffffffffffffffffffffffffffffffffffffffff021916908373ffffffffffffffffffffffffffffffffffffffff1602179055508181600301819055506000816005018190555060066000815480929190610b8f90611ba3565b91905055505050505050565b600047905090565b6000806000905060025460055410610bba57600190505b8091505090565b60045481565b60096020528060005260406000206000915054906101000a900460ff1681565b60065481565b60008054906101000a900473ffffffffffffffffffffffffffffffffffffffff1673ffffffffffffffffffffffffffffffffffffffff163373ffffffffffffffffffffffffffffffffffffffff1614610c7b576040517f08c379a0000000000000000000000000000000000000000000000000000000008152600401610c7290611876565b60405180910390fd5b8060006008600083815260200190815260200160002090506002600154610ca29190611a73565b816005015411610ce7576040517f08c379a0000000000000000000000000000000000000000000000000000000008152600401610cde90611836565b60405180910390fd5b6002546005541015610d2e576040517f08c379a0000000000000000000000000000000000000000000000000000000008152600401610d25906117f6565b60405180910390fd5b600060086000858152602001908152602001600020905060018160040160146101000a81548160ff0219169083151502179055508060040160009054906101000a900473ffffffffffffffffffffffffffffffffffffffff1673ffffffffffffffffffffffffffffffffffffffff166108fc82600301549081150290604051600060405180830381858888f19350505050158015610dd0573d6000803e3d6000fd5b5050505050565b42600354108015610deb5750600254600554105b610e2a576040517f08c379a0000000000000000000000000000000000000000000000000000000008152600401610e21906117d6565b60405180910390fd5b6000600760003373ffffffffffffffffffffffffffffffffffffffff1673ffffffffffffffffffffffffffffffffffffffff1681526020019081526020016000205411610eac576040517f08c379a0000000000000000000000000000000000000000000000000000000008152600401610ea390611756565b60405180910390fd5b60003390506000600760003373ffffffffffffffffffffffffffffffffffffffff1673ffffffffffffffffffffffffffffffffffffffff1681526020019081526020016000205490506000600760003373ffffffffffffffffffffffffffffffffffffffff1673ffffffffffffffffffffffffffffffffffffffff168152602001908152602001600020819055508173ffffffffffffffffffffffffffffffffffffffff166108fc829081150290604051600060405180830381858888f19350505050158015610f80573d6000803e3d6000fd5b505050565b60055481565b6008602052806000526040600020600091509050806000015490806001018054610fb490611b40565b80601f0160208091040260200160405190810160405280929190818152602001828054610fe090611b40565b801561102d5780601f106110025761010080835404028352916020019161102d565b820191906000526020600020905b81548152906001019060200180831161101057829003601f168201915b50505050509080600201805461104290611b40565b80601f016020809104026020016040519081016040528092919081815260200182805461106e90611b40565b80156110bb5780601f10611090576101008083540402835291602001916110bb565b820191906000526020600020905b81548152906001019060200180831161109e57829003601f168201915b5050505050908060030154908060040160009054906101000a900473ffffffffffffffffffffffffffffffffffffffff16908060040160149054906101000a900460ff16908060050154905087565b6000806008600084815260200190815260200160002090508060040160149054906101000a900460ff16915050919050565b60008054906101000a900473ffffffffffffffffffffffffffffffffffffffff1681565b60006060806000806000806000600860008a815260200190815260200160002090508060000154816001018260020183600301548460040160009054906101000a900473ffffffffffffffffffffffffffffffffffffffff1685600501548660040160149054906101000a900460ff168580546111dc90611b40565b80601f016020809104026020016040519081016040528092919081815260200182805461120890611b40565b80156112555780601f1061122a57610100808354040283529160200191611255565b820191906000526020600020905b81548152906001019060200180831161123857829003601f168201915b5050505050955084805461126890611b40565b80601f016020809104026020016040519081016040528092919081815260200182805461129490611b40565b80156112e15780601f106112b6576101008083540402835291602001916112e1565b820191906000526020600020905b8154815290600101906020018083116112c457829003601f168201915b50505050509450975097509750975097509750975050919395979092949650565b82805461130e90611b40565b90600052602060002090601f0160209004810192826113305760008555611377565b82601f1061134957805160ff1916838001178555611377565b82800160010185558215611377579182015b8281111561137657825182559160200191906001019061135b565b5b5090506113849190611388565b5090565b5b808211156113a1576000816000905550600101611389565b5090565b60006113b86113b3846119d0565b6119ab565b9050828152602081018484840111156113d4576113d3611cad565b5b6113df848285611afe565b509392505050565b6000813590506113f681611f71565b92915050565b60008135905061140b81611f88565b92915050565b600082601f83011261142657611425611ca8565b5b81356114368482602086016113a5565b91505092915050565b60008135905061144e81611f9f565b92915050565b60006020828403121561146a57611469611cb7565b5b6000611478848285016113e7565b91505092915050565b6000806000806080858703121561149b5761149a611cb7565b5b600085013567ffffffffffffffff8111156114b9576114b8611cb2565b5b6114c587828801611411565b945050602085013567ffffffffffffffff8111156114e6576114e5611cb2565b5b6114f287828801611411565b9350506040611503878288016113fc565b92505060606115148782880161143f565b91505092959194509250565b60006020828403121561153657611535611cb7565b5b60006115448482850161143f565b91505092915050565b61155681611ab6565b82525050565b61156581611aa4565b82525050565b61157481611ac8565b82525050565b600061158582611a01565b61158f8185611a0c565b935061159f818560208601611b0d565b6115a881611cbc565b840191505092915050565b60006115c0603883611a0c565b91506115cb82611ccd565b604082019050919050565b60006115e3601a83611a0c565b91506115ee82611d1c565b602082019050919050565b6000611606602a83611a0c565b915061161182611d45565b604082019050919050565b6000611629601d83611a0c565b915061163482611d94565b602082019050919050565b600061164c604f83611a0c565b915061165782611dbd565b606082019050919050565b600061166f602c83611a0c565b915061167a82611e32565b604082019050919050565b6000611692603283611a0c565b915061169d82611e81565b604082019050919050565b60006116b5603583611a0c565b91506116c082611ed0565b604082019050919050565b60006116d8601183611a0c565b91506116e382611f1f565b602082019050919050565b60006116fb600b83611a0c565b915061170682611f48565b602082019050919050565b61171a81611af4565b82525050565b6000602082019050611735600083018461155c565b92915050565b6000602082019050611750600083018461156b565b92915050565b6000602082019050818103600083015261176f816115b3565b9050919050565b6000602082019050818103600083015261178f816115d6565b9050919050565b600060208201905081810360008301526117af816115f9565b9050919050565b600060208201905081810360008301526117cf8161161c565b9050919050565b600060208201905081810360008301526117ef8161163f565b9050919050565b6000602082019050818103600083015261180f81611662565b9050919050565b6000602082019050818103600083015261182f81611685565b9050919050565b6000602082019050818103600083015261184f816116a8565b9050919050565b6000602082019050818103600083015261186f816116cb565b9050919050565b6000602082019050818103600083015261188f816116ee565b9050919050565b60006020820190506118ab6000830184611711565b92915050565b600060e0820190506118c6600083018a611711565b81810360208301526118d8818961157a565b905081810360408301526118ec818861157a565b90506118fb6060830187611711565b611908608083018661154d565b61191560a083018561156b565b61192260c0830184611711565b98975050505050505050565b600060e082019050611943600083018a611711565b8181036020830152611955818961157a565b90508181036040830152611969818861157a565b90506119786060830187611711565b611985608083018661155c565b61199260a0830185611711565b61199f60c083018461156b565b98975050505050505050565b60006119b56119c6565b90506119c18282611b72565b919050565b6000604051905090565b600067ffffffffffffffff8211156119eb576119ea611c79565b5b6119f482611cbc565b9050602081019050919050565b600081519050919050565b600082825260208201905092915050565b6000611a2882611af4565b9150611a3383611af4565b9250827fffffffffffffffffffffffffffffffffffffffffffffffffffffffffffffffff03821115611a6857611a67611bec565b5b828201905092915050565b6000611a7e82611af4565b9150611a8983611af4565b925082611a9957611a98611c1b565b5b828204905092915050565b6000611aaf82611ad4565b9050919050565b6000611ac182611ad4565b9050919050565b60008115159050919050565b600073ffffffffffffffffffffffffffffffffffffffff82169050919050565b6000819050919050565b82818337600083830152505050565b60005b83811015611b2b578082015181840152602081019050611b10565b83811115611b3a576000848401525b50505050565b60006002820490506001821680611b5857607f821691505b60208210811415611b6c57611b6b611c4a565b5b50919050565b611b7b82611cbc565b810181811067ffffffffffffffff82111715611b9a57611b99611c79565b5b80604052505050565b6000611bae82611af4565b91507fffffffffffffffffffffffffffffffffffffffffffffffffffffffffffffffff821415611be157611be0611bec565b5b600182019050919050565b7f4e487b7100000000000000000000000000000000000000000000000000000000600052601160045260246000fd5b7f4e487b7100000000000000000000000000000000000000000000000000000000600052601260045260246000fd5b7f4e487b7100000000000000000000000000000000000000000000000000000000600052602260045260246000fd5b7f4e487b7100000000000000000000000000000000000000000000000000000000600052604160045260246000fd5b600080fd5b600080fd5b600080fd5b600080fd5b6000601f19601f8301169050919050565b7f596f752068617665206e6f7420636f6e747269627574656420746f207468652060008201527f63616d706169676e2c2063616e6e6f7420726566756e64210000000000000000602082015250565b7f41646d696e2063616e6e6f742063617374206120766f74652120000000000000600082015250565b7f205468652063616d706169676e20636f6e747269627574696f6e20646561646c60008201527f696e6520656e6465642100000000000000000000000000000000000000000000602082015250565b7f4d696e696d756d20636f6e747269627574696f6e206e6f74206d657421000000600082015250565b7f5468652063616d706169676e20646561646c696e6520686173206e6f7420706160008201527f73736564207965742c206f72207468652066756e64696e6720676f616c20686160208201527f73206e6f74206265656e206d6574210000000000000000000000000000000000604082015250565b7f5468652066756e64696e672066756e647320676f616c20686173206e6f74206260008201527f65656e2072656163686564210000000000000000000000000000000000000000602082015250565b7f596f75206861766520616c6c726561647920766f74656420666f72207468697360008201527f207370656e64696e672072657175657374210000000000000000000000000000602082015250565b7f546865207265717565737420686173206e6f74207265636569766564206d6f7260008201527f65207468616e2068616c66206f6620766f746573210000000000000000000000602082015250565b7f4e6f20726967687420746f20766f746521000000000000000000000000000000600082015250565b7f4f6e6c792061646d696e21000000000000000000000000000000000000000000600082015250565b611f7a81611aa4565b8114611f8557600080fd5b50565b611f9181611ab6565b8114611f9c57600080fd5b50565b611fa881611af4565b8114611fb357600080fd5b5056fea264697066735822122098838936376b5dc9a59c786d45b4d724dffe57b2af993daef43d91edd2b9426564736f6c63430008070033",
  "immutableReferences": {},
  "source": "// SPDX-License-Identifier: MIT\r\npragma solidity 0.8.7;\r\npragma experimental ABIEncoderV2;\r\n\r\ncontract CrowdFunding{\r\n    \r\n    address public admin;\r\n    uint public noOfContributors;\r\n    uint public goal;\r\n    uint public deadline;\r\n    uint public minContribution;\r\n    uint public raisedAmount;\r\n    uint public id;\r\n    \r\n    \r\n    struct Request {\r\n        uint id;\r\n        string title;\r\n        string description;\r\n        uint value;\r\n        address payable recepient;\r\n        bool completed;\r\n        uint noOfVOters;      \r\n        mapping (address => bool) voters;\r\n  \r\n    }\r\n    \r\n   \r\n    mapping(address => uint) public contributors;\r\n    mapping(uint => Request) public spendingRequests;\r\n    mapping(address => bool) public voted;\r\n    \r\n    \r\n    \r\n    constructor (uint _deadline, uint _goal, uint _minContribution) {\r\n        minContribution = _minContribution;\r\n        deadline = block.timestamp + _deadline;\r\n        goal = _goal;\r\n        admin = msg.sender;\r\n        \r\n    }\r\n    \r\n    \r\n    function contribute () public payable {\r\n        require(deadline > block.timestamp, \" The campaign contribution deadline ended!\");\r\n        require(msg.value >= minContribution, \"Minimum contribution not met!\");\r\n        if(contributors[msg.sender] == 0){\r\n            \r\n            noOfContributors ++;\r\n            \r\n        }\r\n        contributors[msg.sender] += msg.value;\r\n        raisedAmount += msg.value;\r\n  \r\n    }\r\n    \r\n    \r\n    receive ()payable external {\r\n        contribute();\r\n        \r\n    }\r\n    \r\n    \r\n    \r\n    function getContractBalance () public returns (uint){\r\n        \r\n        \r\n        return address(this).balance;\r\n    }\r\n    \r\n    \r\n    function getRefund () public payable {\r\n        \r\n        require(deadline < block.timestamp && raisedAmount < goal, \"The campaign deadline has not passed yet, or the funding goal has not been met!\");\r\n        require(contributors[msg.sender] > 0, \"You have not contributed to the campaign, cannot refund!\");\r\n        address payable recepient = payable(msg.sender);\r\n        uint value = contributors[msg.sender];\r\n        contributors[msg.sender] = 0;\r\n        recepient.transfer(value);\r\n\r\n    }\r\n\r\n    \r\n    \r\n    function spendingRequest(string memory _title, string memory _description, address payable _recepient, uint _value) public onlyOwner {\r\n        \r\n      \r\n      Request storage newRequest = spendingRequests[id];\r\n      newRequest.id = id;\r\n      newRequest.description = _description;\r\n      newRequest.title = _title;\r\n      newRequest.recepient = _recepient;\r\n      newRequest.value = _value;\r\n      newRequest.noOfVOters = 0;\r\n\r\n      id++;\r\n      \r\n \r\n    }\r\n\r\n    function getSpendingRequest(uint _id) public view returns(uint, string memory, string memory, uint, address, uint, bool){\r\n        \r\n        Request storage r = spendingRequests[_id];\r\n        \r\n        \r\n        return(r.id, r.title, r.description, r.value, r.recepient, r.noOfVOters, r.completed);\r\n\r\n\r\n    }\r\n\r\n    \r\n    \r\n    function vote(uint _id) public contributorRights {\r\n        \r\n        Request storage request = spendingRequests[_id];\r\n        require(msg.sender != admin,\"Admin cannot cast a vote! \");\r\n        require(request.voters[msg.sender] == false, \"You have allready voted for this spending request!\");\r\n        request.voters[msg.sender] = true;\r\n        request.noOfVOters += 1;\r\n        voted[msg.sender] = true;\r\n \r\n    }\r\n  \r\n\r\n    function hasVoted(address _voter) public view returns (bool){\r\n\r\n        return voted[_voter];\r\n    }\r\n\r\n   \r\n\r\n    function deadline_ () public view returns(bool){\r\n\r\n        bool isDeadline = false;\r\n\r\n        if(deadline < block.timestamp){\r\n\r\n            isDeadline = true;\r\n        }\r\n\r\n        return isDeadline;\r\n\r\n    }\r\n\r\n    function raisedAmount_ () public view returns(bool){\r\n        bool isRaised = false;\r\n\r\n        if(raisedAmount >= goal ){\r\n\r\n            isRaised = true;\r\n        }\r\n\r\n        return isRaised;\r\n\r\n    }\r\n\r\n    function noOfVoters_ (uint _id) public view returns(bool){\r\n        bool enoughVoters = false;\r\n        Request storage request = spendingRequests[_id];\r\n        if(request.noOfVOters > noOfContributors / 2){\r\n\r\n             enoughVoters = true;\r\n        }\r\n\r\n        return  enoughVoters;\r\n\r\n        \r\n    }\r\n\r\n    function goal_ () public view returns(uint){\r\n\r\n\r\n        return goal;\r\n    }\r\n\r\n\r\n    function transferRequestFunds(uint  _id)  public payable onlyOwner requestApproved(_id){\r\n        require(raisedAmount >= goal, \"The funding funds goal has not been reached!\");\r\n        Request storage request = spendingRequests[_id];\r\n        request.completed = true;\r\n        request.recepient.transfer(request.value);\r\n        \r\n        \r\n    }\r\n\r\n    function completedRequests(uint _id) public returns(bool){\r\n\r\n        Request storage request = spendingRequests[_id];\r\n            \r\n   \r\n            return(request.completed);\r\n        }\r\n        \r\n    \r\n    modifier requestApproved (uint  _id) {\r\n        Request storage request = spendingRequests[_id];\r\n        require(request.noOfVOters > noOfContributors / 2, \"The request has not received more than half of votes!\" );\r\n        _;\r\n        \r\n    }\r\n    \r\n    \r\n    modifier contributorRights() {\r\n        require(contributors[msg.sender] > 0,\"No right to vote!\");\r\n        _;\r\n        \r\n    }\r\n    \r\n    modifier onlyOwner() {\r\n        \r\n        require (msg.sender == admin,\"Only admin!\");\r\n        _;\r\n        \r\n    }\r\n}",
  "sourcePath": "C:\\Udemy -Complete DApp blockchain development\\daodapp_nextjs\\contracts\\Crowdfunding.sol",
  "compiler": {
    "name": "solc",
    "version": "0.8.7+commit.e28d00a7.Emscripten.clang"
  },
  "schemaVersion": "3.4.4",
  "updatedAt": "2022-02-06T17:12:29.557Z",
  "networkType": "ethereum",
  "devdoc": {
    "kind": "dev",
    "methods": {},
    "version": 1
  },
  "userdoc": {
    "kind": "user",
    "methods": {},
    "version": 1
  }
}