{
  "contractName": "CrowdFunding",
  "abi": [
    {
      "inputs": [
        {
          "internalType": "uint256",
          "name": "_deadline",
          "type": "uint256"
        },
        {
          "internalType": "uint256",
          "name": "_goal",
          "type": "uint256"
        },
        {
          "internalType": "uint256",
          "name": "_minContribution",
          "type": "uint256"
        }
      ],
      "stateMutability": "nonpayable",
      "type": "constructor"
    },
    {
      "inputs": [],
      "name": "admin",
      "outputs": [
        {
          "internalType": "address",
          "name": "",
          "type": "address"
        }
      ],
      "stateMutability": "view",
      "type": "function",
      "constant": true
    },
    {
      "inputs": [
        {
          "internalType": "address",
          "name": "",
          "type": "address"
        }
      ],
      "name": "contributors",
      "outputs": [
        {
          "internalType": "uint256",
          "name": "",
          "type": "uint256"
        }
      ],
      "stateMutability": "view",
      "type": "function",
      "constant": true
    },
    {
      "inputs": [
        {
          "internalType": "address",
          "name": "",
          "type": "address"
        }
      ],
      "name": "contributorsVoteWeight",
      "outputs": [
        {
          "internalType": "uint256",
          "name": "",
          "type": "uint256"
        }
      ],
      "stateMutability": "view",
      "type": "function",
      "constant": true
    },
    {
      "inputs": [],
      "name": "deadline",
      "outputs": [
        {
          "internalType": "uint256",
          "name": "",
          "type": "uint256"
        }
      ],
      "stateMutability": "view",
      "type": "function",
      "constant": true
    },
    {
      "inputs": [],
      "name": "goal",
      "outputs": [
        {
          "internalType": "uint256",
          "name": "",
          "type": "uint256"
        }
      ],
      "stateMutability": "view",
      "type": "function",
      "constant": true
    },
    {
      "inputs": [],
      "name": "id",
      "outputs": [
        {
          "internalType": "uint256",
          "name": "",
          "type": "uint256"
        }
      ],
      "stateMutability": "view",
      "type": "function",
      "constant": true
    },
    {
      "inputs": [],
      "name": "minContribution",
      "outputs": [
        {
          "internalType": "uint256",
          "name": "",
          "type": "uint256"
        }
      ],
      "stateMutability": "view",
      "type": "function",
      "constant": true
    },
    {
      "inputs": [],
      "name": "noOfContributors",
      "outputs": [
        {
          "internalType": "uint256",
          "name": "",
          "type": "uint256"
        }
      ],
      "stateMutability": "view",
      "type": "function",
      "constant": true
    },
    {
      "inputs": [],
      "name": "raisedAmount",
      "outputs": [
        {
          "internalType": "uint256",
          "name": "",
          "type": "uint256"
        }
      ],
      "stateMutability": "view",
      "type": "function",
      "constant": true
    },
    {
      "inputs": [
        {
          "internalType": "uint256",
          "name": "",
          "type": "uint256"
        }
      ],
      "name": "spendingRequests",
      "outputs": [
        {
          "internalType": "uint256",
          "name": "id",
          "type": "uint256"
        },
        {
          "internalType": "string",
          "name": "title",
          "type": "string"
        },
        {
          "internalType": "string",
          "name": "description",
          "type": "string"
        },
        {
          "internalType": "uint256",
          "name": "value",
          "type": "uint256"
        },
        {
          "internalType": "address payable",
          "name": "recipient",
          "type": "address"
        },
        {
          "internalType": "bool",
          "name": "completed",
          "type": "bool"
        },
        {
          "internalType": "uint256",
          "name": "noOfVotes",
          "type": "uint256"
        }
      ],
      "stateMutability": "view",
      "type": "function",
      "constant": true
    },
    {
      "inputs": [],
      "name": "tokenTransferAmount",
      "outputs": [
        {
          "internalType": "uint256",
          "name": "",
          "type": "uint256"
        }
      ],
      "stateMutability": "view",
      "type": "function",
      "constant": true
    },
    {
      "inputs": [],
      "name": "totalDestributedTokens",
      "outputs": [
        {
          "internalType": "uint256",
          "name": "",
          "type": "uint256"
        }
      ],
      "stateMutability": "view",
      "type": "function",
      "constant": true
    },
    {
      "inputs": [
        {
          "internalType": "address",
          "name": "",
          "type": "address"
        }
      ],
      "name": "voted",
      "outputs": [
        {
          "internalType": "bool",
          "name": "",
          "type": "bool"
        }
      ],
      "stateMutability": "view",
      "type": "function",
      "constant": true
    },
    {
      "inputs": [],
      "name": "contribute",
      "outputs": [],
      "stateMutability": "payable",
      "type": "function",
      "payable": true
    },
    {
      "inputs": [],
      "name": "getRefund",
      "outputs": [],
      "stateMutability": "payable",
      "type": "function",
      "payable": true
    },
    {
      "inputs": [
        {
          "internalType": "string",
          "name": "_title",
          "type": "string"
        },
        {
          "internalType": "string",
          "name": "_description",
          "type": "string"
        },
        {
          "internalType": "address payable",
          "name": "_recipient",
          "type": "address"
        },
        {
          "internalType": "uint256",
          "name": "_value",
          "type": "uint256"
        }
      ],
      "name": "spendingRequest",
      "outputs": [],
      "stateMutability": "nonpayable",
      "type": "function"
    },
    {
      "inputs": [
        {
          "internalType": "uint256",
          "name": "_id",
          "type": "uint256"
        }
      ],
      "name": "vote",
      "outputs": [],
      "stateMutability": "nonpayable",
      "type": "function"
    },
    {
      "inputs": [
        {
          "internalType": "uint256",
          "name": "_id",
          "type": "uint256"
        }
      ],
      "name": "transferRequestFunds",
      "outputs": [],
      "stateMutability": "payable",
      "type": "function",
      "payable": true
    },
    {
      "inputs": [
        {
          "internalType": "address",
          "name": "_newAdmin",
          "type": "address"
        }
      ],
      "name": "transferOwnership",
      "outputs": [],
      "stateMutability": "nonpayable",
      "type": "function"
    },
    {
      "inputs": [],
      "name": "tokenHolderAddress",
      "outputs": [
        {
          "internalType": "address",
          "name": "",
          "type": "address"
        }
      ],
      "stateMutability": "view",
      "type": "function",
      "constant": true
    },
    {
      "inputs": [],
      "name": "totalSupply",
      "outputs": [
        {
          "internalType": "uint256",
          "name": "",
          "type": "uint256"
        }
      ],
      "stateMutability": "view",
      "type": "function",
      "constant": true
    },
    {
      "inputs": [
        {
          "internalType": "address",
          "name": "_account",
          "type": "address"
        }
      ],
      "name": "balanceOfDaotAddr",
      "outputs": [
        {
          "internalType": "uint256",
          "name": "",
          "type": "uint256"
        }
      ],
      "stateMutability": "view",
      "type": "function",
      "constant": true
    },
    {
      "inputs": [
        {
          "internalType": "address",
          "name": "_owner",
          "type": "address"
        },
        {
          "internalType": "address",
          "name": "_spender",
          "type": "address"
        }
      ],
      "name": "allowance",
      "outputs": [
        {
          "internalType": "uint256",
          "name": "",
          "type": "uint256"
        }
      ],
      "stateMutability": "view",
      "type": "function",
      "constant": true
    },
    {
      "inputs": [
        {
          "internalType": "address",
          "name": "_voter",
          "type": "address"
        }
      ],
      "name": "hasVoted",
      "outputs": [
        {
          "internalType": "bool",
          "name": "",
          "type": "bool"
        }
      ],
      "stateMutability": "view",
      "type": "function",
      "constant": true
    },
    {
      "inputs": [
        {
          "internalType": "uint256",
          "name": "_id",
          "type": "uint256"
        }
      ],
      "name": "hasVotedForRequest",
      "outputs": [
        {
          "internalType": "bool",
          "name": "",
          "type": "bool"
        }
      ],
      "stateMutability": "view",
      "type": "function",
      "constant": true
    },
    {
      "inputs": [
        {
          "internalType": "uint256",
          "name": "_id",
          "type": "uint256"
        }
      ],
      "name": "votedForSpendingRequest",
      "outputs": [
        {
          "internalType": "bool",
          "name": "",
          "type": "bool"
        }
      ],
      "stateMutability": "view",
      "type": "function",
      "constant": true
    },
    {
      "inputs": [],
      "name": "deadline_",
      "outputs": [
        {
          "internalType": "bool",
          "name": "",
          "type": "bool"
        }
      ],
      "stateMutability": "view",
      "type": "function",
      "constant": true
    },
    {
      "inputs": [
        {
          "internalType": "uint256",
          "name": "_id",
          "type": "uint256"
        }
      ],
      "name": "getSpendingRequest",
      "outputs": [
        {
          "internalType": "uint256",
          "name": "",
          "type": "uint256"
        },
        {
          "internalType": "string",
          "name": "",
          "type": "string"
        },
        {
          "internalType": "string",
          "name": "",
          "type": "string"
        },
        {
          "internalType": "uint256",
          "name": "",
          "type": "uint256"
        },
        {
          "internalType": "address",
          "name": "",
          "type": "address"
        },
        {
          "internalType": "uint256",
          "name": "",
          "type": "uint256"
        },
        {
          "internalType": "bool",
          "name": "",
          "type": "bool"
        }
      ],
      "stateMutability": "view",
      "type": "function",
      "constant": true
    },
    {
      "inputs": [],
      "name": "raisedAmount_",
      "outputs": [
        {
          "internalType": "bool",
          "name": "",
          "type": "bool"
        }
      ],
      "stateMutability": "view",
      "type": "function",
      "constant": true
    },
    {
      "inputs": [
        {
          "internalType": "uint256",
          "name": "_id",
          "type": "uint256"
        }
      ],
      "name": "noOfVoters_",
      "outputs": [
        {
          "internalType": "bool",
          "name": "",
          "type": "bool"
        }
      ],
      "stateMutability": "view",
      "type": "function",
      "constant": true
    },
    {
      "inputs": [],
      "name": "goal_",
      "outputs": [
        {
          "internalType": "uint256",
          "name": "",
          "type": "uint256"
        }
      ],
      "stateMutability": "view",
      "type": "function",
      "constant": true
    },
    {
      "inputs": [],
      "name": "getTotalDistrubitedTokens",
      "outputs": [
        {
          "internalType": "uint256",
          "name": "",
          "type": "uint256"
        }
      ],
      "stateMutability": "view",
      "type": "function",
      "constant": true
    },
    {
      "inputs": [
        {
          "internalType": "uint256",
          "name": "_id",
          "type": "uint256"
        }
      ],
      "name": "completedRequests",
      "outputs": [
        {
          "internalType": "bool",
          "name": "",
          "type": "bool"
        }
      ],
      "stateMutability": "view",
      "type": "function",
      "constant": true
    }
  ],
  "bytecode": "0x60806040526305f5e10033604051620000189062000121565b62000025929190620001c4565b604051809103906000f08015801562000042573d6000803e3d6000fd5b50600960006101000a81548173ffffffffffffffffffffffffffffffffffffffff021916908373ffffffffffffffffffffffffffffffffffffffff1602179055503480156200009057600080fd5b5060405162004f3738038062004f378339818101604052810190620000b6919062000146565b806004819055508242620000cb9190620001f1565b60038190555081600281905550336000806101000a81548173ffffffffffffffffffffffffffffffffffffffff021916908373ffffffffffffffffffffffffffffffffffffffff160217905550505050620002ee565b611de9806200314e83390190565b6000815190506200014081620002d4565b92915050565b600080600060608486031215620001625762000161620002cf565b5b600062000172868287016200012f565b935050602062000185868287016200012f565b925050604062000198868287016200012f565b9150509250925092565b620001ad816200024e565b82525050565b620001be816200028c565b82525050565b6000604082019050620001db6000830185620001b3565b620001ea6020830184620001a2565b9392505050565b6000620001fe8262000282565b91506200020b8362000282565b9250827fffffffffffffffffffffffffffffffffffffffffffffffffffffffffffffffff03821115620002435762000242620002a0565b5b828201905092915050565b60006200025b8262000262565b9050919050565b600073ffffffffffffffffffffffffffffffffffffffff82169050919050565b6000819050919050565b6000620002998262000282565b9050919050565b7f4e487b7100000000000000000000000000000000000000000000000000000000600052601160045260246000fd5b600080fd5b620002df8162000282565b8114620002eb57600080fd5b50565b612e5080620002fe6000396000f3fe6080604052600436106101ee5760003560e01c80637d3fa7bb1161010d578063c3826914116100a0578063e77e0f8e1161006f578063e77e0f8e146106f4578063f0fbfbf314610737578063f2fde38b14610774578063f851a4401461079d578063fdba0ed9146107c8576101ee565b8063c382691414610657578063c59ee1dc14610682578063d7bb99ba146106ad578063dd62ed3e146106b7576101ee565b8063aec2ccae116100dc578063aec2ccae146105c9578063af640d0f14610606578063af87b5b614610631578063b2d5ae441461064d576101ee565b80637d3fa7bb146104f957806390aadd6014610536578063a8d68abe14610561578063aaffadf31461059e576101ee565b80633ebe8fd5116101855780634c69b583116101545780634c69b5831461042b5780634e18eb29146104685780634e260f6f146104a55780636bbe3672146104d0576101ee565b80633ebe8fd51461036d57806340193883146103aa5780634159f397146103d55780634b35bbd514610400576101ee565b80631841cc34116101c15780631841cc34146102af5780631f6d4942146102da57806329dcb0cf1461031757806335359a3f14610342576101ee565b80630121b93f146101f357806302d802d01461021c57806309eef43e1461024757806318160ddd14610284575b600080fd5b3480156101ff57600080fd5b5061021a60048036038101906102159190612087565b61080b565b005b34801561022857600080fd5b50610231610ac9565b60405161023e91906123f9565b60405180910390f35b34801561025357600080fd5b5061026e60048036038101906102699190611f4e565b610ae6565b60405161027b91906123f9565b60405180910390f35b34801561029057600080fd5b50610299610b3c565b6040516102a691906125b4565b60405180910390f35b3480156102bb57600080fd5b506102c4610bf6565b6040516102d191906125b4565b60405180910390f35b3480156102e657600080fd5b5061030160048036038101906102fc9190611f4e565b610bfc565b60405161030e91906125b4565b60405180910390f35b34801561032357600080fd5b5061032c610c14565b60405161033991906125b4565b60405180910390f35b34801561034e57600080fd5b50610357610c1a565b6040516103649190612355565b60405180910390f35b34801561037957600080fd5b50610394600480360381019061038f9190611f4e565b610c44565b6040516103a191906125b4565b60405180910390f35b3480156103b657600080fd5b506103bf610d0b565b6040516103cc91906125b4565b60405180910390f35b3480156103e157600080fd5b506103ea610d11565b6040516103f791906125b4565b60405180910390f35b34801561040c57600080fd5b50610415610d1b565b60405161042291906125b4565b60405180910390f35b34801561043757600080fd5b50610452600480360381019061044d9190612087565b610d21565b60405161045f91906123f9565b60405180910390f35b34801561047457600080fd5b5061048f600480360381019061048a9190612087565b610d68565b60405161049c91906123f9565b60405180910390f35b3480156104b157600080fd5b506104ba610dd7565b6040516104c791906125b4565b60405180910390f35b3480156104dc57600080fd5b506104f760048036038101906104f29190611fe8565b610ddd565b005b34801561050557600080fd5b50610520600480360381019061051b9190612087565b610f7b565b60405161052d91906123f9565b60405180910390f35b34801561054257600080fd5b5061054b610fea565b60405161055891906123f9565b60405180910390f35b34801561056d57600080fd5b5061058860048036038101906105839190611f4e565b611008565b60405161059591906125b4565b60405180910390f35b3480156105aa57600080fd5b506105b3611020565b6040516105c091906125b4565b60405180910390f35b3480156105d557600080fd5b506105f060048036038101906105eb9190611f4e565b611026565b6040516105fd91906123f9565b60405180910390f35b34801561061257600080fd5b5061061b611046565b60405161062891906125b4565b60405180910390f35b61064b60048036038101906106469190612087565b61104c565b005b6106556112b9565b005b34801561066357600080fd5b5061066c6114cd565b60405161067991906125b4565b60405180910390f35b34801561068e57600080fd5b506106976114d7565b6040516106a491906125b4565b60405180910390f35b6106b56114dd565b005b3480156106c357600080fd5b506106de60048036038101906106d99190611f7b565b611735565b6040516106eb91906125b4565b60405180910390f35b34801561070057600080fd5b5061071b60048036038101906107169190612087565b6117ec565b60405161072e97969594939291906125cf565b60405180910390f35b34801561074357600080fd5b5061075e60048036038101906107599190612087565b61196b565b60405161076b91906123f9565b60405180910390f35b34801561078057600080fd5b5061079b60048036038101906107969190611f4e565b61199d565b005b3480156107a957600080fd5b506107b2611a6e565b6040516107bf9190612355565b60405180910390f35b3480156107d457600080fd5b506107ef60048036038101906107ea9190612087565b611a92565b604051610802979695949392919061264c565b60405180910390f35b600061081633610c44565b11610856576040517f08c379a000000000000000000000000000000000000000000000000000000000815260040161084d90612494565b60405180910390fd5b6000600b6000838152602001908152602001600020905060008054906101000a900473ffffffffffffffffffffffffffffffffffffffff1673ffffffffffffffffffffffffffffffffffffffff163373ffffffffffffffffffffffffffffffffffffffff1614156108fc576040517f08c379a00000000000000000000000000000000000000000000000000000000081526004016108f390612434565b60405180910390fd5b600015158160060160003373ffffffffffffffffffffffffffffffffffffffff1673ffffffffffffffffffffffffffffffffffffffff16815260200190815260200160002060009054906101000a900460ff16151514610991576040517f08c379a000000000000000000000000000000000000000000000000000000000815260040161098890612514565b60405180910390fd5b600115158160040160149054906101000a900460ff16151514156109ea576040517f08c379a00000000000000000000000000000000000000000000000000000000081526004016109e1906124d4565b60405180910390fd5b60006109f533611c34565b905080826005016000828254610a0b9190612746565b9250508190555060018260060160003373ffffffffffffffffffffffffffffffffffffffff1673ffffffffffffffffffffffffffffffffffffffff16815260200190815260200160002060006101000a81548160ff0219169083151502179055506001600c60003373ffffffffffffffffffffffffffffffffffffffff1673ffffffffffffffffffffffffffffffffffffffff16815260200190815260200160002060006101000a81548160ff021916908315150217905550505050565b60008060009050426003541015610adf57600190505b8091505090565b6000600c60008373ffffffffffffffffffffffffffffffffffffffff1673ffffffffffffffffffffffffffffffffffffffff16815260200190815260200160002060009054906101000a900460ff169050919050565b6000670de0b6b3a7640000600960009054906101000a900473ffffffffffffffffffffffffffffffffffffffff1673ffffffffffffffffffffffffffffffffffffffff166318160ddd6040518163ffffffff1660e01b815260040160206040518083038186803b158015610baf57600080fd5b505afa158015610bc3573d6000803e3d6000fd5b505050506040513d601f19601f82011682018060405250810190610be791906120b4565b610bf1919061279c565b905090565b60085481565b600a6020528060005260406000206000915090505481565b60035481565b6000600960009054906101000a900473ffffffffffffffffffffffffffffffffffffffff16905090565b6000670de0b6b3a7640000600960009054906101000a900473ffffffffffffffffffffffffffffffffffffffff1673ffffffffffffffffffffffffffffffffffffffff166370a08231846040518263ffffffff1660e01b8152600401610caa9190612355565b60206040518083038186803b158015610cc257600080fd5b505afa158015610cd6573d6000803e3d6000fd5b505050506040513d601f19601f82011682018060405250810190610cfa91906120b4565b610d04919061279c565b9050919050565b60025481565b6000600254905090565b60075481565b600080600090506000600b600085815260200190815260200160002090506002600754610d4e919061279c565b81600501541115610d5e57600191505b8192505050919050565b600080600b600084815260200190815260200160002090508060060160003373ffffffffffffffffffffffffffffffffffffffff1673ffffffffffffffffffffffffffffffffffffffff16815260200190815260200160002060009054906101000a900460ff16915050919050565b60015481565b60008054906101000a900473ffffffffffffffffffffffffffffffffffffffff1673ffffffffffffffffffffffffffffffffffffffff163373ffffffffffffffffffffffffffffffffffffffff1614610e6b576040517f08c379a0000000000000000000000000000000000000000000000000000000008152600401610e6290612594565b60405180910390fd5b806005541015610eb0576040517f08c379a0000000000000000000000000000000000000000000000000000000008152600401610ea790612554565b60405180910390fd5b6000600b600060065481526020019081526020016000209050600654816000018190555083816002019080519060200190610eec929190611dd2565b5084816001019080519060200190610f05929190611dd2565b50828160040160006101000a81548173ffffffffffffffffffffffffffffffffffffffff021916908373ffffffffffffffffffffffffffffffffffffffff1602179055508181600301819055506000816005018190555060066000815480929190610f6f90612900565b91905055505050505050565b600080600b600084815260200190815260200160002090508060060160003373ffffffffffffffffffffffffffffffffffffffff1673ffffffffffffffffffffffffffffffffffffffff16815260200190815260200160002060009054906101000a900460ff16915050919050565b600080600090506002546005541061100157600190505b8091505090565b600d6020528060005260406000206000915090505481565b60045481565b600c6020528060005260406000206000915054906101000a900460ff1681565b60065481565b60008054906101000a900473ffffffffffffffffffffffffffffffffffffffff1673ffffffffffffffffffffffffffffffffffffffff163373ffffffffffffffffffffffffffffffffffffffff16146110da576040517f08c379a00000000000000000000000000000000000000000000000000000000081526004016110d190612594565b60405180910390fd5b806000600b600083815260200190815260200160002090506002600754611101919061279c565b816005015411611146576040517f08c379a000000000000000000000000000000000000000000000000000000000815260040161113d90612534565b60405180910390fd5b600254600554101561118d576040517f08c379a0000000000000000000000000000000000000000000000000000000008152600401611184906124f4565b60405180910390fd5b6000600b6000858152602001908152602001600020905060018160040160146101000a81548160ff02191690831515021790555060008160040160009054906101000a900473ffffffffffffffffffffffffffffffffffffffff1673ffffffffffffffffffffffffffffffffffffffff16826003015460405161120f90612340565b60006040518083038185875af1925050503d806000811461124c576040519150601f19603f3d011682016040523d82523d6000602084013e611251565b606091505b5050905080611295576040517f08c379a000000000000000000000000000000000000000000000000000000000815260040161128c90612574565b60405180910390fd5b8160030154600560008282546112ab91906127cd565b925050819055505050505050565b426003541080156112cd5750600254600554105b61130c576040517f08c379a000000000000000000000000000000000000000000000000000000000815260040161130390612474565b60405180910390fd5b6000600a60003373ffffffffffffffffffffffffffffffffffffffff1673ffffffffffffffffffffffffffffffffffffffff168152602001908152602001600020541161138e576040517f08c379a000000000000000000000000000000000000000000000000000000000815260040161138590612414565b60405180910390fd5b60003390506000600a60003373ffffffffffffffffffffffffffffffffffffffff1673ffffffffffffffffffffffffffffffffffffffff1681526020019081526020016000205490506000600a60003373ffffffffffffffffffffffffffffffffffffffff1673ffffffffffffffffffffffffffffffffffffffff1681526020019081526020016000208190555060008273ffffffffffffffffffffffffffffffffffffffff168260405161144290612340565b60006040518083038185875af1925050503d806000811461147f576040519150601f19603f3d011682016040523d82523d6000602084013e611484565b606091505b50509050806114c8576040517f08c379a00000000000000000000000000000000000000000000000000000000081526004016114bf90612574565b60405180910390fd5b505050565b6000600754905090565b60055481565b4260035411611521576040517f08c379a000000000000000000000000000000000000000000000000000000000815260040161151890612454565b60405180910390fd5b600454341015611566576040517f08c379a000000000000000000000000000000000000000000000000000000000815260040161155d906124b4565b60405180910390fd5b6000600a60003373ffffffffffffffffffffffffffffffffffffffff1673ffffffffffffffffffffffffffffffffffffffff1681526020019081526020016000205414156115c757600160008154809291906115c190612900565b91905055505b64174876e800346115d8919061279c565b60088190555034600a60003373ffffffffffffffffffffffffffffffffffffffff1673ffffffffffffffffffffffffffffffffffffffff168152602001908152602001600020600082825461162d9190612746565b9250508190555034600560008282546116469190612746565b9250508190555064174876e8003461165e919061279c565b6007600082825461166f9190612746565b92505081905550600960009054906101000a900473ffffffffffffffffffffffffffffffffffffffff1673ffffffffffffffffffffffffffffffffffffffff1663095ea7b3336008546040518363ffffffff1660e01b81526004016116d59291906123d0565b602060405180830381600087803b1580156116ef57600080fd5b505af1158015611703573d6000803e3d6000fd5b505050506040513d601f19601f820116820180604052508101906117279190611fbb565b50611733600854611cfb565b565b6000600960009054906101000a900473ffffffffffffffffffffffffffffffffffffffff1673ffffffffffffffffffffffffffffffffffffffff1663dd62ed3e84846040518363ffffffff1660e01b8152600401611794929190612370565b60206040518083038186803b1580156117ac57600080fd5b505afa1580156117c0573d6000803e3d6000fd5b505050506040513d601f19601f820116820180604052508101906117e491906120b4565b905092915050565b600b6020528060005260406000206000915090508060000154908060010180546118159061289d565b80601f01602080910402602001604051908101604052809291908181526020018280546118419061289d565b801561188e5780601f106118635761010080835404028352916020019161188e565b820191906000526020600020905b81548152906001019060200180831161187157829003601f168201915b5050505050908060020180546118a39061289d565b80601f01602080910402602001604051908101604052809291908181526020018280546118cf9061289d565b801561191c5780601f106118f15761010080835404028352916020019161191c565b820191906000526020600020905b8154815290600101906020018083116118ff57829003601f168201915b5050505050908060030154908060040160009054906101000a900473ffffffffffffffffffffffffffffffffffffffff16908060040160149054906101000a900460ff16908060050154905087565b600080600b600084815260200190815260200160002090508060040160149054906101000a900460ff16915050919050565b60008054906101000a900473ffffffffffffffffffffffffffffffffffffffff1673ffffffffffffffffffffffffffffffffffffffff163373ffffffffffffffffffffffffffffffffffffffff1614611a2b576040517f08c379a0000000000000000000000000000000000000000000000000000000008152600401611a2290612594565b60405180910390fd5b806000806101000a81548173ffffffffffffffffffffffffffffffffffffffff021916908373ffffffffffffffffffffffffffffffffffffffff16021790555050565b60008054906101000a900473ffffffffffffffffffffffffffffffffffffffff1681565b60006060806000806000806000600b60008a815260200190815260200160002090508060000154816001018260020183600301548460040160009054906101000a900473ffffffffffffffffffffffffffffffffffffffff1685600501548660040160149054906101000a900460ff16858054611b0e9061289d565b80601f0160208091040260200160405190810160405280929190818152602001828054611b3a9061289d565b8015611b875780601f10611b5c57610100808354040283529160200191611b87565b820191906000526020600020905b815481529060010190602001808311611b6a57829003601f168201915b50505050509550848054611b9a9061289d565b80601f0160208091040260200160405190810160405280929190818152602001828054611bc69061289d565b8015611c135780601f10611be857610100808354040283529160200191611c13565b820191906000526020600020905b815481529060010190602001808311611bf657829003601f168201915b50505050509450975097509750975097509750975050919395979092949650565b6000670de0b6b3a7640000600960009054906101000a900473ffffffffffffffffffffffffffffffffffffffff1673ffffffffffffffffffffffffffffffffffffffff166370a08231846040518263ffffffff1660e01b8152600401611c9a9190612355565b60206040518083038186803b158015611cb257600080fd5b505afa158015611cc6573d6000803e3d6000fd5b505050506040513d601f19601f82011682018060405250810190611cea91906120b4565b611cf4919061279c565b9050919050565b600960009054906101000a900473ffffffffffffffffffffffffffffffffffffffff1673ffffffffffffffffffffffffffffffffffffffff166323b872dd600960009054906101000a900473ffffffffffffffffffffffffffffffffffffffff1633846040518463ffffffff1660e01b8152600401611d7c93929190612399565b602060405180830381600087803b158015611d9657600080fd5b505af1158015611daa573d6000803e3d6000fd5b505050506040513d601f19601f82011682018060405250810190611dce9190611fbb565b5050565b828054611dde9061289d565b90600052602060002090601f016020900481019282611e005760008555611e47565b82601f10611e1957805160ff1916838001178555611e47565b82800160010185558215611e47579182015b82811115611e46578251825591602001919060010190611e2b565b5b509050611e549190611e58565b5090565b5b80821115611e71576000816000905550600101611e59565b5090565b6000611e88611e83846126ee565b6126c9565b905082815260208101848484011115611ea457611ea3612a0a565b5b611eaf84828561285b565b509392505050565b600081359050611ec681612dbe565b92915050565b600081359050611edb81612dd5565b92915050565b600081519050611ef081612dec565b92915050565b600082601f830112611f0b57611f0a612a05565b5b8135611f1b848260208601611e75565b91505092915050565b600081359050611f3381612e03565b92915050565b600081519050611f4881612e03565b92915050565b600060208284031215611f6457611f63612a14565b5b6000611f7284828501611eb7565b91505092915050565b60008060408385031215611f9257611f91612a14565b5b6000611fa085828601611eb7565b9250506020611fb185828601611eb7565b9150509250929050565b600060208284031215611fd157611fd0612a14565b5b6000611fdf84828501611ee1565b91505092915050565b6000806000806080858703121561200257612001612a14565b5b600085013567ffffffffffffffff8111156120205761201f612a0f565b5b61202c87828801611ef6565b945050602085013567ffffffffffffffff81111561204d5761204c612a0f565b5b61205987828801611ef6565b935050604061206a87828801611ecc565b925050606061207b87828801611f24565b91505092959194509250565b60006020828403121561209d5761209c612a14565b5b60006120ab84828501611f24565b91505092915050565b6000602082840312156120ca576120c9612a14565b5b60006120d884828501611f39565b91505092915050565b6120ea81612813565b82525050565b6120f981612801565b82525050565b61210881612825565b82525050565b60006121198261271f565b6121238185612735565b935061213381856020860161286a565b61213c81612a19565b840191505092915050565b6000612154603883612735565b915061215f82612a2a565b604082019050919050565b6000612177601a83612735565b915061218282612a79565b602082019050919050565b600061219a602a83612735565b91506121a582612aa2565b604082019050919050565b60006121bd603b83612735565b91506121c882612af1565b604082019050919050565b60006121e0603883612735565b91506121eb82612b40565b604082019050919050565b6000612203601d83612735565b915061220e82612b8f565b602082019050919050565b6000612226602883612735565b915061223182612bb8565b604082019050919050565b6000612249602c83612735565b915061225482612c07565b604082019050919050565b600061226c603283612735565b915061227782612c56565b604082019050919050565b600061228f603583612735565b915061229a82612ca5565b604082019050919050565b60006122b2603483612735565b91506122bd82612cf4565b604082019050919050565b60006122d5602683612735565b91506122e082612d43565b604082019050919050565b60006122f860008361272a565b915061230382612d92565b600082019050919050565b600061231b600b83612735565b915061232682612d95565b602082019050919050565b61233a81612851565b82525050565b600061234b826122eb565b9150819050919050565b600060208201905061236a60008301846120f0565b92915050565b600060408201905061238560008301856120f0565b61239260208301846120f0565b9392505050565b60006060820190506123ae60008301866120f0565b6123bb60208301856120f0565b6123c86040830184612331565b949350505050565b60006040820190506123e560008301856120f0565b6123f26020830184612331565b9392505050565b600060208201905061240e60008301846120ff565b92915050565b6000602082019050818103600083015261242d81612147565b9050919050565b6000602082019050818103600083015261244d8161216a565b9050919050565b6000602082019050818103600083015261246d8161218d565b9050919050565b6000602082019050818103600083015261248d816121b0565b9050919050565b600060208201905081810360008301526124ad816121d3565b9050919050565b600060208201905081810360008301526124cd816121f6565b9050919050565b600060208201905081810360008301526124ed81612219565b9050919050565b6000602082019050818103600083015261250d8161223c565b9050919050565b6000602082019050818103600083015261252d8161225f565b9050919050565b6000602082019050818103600083015261254d81612282565b9050919050565b6000602082019050818103600083015261256d816122a5565b9050919050565b6000602082019050818103600083015261258d816122c8565b9050919050565b600060208201905081810360008301526125ad8161230e565b9050919050565b60006020820190506125c96000830184612331565b92915050565b600060e0820190506125e4600083018a612331565b81810360208301526125f6818961210e565b9050818103604083015261260a818861210e565b90506126196060830187612331565b61262660808301866120e1565b61263360a08301856120ff565b61264060c0830184612331565b98975050505050505050565b600060e082019050612661600083018a612331565b8181036020830152612673818961210e565b90508181036040830152612687818861210e565b90506126966060830187612331565b6126a360808301866120f0565b6126b060a0830185612331565b6126bd60c08301846120ff565b98975050505050505050565b60006126d36126e4565b90506126df82826128cf565b919050565b6000604051905090565b600067ffffffffffffffff821115612709576127086129d6565b5b61271282612a19565b9050602081019050919050565b600081519050919050565b600081905092915050565b600082825260208201905092915050565b600061275182612851565b915061275c83612851565b9250827fffffffffffffffffffffffffffffffffffffffffffffffffffffffffffffffff0382111561279157612790612949565b5b828201905092915050565b60006127a782612851565b91506127b283612851565b9250826127c2576127c1612978565b5b828204905092915050565b60006127d882612851565b91506127e383612851565b9250828210156127f6576127f5612949565b5b828203905092915050565b600061280c82612831565b9050919050565b600061281e82612831565b9050919050565b60008115159050919050565b600073ffffffffffffffffffffffffffffffffffffffff82169050919050565b6000819050919050565b82818337600083830152505050565b60005b8381101561288857808201518184015260208101905061286d565b83811115612897576000848401525b50505050565b600060028204905060018216806128b557607f821691505b602082108114156128c9576128c86129a7565b5b50919050565b6128d882612a19565b810181811067ffffffffffffffff821117156128f7576128f66129d6565b5b80604052505050565b600061290b82612851565b91507fffffffffffffffffffffffffffffffffffffffffffffffffffffffffffffffff82141561293e5761293d612949565b5b600182019050919050565b7f4e487b7100000000000000000000000000000000000000000000000000000000600052601160045260246000fd5b7f4e487b7100000000000000000000000000000000000000000000000000000000600052601260045260246000fd5b7f4e487b7100000000000000000000000000000000000000000000000000000000600052602260045260246000fd5b7f4e487b7100000000000000000000000000000000000000000000000000000000600052604160045260246000fd5b600080fd5b600080fd5b600080fd5b600080fd5b6000601f19601f8301169050919050565b7f596f752068617665206e6f7420636f6e747269627574656420746f207468652060008201527f63616d706169676e2c2063616e6e6f7420726566756e64210000000000000000602082015250565b7f41646d696e2063616e6e6f742063617374206120766f74652120000000000000600082015250565b7f205468652063616d706169676e20636f6e747269627574696f6e20646561646c60008201527f696e6520656e6465642100000000000000000000000000000000000000000000602082015250565b7f5468652063616d706169676e2072616973656420616d6f756e7420686173206260008201527f65656e20726561636865642c2063616e6e6f7420726566756e64210000000000602082015250565b7f596f7572206164647265737320646f6573204e4f54206861766520616e79207460008201527f6f6b656e732c206e6f20766f74696e6720726967687473210000000000000000602082015250565b7f4d696e696d756d20636f6e747269627574696f6e206e6f74206d657421000000600082015250565b7f43616e6e6f7420766f74652c207370656e64696e67207265717565737420636f60008201527f6d706c6574656421000000000000000000000000000000000000000000000000602082015250565b7f5468652066756e64696e672066756e647320676f616c20686173206e6f74206260008201527f65656e2072656163686564210000000000000000000000000000000000000000602082015250565b7f596f75206861766520616c6c726561647920766f74656420666f72207468697360008201527f207370656e64696e672072657175657374210000000000000000000000000000602082015250565b7f546865207265717565737420686173206e6f74207265636569766564206d6f7260008201527f65207468616e2068616c66206f6620766f746573210000000000000000000000602082015250565b7f4e6f7420656e6f7567682066756e64732072616973656420666f72207468697360008201527f207265717565737465642070726f706f73616c21000000000000000000000000602082015250565b7f5472616e7366657220746f206f776e6572206f662074686520636f757273652060008201527f6661696c65640000000000000000000000000000000000000000000000000000602082015250565b50565b7f4f6e6c792061646d696e21000000000000000000000000000000000000000000600082015250565b612dc781612801565b8114612dd257600080fd5b50565b612dde81612813565b8114612de957600080fd5b50565b612df581612825565b8114612e0057600080fd5b50565b612e0c81612851565b8114612e1757600080fd5b5056fea26469706673582212204dec19d43742c155f7f1d25d29d4e18d9f35a87cabd26b2cdf5d1b05575bb6a464736f6c6343000807003360806040523480156200001157600080fd5b5060405162001de938038062001de9833981810160405281019062000037919062000641565b6040518060400160405280600881526020017f64616f546f6b656e0000000000000000000000000000000000000000000000008152506040518060400160405280600481526020017f44414f54000000000000000000000000000000000000000000000000000000008152508160039080519060200190620000bb92919062000563565b508060049080519060200190620000d492919062000563565b50505060003090506200010330670de0b6b3a764000085620000f7919062000880565b6200014260201b60201c565b6200013981836003670de0b6b3a76400008762000121919062000880565b6200012d919062000848565b620002bb60201b60201c565b50505062000b31565b600073ffffffffffffffffffffffffffffffffffffffff168273ffffffffffffffffffffffffffffffffffffffff161415620001b5576040517f08c379a0000000000000000000000000000000000000000000000000000000008152600401620001ac906200079b565b60405180910390fd5b620001c9600083836200055960201b60201c565b8060026000828254620001dd9190620007eb565b92505081905550806000808473ffffffffffffffffffffffffffffffffffffffff1673ffffffffffffffffffffffffffffffffffffffff1681526020019081526020016000206000828254620002349190620007eb565b925050819055508173ffffffffffffffffffffffffffffffffffffffff16600073ffffffffffffffffffffffffffffffffffffffff167fddf252ad1be2c89b69c2b068fc378daa952ba7f163c4a11628f55a4df523b3ef836040516200029b9190620007bd565b60405180910390a3620002b7600083836200055e60201b60201c565b5050565b600073ffffffffffffffffffffffffffffffffffffffff168373ffffffffffffffffffffffffffffffffffffffff1614156200032e576040517f08c379a0000000000000000000000000000000000000000000000000000000008152600401620003259062000779565b60405180910390fd5b600073ffffffffffffffffffffffffffffffffffffffff168273ffffffffffffffffffffffffffffffffffffffff161415620003a1576040517f08c379a0000000000000000000000000000000000000000000000000000000008152600401620003989062000735565b60405180910390fd5b620003b48383836200055960201b60201c565b60008060008573ffffffffffffffffffffffffffffffffffffffff1673ffffffffffffffffffffffffffffffffffffffff168152602001908152602001600020549050818110156200043d576040517f08c379a0000000000000000000000000000000000000000000000000000000008152600401620004349062000757565b60405180910390fd5b8181036000808673ffffffffffffffffffffffffffffffffffffffff1673ffffffffffffffffffffffffffffffffffffffff16815260200190815260200160002081905550816000808573ffffffffffffffffffffffffffffffffffffffff1673ffffffffffffffffffffffffffffffffffffffff1681526020019081526020016000206000828254620004d29190620007eb565b925050819055508273ffffffffffffffffffffffffffffffffffffffff168473ffffffffffffffffffffffffffffffffffffffff167fddf252ad1be2c89b69c2b068fc378daa952ba7f163c4a11628f55a4df523b3ef84604051620005389190620007bd565b60405180910390a3620005538484846200055e60201b60201c565b50505050565b505050565b505050565b82805462000571906200091f565b90600052602060002090601f016020900481019282620005955760008555620005e1565b82601f10620005b057805160ff1916838001178555620005e1565b82800160010185558215620005e1579182015b82811115620005e0578251825591602001919060010190620005c3565b5b509050620005f09190620005f4565b5090565b5b808211156200060f576000816000905550600101620005f5565b5090565b600081519050620006248162000afd565b92915050565b6000815190506200063b8162000b17565b92915050565b600080604083850312156200065b576200065a620009e2565b5b60006200066b858286016200062a565b92505060206200067e8582860162000613565b9150509250929050565b600062000697602383620007da565b9150620006a482620009e7565b604082019050919050565b6000620006be602683620007da565b9150620006cb8262000a36565b604082019050919050565b6000620006e5602583620007da565b9150620006f28262000a85565b604082019050919050565b60006200070c601f83620007da565b9150620007198262000ad4565b602082019050919050565b6200072f8162000915565b82525050565b60006020820190508181036000830152620007508162000688565b9050919050565b600060208201905081810360008301526200077281620006af565b9050919050565b600060208201905081810360008301526200079481620006d6565b9050919050565b60006020820190508181036000830152620007b681620006fd565b9050919050565b6000602082019050620007d4600083018462000724565b92915050565b600082825260208201905092915050565b6000620007f88262000915565b9150620008058362000915565b9250827fffffffffffffffffffffffffffffffffffffffffffffffffffffffffffffffff038211156200083d576200083c62000955565b5b828201905092915050565b6000620008558262000915565b9150620008628362000915565b92508262000875576200087462000984565b5b828204905092915050565b60006200088d8262000915565b91506200089a8362000915565b9250817fffffffffffffffffffffffffffffffffffffffffffffffffffffffffffffffff0483118215151615620008d657620008d562000955565b5b828202905092915050565b6000620008ee82620008f5565b9050919050565b600073ffffffffffffffffffffffffffffffffffffffff82169050919050565b6000819050919050565b600060028204905060018216806200093857607f821691505b602082108114156200094f576200094e620009b3565b5b50919050565b7f4e487b7100000000000000000000000000000000000000000000000000000000600052601160045260246000fd5b7f4e487b7100000000000000000000000000000000000000000000000000000000600052601260045260246000fd5b7f4e487b7100000000000000000000000000000000000000000000000000000000600052602260045260246000fd5b600080fd5b7f45524332303a207472616e7366657220746f20746865207a65726f206164647260008201527f6573730000000000000000000000000000000000000000000000000000000000602082015250565b7f45524332303a207472616e7366657220616d6f756e742065786365656473206260008201527f616c616e63650000000000000000000000000000000000000000000000000000602082015250565b7f45524332303a207472616e736665722066726f6d20746865207a65726f20616460008201527f6472657373000000000000000000000000000000000000000000000000000000602082015250565b7f45524332303a206d696e7420746f20746865207a65726f206164647265737300600082015250565b62000b0881620008e1565b811462000b1457600080fd5b50565b62000b228162000915565b811462000b2e57600080fd5b50565b6112a88062000b416000396000f3fe608060405234801561001057600080fd5b50600436106100a95760003560e01c80633950935111610071578063395093511461016857806370a082311461019857806395d89b41146101c8578063a457c2d7146101e6578063a9059cbb14610216578063dd62ed3e14610246576100a9565b806306fdde03146100ae578063095ea7b3146100cc57806318160ddd146100fc57806323b872dd1461011a578063313ce5671461014a575b600080fd5b6100b6610276565b6040516100c39190610d58565b60405180910390f35b6100e660048036038101906100e19190610bc5565b610308565b6040516100f39190610d3d565b60405180910390f35b610104610324565b6040516101119190610e3a565b60405180910390f35b610134600480360381019061012f9190610b72565b61032e565b6040516101419190610d3d565b60405180910390f35b61015261035c565b60405161015f9190610e55565b60405180910390f35b610182600480360381019061017d9190610bc5565b610365565b60405161018f9190610d3d565b60405180910390f35b6101b260048036038101906101ad9190610b05565b61040f565b6040516101bf9190610e3a565b60405180910390f35b6101d0610457565b6040516101dd9190610d58565b60405180910390f35b61020060048036038101906101fb9190610bc5565b6104e9565b60405161020d9190610d3d565b60405180910390f35b610230600480360381019061022b9190610bc5565b6105d3565b60405161023d9190610d3d565b60405180910390f35b610260600480360381019061025b9190610b32565b6105f6565b60405161026d9190610e3a565b60405180910390f35b60606003805461028590610fc4565b80601f01602080910402602001604051908101604052809291908181526020018280546102b190610fc4565b80156102fe5780601f106102d3576101008083540402835291602001916102fe565b820191906000526020600020905b8154815290600101906020018083116102e157829003601f168201915b5050505050905090565b60008030905061031981858561067d565b600191505092915050565b6000600254905090565b60003093506103518484670de0b6b3a76400008561034c9190610ee2565b610848565b600190509392505050565b60006012905090565b600080610370610ac9565b9050610404818585600160008673ffffffffffffffffffffffffffffffffffffffff1673ffffffffffffffffffffffffffffffffffffffff16815260200190815260200160002060008973ffffffffffffffffffffffffffffffffffffffff1673ffffffffffffffffffffffffffffffffffffffff168152602001908152602001600020546103ff9190610e8c565b61067d565b600191505092915050565b60008060008373ffffffffffffffffffffffffffffffffffffffff1673ffffffffffffffffffffffffffffffffffffffff168152602001908152602001600020549050919050565b60606004805461046690610fc4565b80601f016020809104026020016040519081016040528092919081815260200182805461049290610fc4565b80156104df5780601f106104b4576101008083540402835291602001916104df565b820191906000526020600020905b8154815290600101906020018083116104c257829003601f168201915b5050505050905090565b6000806104f4610ac9565b90506000600160008373ffffffffffffffffffffffffffffffffffffffff1673ffffffffffffffffffffffffffffffffffffffff16815260200190815260200160002060008673ffffffffffffffffffffffffffffffffffffffff1673ffffffffffffffffffffffffffffffffffffffff168152602001908152602001600020549050838110156105ba576040517f08c379a00000000000000000000000000000000000000000000000000000000081526004016105b190610e1a565b60405180910390fd5b6105c7828686840361067d565b60019250505092915050565b6000806105de610ac9565b90506105eb818585610848565b600191505092915050565b6000600160008473ffffffffffffffffffffffffffffffffffffffff1673ffffffffffffffffffffffffffffffffffffffff16815260200190815260200160002060008373ffffffffffffffffffffffffffffffffffffffff1673ffffffffffffffffffffffffffffffffffffffff16815260200190815260200160002054905092915050565b600073ffffffffffffffffffffffffffffffffffffffff168373ffffffffffffffffffffffffffffffffffffffff1614156106ed576040517f08c379a00000000000000000000000000000000000000000000000000000000081526004016106e490610dfa565b60405180910390fd5b600073ffffffffffffffffffffffffffffffffffffffff168273ffffffffffffffffffffffffffffffffffffffff16141561075d576040517f08c379a000000000000000000000000000000000000000000000000000000000815260040161075490610d9a565b60405180910390fd5b80600160008573ffffffffffffffffffffffffffffffffffffffff1673ffffffffffffffffffffffffffffffffffffffff16815260200190815260200160002060008473ffffffffffffffffffffffffffffffffffffffff1673ffffffffffffffffffffffffffffffffffffffff168152602001908152602001600020819055508173ffffffffffffffffffffffffffffffffffffffff168373ffffffffffffffffffffffffffffffffffffffff167f8c5be1e5ebec7d5bd14f71427d1e84f3dd0314c0f7b2291e5b200ac8c7c3b9258360405161083b9190610e3a565b60405180910390a3505050565b600073ffffffffffffffffffffffffffffffffffffffff168373ffffffffffffffffffffffffffffffffffffffff1614156108b8576040517f08c379a00000000000000000000000000000000000000000000000000000000081526004016108af90610dda565b60405180910390fd5b600073ffffffffffffffffffffffffffffffffffffffff168273ffffffffffffffffffffffffffffffffffffffff161415610928576040517f08c379a000000000000000000000000000000000000000000000000000000000815260040161091f90610d7a565b60405180910390fd5b610933838383610ad1565b60008060008573ffffffffffffffffffffffffffffffffffffffff1673ffffffffffffffffffffffffffffffffffffffff168152602001908152602001600020549050818110156109b9576040517f08c379a00000000000000000000000000000000000000000000000000000000081526004016109b090610dba565b60405180910390fd5b8181036000808673ffffffffffffffffffffffffffffffffffffffff1673ffffffffffffffffffffffffffffffffffffffff16815260200190815260200160002081905550816000808573ffffffffffffffffffffffffffffffffffffffff1673ffffffffffffffffffffffffffffffffffffffff1681526020019081526020016000206000828254610a4c9190610e8c565b925050819055508273ffffffffffffffffffffffffffffffffffffffff168473ffffffffffffffffffffffffffffffffffffffff167fddf252ad1be2c89b69c2b068fc378daa952ba7f163c4a11628f55a4df523b3ef84604051610ab09190610e3a565b60405180910390a3610ac3848484610ad6565b50505050565b600033905090565b505050565b505050565b600081359050610aea81611244565b92915050565b600081359050610aff8161125b565b92915050565b600060208284031215610b1b57610b1a611054565b5b6000610b2984828501610adb565b91505092915050565b60008060408385031215610b4957610b48611054565b5b6000610b5785828601610adb565b9250506020610b6885828601610adb565b9150509250929050565b600080600060608486031215610b8b57610b8a611054565b5b6000610b9986828701610adb565b9350506020610baa86828701610adb565b9250506040610bbb86828701610af0565b9150509250925092565b60008060408385031215610bdc57610bdb611054565b5b6000610bea85828601610adb565b9250506020610bfb85828601610af0565b9150509250929050565b610c0e81610f4e565b82525050565b6000610c1f82610e70565b610c298185610e7b565b9350610c39818560208601610f91565b610c4281611059565b840191505092915050565b6000610c5a602383610e7b565b9150610c658261106a565b604082019050919050565b6000610c7d602283610e7b565b9150610c88826110b9565b604082019050919050565b6000610ca0602683610e7b565b9150610cab82611108565b604082019050919050565b6000610cc3602583610e7b565b9150610cce82611157565b604082019050919050565b6000610ce6602483610e7b565b9150610cf1826111a6565b604082019050919050565b6000610d09602583610e7b565b9150610d14826111f5565b604082019050919050565b610d2881610f7a565b82525050565b610d3781610f84565b82525050565b6000602082019050610d526000830184610c05565b92915050565b60006020820190508181036000830152610d728184610c14565b905092915050565b60006020820190508181036000830152610d9381610c4d565b9050919050565b60006020820190508181036000830152610db381610c70565b9050919050565b60006020820190508181036000830152610dd381610c93565b9050919050565b60006020820190508181036000830152610df381610cb6565b9050919050565b60006020820190508181036000830152610e1381610cd9565b9050919050565b60006020820190508181036000830152610e3381610cfc565b9050919050565b6000602082019050610e4f6000830184610d1f565b92915050565b6000602082019050610e6a6000830184610d2e565b92915050565b600081519050919050565b600082825260208201905092915050565b6000610e9782610f7a565b9150610ea283610f7a565b9250827fffffffffffffffffffffffffffffffffffffffffffffffffffffffffffffffff03821115610ed757610ed6610ff6565b5b828201905092915050565b6000610eed82610f7a565b9150610ef883610f7a565b9250817fffffffffffffffffffffffffffffffffffffffffffffffffffffffffffffffff0483118215151615610f3157610f30610ff6565b5b828202905092915050565b6000610f4782610f5a565b9050919050565b60008115159050919050565b600073ffffffffffffffffffffffffffffffffffffffff82169050919050565b6000819050919050565b600060ff82169050919050565b60005b83811015610faf578082015181840152602081019050610f94565b83811115610fbe576000848401525b50505050565b60006002820490506001821680610fdc57607f821691505b60208210811415610ff057610fef611025565b5b50919050565b7f4e487b7100000000000000000000000000000000000000000000000000000000600052601160045260246000fd5b7f4e487b7100000000000000000000000000000000000000000000000000000000600052602260045260246000fd5b600080fd5b6000601f19601f8301169050919050565b7f45524332303a207472616e7366657220746f20746865207a65726f206164647260008201527f6573730000000000000000000000000000000000000000000000000000000000602082015250565b7f45524332303a20617070726f766520746f20746865207a65726f20616464726560008201527f7373000000000000000000000000000000000000000000000000000000000000602082015250565b7f45524332303a207472616e7366657220616d6f756e742065786365656473206260008201527f616c616e63650000000000000000000000000000000000000000000000000000602082015250565b7f45524332303a207472616e736665722066726f6d20746865207a65726f20616460008201527f6472657373000000000000000000000000000000000000000000000000000000602082015250565b7f45524332303a20617070726f76652066726f6d20746865207a65726f2061646460008201527f7265737300000000000000000000000000000000000000000000000000000000602082015250565b7f45524332303a2064656372656173656420616c6c6f77616e63652062656c6f7760008201527f207a65726f000000000000000000000000000000000000000000000000000000602082015250565b61124d81610f3c565b811461125857600080fd5b50565b61126481610f7a565b811461126f57600080fd5b5056fea26469706673582212205a751bb9aab2329a706c9040d2244e1ba22cf7ccbb7aac6d36b8ffb36c2265b264736f6c63430008070033",
  "immutableReferences": {},
  "source": "// SPDX-License-Identifier: MIT\r\npragma solidity 0.8.7;\r\n\r\npragma experimental ABIEncoderV2;\r\nimport \"./DAOT.sol\";\r\n\r\ncontract CrowdFunding {\r\n    address public admin;\r\n    uint256 public noOfContributors;\r\n    uint256 public goal;\r\n    uint256 public deadline;\r\n    uint256 public minContribution;\r\n    uint256 public raisedAmount;\r\n    uint256 public id;\r\n    uint256 public totalDestributedTokens;\r\n    uint256 public tokenTransferAmount;\r\n\r\n    DAOT daot = new DAOT(100000000, msg.sender);\r\n\r\n    struct Request {\r\n        uint256 id;\r\n        string title;\r\n        string description;\r\n        uint256 value;\r\n        address payable recipient;\r\n        bool completed;\r\n        uint256 noOfVotes;\r\n        mapping(address => bool) voters;\r\n    }\r\n\r\n    mapping(address => uint256) public contributors;\r\n    mapping(uint256 => Request) public spendingRequests;\r\n    mapping(address => bool) public voted;\r\n    mapping(address => uint256) public contributorsVoteWeight;\r\n\r\n    constructor(\r\n        uint256 _deadline,\r\n        uint256 _goal,\r\n        uint256 _minContribution\r\n    ) {\r\n        minContribution = _minContribution;\r\n        deadline = block.timestamp + _deadline;\r\n        goal = _goal;\r\n        admin = msg.sender;\r\n    }\r\n\r\n    function contribute()  external payable {\r\n        require(\r\n            deadline > block.timestamp,\r\n            \" The campaign contribution deadline ended!\"\r\n        );\r\n        require(msg.value >= minContribution, \"Minimum contribution not met!\");\r\n        if (contributors[msg.sender] == 0) {\r\n            noOfContributors++;\r\n        }\r\n        tokenTransferAmount = msg.value / 10**11;\r\n        contributors[msg.sender] += msg.value;\r\n        raisedAmount += msg.value;\r\n \r\n\r\n        // 100000000000000 wei = 0,00001 eth/0,03USD  = 1000 TOKEN\r\n      \r\n\r\n        totalDestributedTokens += msg.value / 10**11;\r\n\r\n        daot.approve(msg.sender, tokenTransferAmount);\r\n        _transferTokens(tokenTransferAmount);\r\n    }\r\n\r\n    function _transferTokens(uint256 _amount) private {\r\n        daot.transferFrom(address(daot), msg.sender, _amount);\r\n    }\r\n\r\n    function getRefund() external payable {\r\n        require(\r\n            deadline < block.timestamp && raisedAmount < goal,\r\n            \"The campaign raised amount has been reached, cannot refund!\"\r\n        );\r\n\r\n        require(\r\n            contributors[msg.sender] > 0,\r\n            \"You have not contributed to the campaign, cannot refund!\"\r\n        );\r\n        address payable recipient = payable(msg.sender);\r\n        uint256 value = contributors[msg.sender];\r\n        contributors[msg.sender] = 0;\r\n\r\n        (bool success, ) = recipient.call{value: value}(\"\");\r\n        require(success, \"Transfer to owner of the course failed\");\r\n    }\r\n\r\n    function spendingRequest(\r\n        string memory _title,\r\n        string memory _description,\r\n        address payable _recipient,\r\n        uint256 _value\r\n    ) external onlyAdmin {\r\n        require(\r\n            raisedAmount >= _value,\r\n            \"Not enough funds raised for this requested proposal!\"\r\n        );\r\n\r\n        Request storage newRequest = spendingRequests[id];\r\n        newRequest.id = id;\r\n        newRequest.description = _description;\r\n        newRequest.title = _title;\r\n        newRequest.recipient = _recipient;\r\n        newRequest.value = _value;\r\n        newRequest.noOfVotes = 0;\r\n\r\n        id++;\r\n    }\r\n\r\n    function vote(uint256 _id) external tokenOwnerRights {\r\n        Request storage request = spendingRequests[_id];\r\n        require(msg.sender != admin, \"Admin cannot cast a vote! \");\r\n        require(\r\n            request.voters[msg.sender] == false,\r\n            \"You have allready voted for this spending request!\"\r\n        );\r\n        require(request.completed != true ,\"Cannot vote, spending request completed!\");\r\n\r\n        uint256 voteWeight = _balanceOfDaotAddr(msg.sender);\r\n        request.noOfVotes += voteWeight;\r\n\r\n        request.voters[msg.sender] = true;\r\n\r\n        voted[msg.sender] = true;\r\n    }\r\n\r\n    function transferRequestFunds(uint256 _id)\r\n        external\r\n        payable\r\n        onlyAdmin\r\n        requestApproved(_id)\r\n    {\r\n        require(\r\n            raisedAmount >= goal,\r\n            \"The funding funds goal has not been reached!\"\r\n        );\r\n        Request storage request = spendingRequests[_id];\r\n        request.completed = true;\r\n\r\n        (bool success, ) = request.recipient.call{value: request.value}(\"\");\r\n        require(success, \"Transfer to owner of the course failed\");\r\n        raisedAmount -= request.value;\r\n    }\r\n\r\n    function transferOwnership(address _newAdmin) external onlyAdmin {\r\n        admin = _newAdmin;\r\n    }\r\n\r\n    //---------------------------------------------helper functions------------------------------------\r\n\r\n    function tokenHolderAddress() public view returns(address){\r\n\r\n        return address(daot);\r\n    }\r\n    \r\n    \r\n    function totalSupply() public view returns (uint256) {\r\n        return daot.totalSupply() / 10**18;\r\n    }\r\n\r\n    function _balanceOfDaotAddr(address _account)\r\n        private\r\n        view\r\n        returns (uint256)\r\n    {\r\n        return daot.balanceOf(_account) / 10**18;\r\n    }\r\n\r\n    function balanceOfDaotAddr(address _account) public view returns (uint256) {\r\n        return daot.balanceOf(_account) / 10**18;\r\n    }\r\n\r\n    function allowance(address _owner, address _spender)\r\n        public\r\n        view\r\n        returns (uint256)\r\n    {\r\n        return daot.allowance(_owner, _spender);\r\n    }\r\n\r\n    function hasVoted(address _voter) external view returns (bool) {\r\n        return voted[_voter];\r\n    }\r\n    function hasVotedForRequest(uint _id) external view returns(bool){\r\n        Request storage r = spendingRequests[_id];\r\n        return r.voters[msg.sender];\r\n    }\r\n\r\n    function votedForSpendingRequest(uint256 _id) external view returns (bool) {\r\n        Request storage r = spendingRequests[_id];\r\n\r\n        return r.voters[msg.sender];\r\n    }\r\n\r\n    function deadline_() external view returns (bool) {\r\n        bool isDeadline = false;\r\n\r\n        if (deadline < block.timestamp) {\r\n            isDeadline = true;\r\n        }\r\n\r\n        return isDeadline;\r\n    }\r\n\r\n    function getSpendingRequest(uint256 _id)\r\n        public\r\n        view\r\n        returns (\r\n            uint256,\r\n            string memory,\r\n            string memory,\r\n            uint256,\r\n            address,\r\n            uint256,\r\n            bool\r\n        )\r\n    {\r\n        Request storage r = spendingRequests[_id];\r\n\r\n        return (\r\n            r.id,\r\n            r.title,\r\n            r.description,\r\n            r.value,\r\n            r.recipient,\r\n            r.noOfVotes,\r\n            r.completed\r\n        );\r\n    }\r\n\r\n    function raisedAmount_() external view returns (bool) {\r\n        bool isRaised = false;\r\n\r\n        if (raisedAmount >= goal) {\r\n            isRaised = true;\r\n        }\r\n\r\n        return isRaised;\r\n    }\r\n\r\n    function noOfVoters_(uint256 _id) external view returns (bool) {\r\n        bool enoughVotes = false;\r\n        Request storage request = spendingRequests[_id];\r\n        if (request.noOfVotes > totalDestributedTokens / 2) {\r\n            enoughVotes = true;\r\n        }\r\n\r\n        return enoughVotes;\r\n    }\r\n\r\n    function goal_() external view returns (uint256) {\r\n        return goal;\r\n    }\r\n\r\n    function getTotalDistrubitedTokens() public view returns (uint256) {\r\n        return totalDestributedTokens;\r\n    }\r\n\r\n    function completedRequests(uint256 _id) external view returns (bool) {\r\n        Request storage request = spendingRequests[_id];\r\n\r\n        return (request.completed);\r\n    }\r\n\r\n    //-----------------------modifiers------------------------------------------------------\r\n    modifier requestApproved(uint256 _id) {\r\n        Request storage request = spendingRequests[_id];\r\n        require(\r\n            request.noOfVotes > totalDestributedTokens / 2,\r\n            \"The request has not received more than half of votes!\"\r\n        );\r\n        _;\r\n    }\r\n\r\n    modifier tokenOwnerRights() {\r\n        require(\r\n            balanceOfDaotAddr(msg.sender) > 0,\r\n            \"Your address does NOT have any tokens, no voting rights!\"\r\n        );\r\n        _;\r\n    }\r\n\r\n    modifier onlyAdmin() {\r\n        require(msg.sender == admin, \"Only admin!\");\r\n        _;\r\n    }\r\n}\r\n",
  "sourcePath": "C:\\Udemy -Complete DApp blockchain development\\dao-dapp-nextjs_clone\\contracts\\Crowdfunding.sol",
  "compiler": {
    "name": "solc",
    "version": "0.8.7+commit.e28d00a7.Emscripten.clang"
  },
  "schemaVersion": "3.4.4",
  "updatedAt": "2022-03-08T18:38:53.482Z",
  "networkType": "ethereum",
  "devdoc": {
    "kind": "dev",
    "methods": {},
    "version": 1
  },
  "userdoc": {
    "kind": "user",
    "methods": {},
    "version": 1
  }
}