{
  "contractName": "CrowdFunding",
  "abi": [
    {
      "inputs": [
        {
          "internalType": "uint256",
          "name": "_deadline",
          "type": "uint256"
        },
        {
          "internalType": "uint256",
          "name": "_goal",
          "type": "uint256"
        },
        {
          "internalType": "uint256",
          "name": "_minContribution",
          "type": "uint256"
        }
      ],
      "stateMutability": "nonpayable",
      "type": "constructor"
    },
    {
      "inputs": [],
      "name": "admin",
      "outputs": [
        {
          "internalType": "address",
          "name": "",
          "type": "address"
        }
      ],
      "stateMutability": "view",
      "type": "function"
    },
    {
      "inputs": [
        {
          "internalType": "address",
          "name": "",
          "type": "address"
        }
      ],
      "name": "contributors",
      "outputs": [
        {
          "internalType": "uint256",
          "name": "",
          "type": "uint256"
        }
      ],
      "stateMutability": "view",
      "type": "function"
    },
    {
      "inputs": [
        {
          "internalType": "address",
          "name": "",
          "type": "address"
        }
      ],
      "name": "contributorsVoteWeight",
      "outputs": [
        {
          "internalType": "uint256",
          "name": "",
          "type": "uint256"
        }
      ],
      "stateMutability": "view",
      "type": "function"
    },
    {
      "inputs": [],
      "name": "deadline",
      "outputs": [
        {
          "internalType": "uint256",
          "name": "",
          "type": "uint256"
        }
      ],
      "stateMutability": "view",
      "type": "function"
    },
    {
      "inputs": [],
      "name": "goal",
      "outputs": [
        {
          "internalType": "uint256",
          "name": "",
          "type": "uint256"
        }
      ],
      "stateMutability": "view",
      "type": "function"
    },
    {
      "inputs": [],
      "name": "id",
      "outputs": [
        {
          "internalType": "uint256",
          "name": "",
          "type": "uint256"
        }
      ],
      "stateMutability": "view",
      "type": "function"
    },
    {
      "inputs": [],
      "name": "minContribution",
      "outputs": [
        {
          "internalType": "uint256",
          "name": "",
          "type": "uint256"
        }
      ],
      "stateMutability": "view",
      "type": "function"
    },
    {
      "inputs": [],
      "name": "noOfContributors",
      "outputs": [
        {
          "internalType": "uint256",
          "name": "",
          "type": "uint256"
        }
      ],
      "stateMutability": "view",
      "type": "function"
    },
    {
      "inputs": [],
      "name": "raisedAmount",
      "outputs": [
        {
          "internalType": "uint256",
          "name": "",
          "type": "uint256"
        }
      ],
      "stateMutability": "view",
      "type": "function"
    },
    {
      "inputs": [
        {
          "internalType": "uint256",
          "name": "",
          "type": "uint256"
        }
      ],
      "name": "spendingRequests",
      "outputs": [
        {
          "internalType": "uint256",
          "name": "id",
          "type": "uint256"
        },
        {
          "internalType": "string",
          "name": "title",
          "type": "string"
        },
        {
          "internalType": "string",
          "name": "description",
          "type": "string"
        },
        {
          "internalType": "uint256",
          "name": "value",
          "type": "uint256"
        },
        {
          "internalType": "address payable",
          "name": "recipient",
          "type": "address"
        },
        {
          "internalType": "bool",
          "name": "completed",
          "type": "bool"
        },
        {
          "internalType": "uint256",
          "name": "noOfVotes",
          "type": "uint256"
        }
      ],
      "stateMutability": "view",
      "type": "function"
    },
    {
      "inputs": [],
      "name": "tokenTransferAmount",
      "outputs": [
        {
          "internalType": "uint256",
          "name": "",
          "type": "uint256"
        }
      ],
      "stateMutability": "view",
      "type": "function"
    },
    {
      "inputs": [],
      "name": "totalDestributedTokens",
      "outputs": [
        {
          "internalType": "uint256",
          "name": "",
          "type": "uint256"
        }
      ],
      "stateMutability": "view",
      "type": "function"
    },
    {
      "inputs": [
        {
          "internalType": "address",
          "name": "",
          "type": "address"
        }
      ],
      "name": "voted",
      "outputs": [
        {
          "internalType": "bool",
          "name": "",
          "type": "bool"
        }
      ],
      "stateMutability": "view",
      "type": "function"
    },
    {
      "inputs": [],
      "name": "contribute",
      "outputs": [],
      "stateMutability": "payable",
      "type": "function"
    },
    {
      "inputs": [],
      "name": "getRefund",
      "outputs": [],
      "stateMutability": "payable",
      "type": "function"
    },
    {
      "inputs": [
        {
          "internalType": "string",
          "name": "_title",
          "type": "string"
        },
        {
          "internalType": "string",
          "name": "_description",
          "type": "string"
        },
        {
          "internalType": "address payable",
          "name": "_recipient",
          "type": "address"
        },
        {
          "internalType": "uint256",
          "name": "_value",
          "type": "uint256"
        }
      ],
      "name": "spendingRequest",
      "outputs": [],
      "stateMutability": "nonpayable",
      "type": "function"
    },
    {
      "inputs": [
        {
          "internalType": "uint256",
          "name": "_id",
          "type": "uint256"
        }
      ],
      "name": "vote",
      "outputs": [],
      "stateMutability": "nonpayable",
      "type": "function"
    },
    {
      "inputs": [
        {
          "internalType": "uint256",
          "name": "_id",
          "type": "uint256"
        }
      ],
      "name": "transferRequestFunds",
      "outputs": [],
      "stateMutability": "payable",
      "type": "function"
    },
    {
      "inputs": [
        {
          "internalType": "address",
          "name": "_newAdmin",
          "type": "address"
        }
      ],
      "name": "transferOwnership",
      "outputs": [],
      "stateMutability": "nonpayable",
      "type": "function"
    },
    {
      "inputs": [],
      "name": "tokenHolderAddress",
      "outputs": [
        {
          "internalType": "address",
          "name": "",
          "type": "address"
        }
      ],
      "stateMutability": "view",
      "type": "function"
    },
    {
      "inputs": [],
      "name": "totalSupply",
      "outputs": [
        {
          "internalType": "uint256",
          "name": "",
          "type": "uint256"
        }
      ],
      "stateMutability": "view",
      "type": "function"
    },
    {
      "inputs": [
        {
          "internalType": "address",
          "name": "_account",
          "type": "address"
        }
      ],
      "name": "balanceOfDaotAddr",
      "outputs": [
        {
          "internalType": "uint256",
          "name": "",
          "type": "uint256"
        }
      ],
      "stateMutability": "view",
      "type": "function"
    },
    {
      "inputs": [
        {
          "internalType": "address",
          "name": "_owner",
          "type": "address"
        },
        {
          "internalType": "address",
          "name": "_spender",
          "type": "address"
        }
      ],
      "name": "allowance",
      "outputs": [
        {
          "internalType": "uint256",
          "name": "",
          "type": "uint256"
        }
      ],
      "stateMutability": "view",
      "type": "function"
    },
    {
      "inputs": [
        {
          "internalType": "address",
          "name": "_voter",
          "type": "address"
        }
      ],
      "name": "hasVoted",
      "outputs": [
        {
          "internalType": "bool",
          "name": "",
          "type": "bool"
        }
      ],
      "stateMutability": "view",
      "type": "function"
    },
    {
      "inputs": [
        {
          "internalType": "uint256",
          "name": "_id",
          "type": "uint256"
        }
      ],
      "name": "votedForSpendingRequest",
      "outputs": [
        {
          "internalType": "bool",
          "name": "",
          "type": "bool"
        }
      ],
      "stateMutability": "view",
      "type": "function"
    },
    {
      "inputs": [],
      "name": "deadline_",
      "outputs": [
        {
          "internalType": "bool",
          "name": "",
          "type": "bool"
        }
      ],
      "stateMutability": "view",
      "type": "function"
    },
    {
      "inputs": [
        {
          "internalType": "uint256",
          "name": "_id",
          "type": "uint256"
        }
      ],
      "name": "getSpendingRequest",
      "outputs": [
        {
          "internalType": "uint256",
          "name": "",
          "type": "uint256"
        },
        {
          "internalType": "string",
          "name": "",
          "type": "string"
        },
        {
          "internalType": "string",
          "name": "",
          "type": "string"
        },
        {
          "internalType": "uint256",
          "name": "",
          "type": "uint256"
        },
        {
          "internalType": "address",
          "name": "",
          "type": "address"
        },
        {
          "internalType": "uint256",
          "name": "",
          "type": "uint256"
        },
        {
          "internalType": "bool",
          "name": "",
          "type": "bool"
        }
      ],
      "stateMutability": "view",
      "type": "function"
    },
    {
      "inputs": [],
      "name": "raisedAmount_",
      "outputs": [
        {
          "internalType": "bool",
          "name": "",
          "type": "bool"
        }
      ],
      "stateMutability": "view",
      "type": "function"
    },
    {
      "inputs": [
        {
          "internalType": "uint256",
          "name": "_id",
          "type": "uint256"
        }
      ],
      "name": "noOfVoters_",
      "outputs": [
        {
          "internalType": "bool",
          "name": "",
          "type": "bool"
        }
      ],
      "stateMutability": "view",
      "type": "function"
    },
    {
      "inputs": [],
      "name": "goal_",
      "outputs": [
        {
          "internalType": "uint256",
          "name": "",
          "type": "uint256"
        }
      ],
      "stateMutability": "view",
      "type": "function"
    },
    {
      "inputs": [],
      "name": "getTotalDistrubitedTokens",
      "outputs": [
        {
          "internalType": "uint256",
          "name": "",
          "type": "uint256"
        }
      ],
      "stateMutability": "view",
      "type": "function"
    },
    {
      "inputs": [
        {
          "internalType": "uint256",
          "name": "_id",
          "type": "uint256"
        }
      ],
      "name": "completedRequests",
      "outputs": [
        {
          "internalType": "bool",
          "name": "",
          "type": "bool"
        }
      ],
      "stateMutability": "view",
      "type": "function"
    }
  ],
  "bytecode": "0x60806040526305f5e10033604051620000189062000121565b62000025929190620001c4565b604051809103906000f08015801562000042573d6000803e3d6000fd5b50600960006101000a81548173ffffffffffffffffffffffffffffffffffffffff021916908373ffffffffffffffffffffffffffffffffffffffff1602179055503480156200009057600080fd5b5060405162004d4438038062004d448339818101604052810190620000b6919062000146565b806004819055508242620000cb9190620001f1565b60038190555081600281905550336000806101000a81548173ffffffffffffffffffffffffffffffffffffffff021916908373ffffffffffffffffffffffffffffffffffffffff160217905550505050620002ee565b611de98062002f5b83390190565b6000815190506200014081620002d4565b92915050565b600080600060608486031215620001625762000161620002cf565b5b600062000172868287016200012f565b935050602062000185868287016200012f565b925050604062000198868287016200012f565b9150509250925092565b620001ad816200024e565b82525050565b620001be816200028c565b82525050565b6000604082019050620001db6000830185620001b3565b620001ea6020830184620001a2565b9392505050565b6000620001fe8262000282565b91506200020b8362000282565b9250827fffffffffffffffffffffffffffffffffffffffffffffffffffffffffffffffff03821115620002435762000242620002a0565b5b828201905092915050565b60006200025b8262000262565b9050919050565b600073ffffffffffffffffffffffffffffffffffffffff82169050919050565b6000819050919050565b6000620002998262000282565b9050919050565b7f4e487b7100000000000000000000000000000000000000000000000000000000600052601160045260246000fd5b600080fd5b620002df8162000282565b8114620002eb57600080fd5b50565b612c5d80620002fe6000396000f3fe6080604052600436106101e35760003560e01c806390aadd6011610102578063c59ee1dc11610095578063f0fbfbf311610064578063f0fbfbf3146106ef578063f2fde38b1461072c578063f851a44014610755578063fdba0ed914610780576101e3565b8063c59ee1dc1461063a578063d7bb99ba14610665578063dd62ed3e1461066f578063e77e0f8e146106ac576101e3565b8063af640d0f116100d1578063af640d0f146105be578063af87b5b6146105e9578063b2d5ae4414610605578063c38269141461060f576101e3565b806390aadd60146104ee578063a8d68abe14610519578063aaffadf314610556578063aec2ccae14610581576101e3565b80633ebe8fd51161017a5780634c69b583116101495780634c69b583146104205780634e18eb291461045d5780634e260f6f1461049a5780636bbe3672146104c5576101e3565b80633ebe8fd514610362578063401938831461039f5780634159f397146103ca5780634b35bbd5146103f5576101e3565b80631841cc34116101b65780631841cc34146102a45780631f6d4942146102cf57806329dcb0cf1461030c57806335359a3f14610337576101e3565b80630121b93f146101e857806302d802d01461021157806309eef43e1461023c57806318160ddd14610279575b600080fd5b3480156101f457600080fd5b5061020f600480360381019061020a9190611f5a565b6107c3565b005b34801561021d57600080fd5b50610226610a28565b60405161023391906122a9565b60405180910390f35b34801561024857600080fd5b50610263600480360381019061025e9190611e21565b610a45565b60405161027091906122a9565b60405180910390f35b34801561028557600080fd5b5061028e610a9b565b60405161029b9190612444565b60405180910390f35b3480156102b057600080fd5b506102b9610b55565b6040516102c69190612444565b60405180910390f35b3480156102db57600080fd5b506102f660048036038101906102f19190611e21565b610b5b565b6040516103039190612444565b60405180910390f35b34801561031857600080fd5b50610321610b73565b60405161032e9190612444565b60405180910390f35b34801561034357600080fd5b5061034c610b79565b6040516103599190612205565b60405180910390f35b34801561036e57600080fd5b5061038960048036038101906103849190611e21565b610ba3565b6040516103969190612444565b60405180910390f35b3480156103ab57600080fd5b506103b4610c6a565b6040516103c19190612444565b60405180910390f35b3480156103d657600080fd5b506103df610c70565b6040516103ec9190612444565b60405180910390f35b34801561040157600080fd5b5061040a610c7a565b6040516104179190612444565b60405180910390f35b34801561042c57600080fd5b5061044760048036038101906104429190611f5a565b610c80565b60405161045491906122a9565b60405180910390f35b34801561046957600080fd5b50610484600480360381019061047f9190611f5a565b610cc7565b60405161049191906122a9565b60405180910390f35b3480156104a657600080fd5b506104af610d36565b6040516104bc9190612444565b60405180910390f35b3480156104d157600080fd5b506104ec60048036038101906104e79190611ebb565b610d3c565b005b3480156104fa57600080fd5b50610503610eda565b60405161051091906122a9565b60405180910390f35b34801561052557600080fd5b50610540600480360381019061053b9190611e21565b610ef8565b60405161054d9190612444565b60405180910390f35b34801561056257600080fd5b5061056b610f10565b6040516105789190612444565b60405180910390f35b34801561058d57600080fd5b506105a860048036038101906105a39190611e21565b610f16565b6040516105b591906122a9565b60405180910390f35b3480156105ca57600080fd5b506105d3610f36565b6040516105e09190612444565b60405180910390f35b61060360048036038101906105fe9190611f5a565b610f3c565b005b61060d61118c565b005b34801561061b57600080fd5b506106246113a0565b6040516106319190612444565b60405180910390f35b34801561064657600080fd5b5061064f6113aa565b60405161065c9190612444565b60405180910390f35b61066d6113b0565b005b34801561067b57600080fd5b5061069660048036038101906106919190611e4e565b611608565b6040516106a39190612444565b60405180910390f35b3480156106b857600080fd5b506106d360048036038101906106ce9190611f5a565b6116bf565b6040516106e6979695949392919061245f565b60405180910390f35b3480156106fb57600080fd5b5061071660048036038101906107119190611f5a565b61183e565b60405161072391906122a9565b60405180910390f35b34801561073857600080fd5b50610753600480360381019061074e9190611e21565b611870565b005b34801561076157600080fd5b5061076a611941565b6040516107779190612205565b60405180910390f35b34801561078c57600080fd5b506107a760048036038101906107a29190611f5a565b611965565b6040516107ba97969594939291906124dc565b60405180910390f35b60006107ce33610ba3565b1161080e576040517f08c379a000000000000000000000000000000000000000000000000000000000815260040161080590612344565b60405180910390fd5b6000600b6000838152602001908152602001600020905060008054906101000a900473ffffffffffffffffffffffffffffffffffffffff1673ffffffffffffffffffffffffffffffffffffffff163373ffffffffffffffffffffffffffffffffffffffff1614156108b4576040517f08c379a00000000000000000000000000000000000000000000000000000000081526004016108ab906122e4565b60405180910390fd5b600015158160060160003373ffffffffffffffffffffffffffffffffffffffff1673ffffffffffffffffffffffffffffffffffffffff16815260200190815260200160002060009054906101000a900460ff16151514610949576040517f08c379a0000000000000000000000000000000000000000000000000000000008152600401610940906123a4565b60405180910390fd5b600061095433611b07565b90508082600501600082825461096a91906125d6565b9250508190555060018260060160003373ffffffffffffffffffffffffffffffffffffffff1673ffffffffffffffffffffffffffffffffffffffff16815260200190815260200160002060006101000a81548160ff0219169083151502179055506001600c60003373ffffffffffffffffffffffffffffffffffffffff1673ffffffffffffffffffffffffffffffffffffffff16815260200190815260200160002060006101000a81548160ff021916908315150217905550505050565b60008060009050426003541015610a3e57600190505b8091505090565b6000600c60008373ffffffffffffffffffffffffffffffffffffffff1673ffffffffffffffffffffffffffffffffffffffff16815260200190815260200160002060009054906101000a900460ff169050919050565b6000670de0b6b3a7640000600960009054906101000a900473ffffffffffffffffffffffffffffffffffffffff1673ffffffffffffffffffffffffffffffffffffffff166318160ddd6040518163ffffffff1660e01b815260040160206040518083038186803b158015610b0e57600080fd5b505afa158015610b22573d6000803e3d6000fd5b505050506040513d601f19601f82011682018060405250810190610b469190611f87565b610b50919061262c565b905090565b60085481565b600a6020528060005260406000206000915090505481565b60035481565b6000600960009054906101000a900473ffffffffffffffffffffffffffffffffffffffff16905090565b6000670de0b6b3a7640000600960009054906101000a900473ffffffffffffffffffffffffffffffffffffffff1673ffffffffffffffffffffffffffffffffffffffff166370a08231846040518263ffffffff1660e01b8152600401610c099190612205565b60206040518083038186803b158015610c2157600080fd5b505afa158015610c35573d6000803e3d6000fd5b505050506040513d601f19601f82011682018060405250810190610c599190611f87565b610c63919061262c565b9050919050565b60025481565b6000600254905090565b60075481565b600080600090506000600b600085815260200190815260200160002090506002600754610cad919061262c565b81600501541115610cbd57600191505b8192505050919050565b600080600b600084815260200190815260200160002090508060060160003373ffffffffffffffffffffffffffffffffffffffff1673ffffffffffffffffffffffffffffffffffffffff16815260200190815260200160002060009054906101000a900460ff16915050919050565b60015481565b60008054906101000a900473ffffffffffffffffffffffffffffffffffffffff1673ffffffffffffffffffffffffffffffffffffffff163373ffffffffffffffffffffffffffffffffffffffff1614610dca576040517f08c379a0000000000000000000000000000000000000000000000000000000008152600401610dc190612424565b60405180910390fd5b806005541015610e0f576040517f08c379a0000000000000000000000000000000000000000000000000000000008152600401610e06906123e4565b60405180910390fd5b6000600b600060065481526020019081526020016000209050600654816000018190555083816002019080519060200190610e4b929190611ca5565b5084816001019080519060200190610e64929190611ca5565b50828160040160006101000a81548173ffffffffffffffffffffffffffffffffffffffff021916908373ffffffffffffffffffffffffffffffffffffffff1602179055508181600301819055506000816005018190555060066000815480929190610ece9061275c565b91905055505050505050565b6000806000905060025460055410610ef157600190505b8091505090565b600d6020528060005260406000206000915090505481565b60045481565b600c6020528060005260406000206000915054906101000a900460ff1681565b60065481565b60008054906101000a900473ffffffffffffffffffffffffffffffffffffffff1673ffffffffffffffffffffffffffffffffffffffff163373ffffffffffffffffffffffffffffffffffffffff1614610fca576040517f08c379a0000000000000000000000000000000000000000000000000000000008152600401610fc190612424565b60405180910390fd5b806000600b600083815260200190815260200160002090506002600754610ff1919061262c565b816005015411611036576040517f08c379a000000000000000000000000000000000000000000000000000000000815260040161102d906123c4565b60405180910390fd5b600254600554101561107d576040517f08c379a000000000000000000000000000000000000000000000000000000000815260040161107490612384565b60405180910390fd5b6000600b6000858152602001908152602001600020905060018160040160146101000a81548160ff02191690831515021790555060008160040160009054906101000a900473ffffffffffffffffffffffffffffffffffffffff1673ffffffffffffffffffffffffffffffffffffffff1682600301546040516110ff906121f0565b60006040518083038185875af1925050503d806000811461113c576040519150601f19603f3d011682016040523d82523d6000602084013e611141565b606091505b5050905080611185576040517f08c379a000000000000000000000000000000000000000000000000000000000815260040161117c90612404565b60405180910390fd5b5050505050565b426003541080156111a05750600254600554105b6111df576040517f08c379a00000000000000000000000000000000000000000000000000000000081526004016111d690612324565b60405180910390fd5b6000600a60003373ffffffffffffffffffffffffffffffffffffffff1673ffffffffffffffffffffffffffffffffffffffff1681526020019081526020016000205411611261576040517f08c379a0000000000000000000000000000000000000000000000000000000008152600401611258906122c4565b60405180910390fd5b60003390506000600a60003373ffffffffffffffffffffffffffffffffffffffff1673ffffffffffffffffffffffffffffffffffffffff1681526020019081526020016000205490506000600a60003373ffffffffffffffffffffffffffffffffffffffff1673ffffffffffffffffffffffffffffffffffffffff1681526020019081526020016000208190555060008273ffffffffffffffffffffffffffffffffffffffff1682604051611315906121f0565b60006040518083038185875af1925050503d8060008114611352576040519150601f19603f3d011682016040523d82523d6000602084013e611357565b606091505b505090508061139b576040517f08c379a000000000000000000000000000000000000000000000000000000000815260040161139290612404565b60405180910390fd5b505050565b6000600754905090565b60055481565b42600354116113f4576040517f08c379a00000000000000000000000000000000000000000000000000000000081526004016113eb90612304565b60405180910390fd5b600454341015611439576040517f08c379a000000000000000000000000000000000000000000000000000000000815260040161143090612364565b60405180910390fd5b6000600a60003373ffffffffffffffffffffffffffffffffffffffff1673ffffffffffffffffffffffffffffffffffffffff16815260200190815260200160002054141561149a57600160008154809291906114949061275c565b91905055505b64174876e800346114ab919061262c565b60088190555034600a60003373ffffffffffffffffffffffffffffffffffffffff1673ffffffffffffffffffffffffffffffffffffffff168152602001908152602001600020600082825461150091906125d6565b92505081905550346005600082825461151991906125d6565b9250508190555064174876e80034611531919061262c565b6007600082825461154291906125d6565b92505081905550600960009054906101000a900473ffffffffffffffffffffffffffffffffffffffff1673ffffffffffffffffffffffffffffffffffffffff1663095ea7b3336008546040518363ffffffff1660e01b81526004016115a8929190612280565b602060405180830381600087803b1580156115c257600080fd5b505af11580156115d6573d6000803e3d6000fd5b505050506040513d601f19601f820116820180604052508101906115fa9190611e8e565b50611606600854611bce565b565b6000600960009054906101000a900473ffffffffffffffffffffffffffffffffffffffff1673ffffffffffffffffffffffffffffffffffffffff1663dd62ed3e84846040518363ffffffff1660e01b8152600401611667929190612220565b60206040518083038186803b15801561167f57600080fd5b505afa158015611693573d6000803e3d6000fd5b505050506040513d601f19601f820116820180604052508101906116b79190611f87565b905092915050565b600b6020528060005260406000206000915090508060000154908060010180546116e8906126f9565b80601f0160208091040260200160405190810160405280929190818152602001828054611714906126f9565b80156117615780601f1061173657610100808354040283529160200191611761565b820191906000526020600020905b81548152906001019060200180831161174457829003601f168201915b505050505090806002018054611776906126f9565b80601f01602080910402602001604051908101604052809291908181526020018280546117a2906126f9565b80156117ef5780601f106117c4576101008083540402835291602001916117ef565b820191906000526020600020905b8154815290600101906020018083116117d257829003601f168201915b5050505050908060030154908060040160009054906101000a900473ffffffffffffffffffffffffffffffffffffffff16908060040160149054906101000a900460ff16908060050154905087565b600080600b600084815260200190815260200160002090508060040160149054906101000a900460ff16915050919050565b60008054906101000a900473ffffffffffffffffffffffffffffffffffffffff1673ffffffffffffffffffffffffffffffffffffffff163373ffffffffffffffffffffffffffffffffffffffff16146118fe576040517f08c379a00000000000000000000000000000000000000000000000000000000081526004016118f590612424565b60405180910390fd5b806000806101000a81548173ffffffffffffffffffffffffffffffffffffffff021916908373ffffffffffffffffffffffffffffffffffffffff16021790555050565b60008054906101000a900473ffffffffffffffffffffffffffffffffffffffff1681565b60006060806000806000806000600b60008a815260200190815260200160002090508060000154816001018260020183600301548460040160009054906101000a900473ffffffffffffffffffffffffffffffffffffffff1685600501548660040160149054906101000a900460ff168580546119e1906126f9565b80601f0160208091040260200160405190810160405280929190818152602001828054611a0d906126f9565b8015611a5a5780601f10611a2f57610100808354040283529160200191611a5a565b820191906000526020600020905b815481529060010190602001808311611a3d57829003601f168201915b50505050509550848054611a6d906126f9565b80601f0160208091040260200160405190810160405280929190818152602001828054611a99906126f9565b8015611ae65780601f10611abb57610100808354040283529160200191611ae6565b820191906000526020600020905b815481529060010190602001808311611ac957829003601f168201915b50505050509450975097509750975097509750975050919395979092949650565b6000670de0b6b3a7640000600960009054906101000a900473ffffffffffffffffffffffffffffffffffffffff1673ffffffffffffffffffffffffffffffffffffffff166370a08231846040518263ffffffff1660e01b8152600401611b6d9190612205565b60206040518083038186803b158015611b8557600080fd5b505afa158015611b99573d6000803e3d6000fd5b505050506040513d601f19601f82011682018060405250810190611bbd9190611f87565b611bc7919061262c565b9050919050565b600960009054906101000a900473ffffffffffffffffffffffffffffffffffffffff1673ffffffffffffffffffffffffffffffffffffffff166323b872dd600960009054906101000a900473ffffffffffffffffffffffffffffffffffffffff1633846040518463ffffffff1660e01b8152600401611c4f93929190612249565b602060405180830381600087803b158015611c6957600080fd5b505af1158015611c7d573d6000803e3d6000fd5b505050506040513d601f19601f82011682018060405250810190611ca19190611e8e565b5050565b828054611cb1906126f9565b90600052602060002090601f016020900481019282611cd35760008555611d1a565b82601f10611cec57805160ff1916838001178555611d1a565b82800160010185558215611d1a579182015b82811115611d19578251825591602001919060010190611cfe565b5b509050611d279190611d2b565b5090565b5b80821115611d44576000816000905550600101611d2c565b5090565b6000611d5b611d568461257e565b612559565b905082815260208101848484011115611d7757611d76612866565b5b611d828482856126b7565b509392505050565b600081359050611d9981612bcb565b92915050565b600081359050611dae81612be2565b92915050565b600081519050611dc381612bf9565b92915050565b600082601f830112611dde57611ddd612861565b5b8135611dee848260208601611d48565b91505092915050565b600081359050611e0681612c10565b92915050565b600081519050611e1b81612c10565b92915050565b600060208284031215611e3757611e36612870565b5b6000611e4584828501611d8a565b91505092915050565b60008060408385031215611e6557611e64612870565b5b6000611e7385828601611d8a565b9250506020611e8485828601611d8a565b9150509250929050565b600060208284031215611ea457611ea3612870565b5b6000611eb284828501611db4565b91505092915050565b60008060008060808587031215611ed557611ed4612870565b5b600085013567ffffffffffffffff811115611ef357611ef261286b565b5b611eff87828801611dc9565b945050602085013567ffffffffffffffff811115611f2057611f1f61286b565b5b611f2c87828801611dc9565b9350506040611f3d87828801611d9f565b9250506060611f4e87828801611df7565b91505092959194509250565b600060208284031215611f7057611f6f612870565b5b6000611f7e84828501611df7565b91505092915050565b600060208284031215611f9d57611f9c612870565b5b6000611fab84828501611e0c565b91505092915050565b611fbd8161266f565b82525050565b611fcc8161265d565b82525050565b611fdb81612681565b82525050565b6000611fec826125af565b611ff681856125c5565b93506120068185602086016126c6565b61200f81612875565b840191505092915050565b60006120276038836125c5565b915061203282612886565b604082019050919050565b600061204a601a836125c5565b9150612055826128d5565b602082019050919050565b600061206d602a836125c5565b9150612078826128fe565b604082019050919050565b6000612090603b836125c5565b915061209b8261294d565b604082019050919050565b60006120b36038836125c5565b91506120be8261299c565b604082019050919050565b60006120d6601d836125c5565b91506120e1826129eb565b602082019050919050565b60006120f9602c836125c5565b915061210482612a14565b604082019050919050565b600061211c6032836125c5565b915061212782612a63565b604082019050919050565b600061213f6035836125c5565b915061214a82612ab2565b604082019050919050565b60006121626034836125c5565b915061216d82612b01565b604082019050919050565b60006121856026836125c5565b915061219082612b50565b604082019050919050565b60006121a86000836125ba565b91506121b382612b9f565b600082019050919050565b60006121cb600b836125c5565b91506121d682612ba2565b602082019050919050565b6121ea816126ad565b82525050565b60006121fb8261219b565b9150819050919050565b600060208201905061221a6000830184611fc3565b92915050565b60006040820190506122356000830185611fc3565b6122426020830184611fc3565b9392505050565b600060608201905061225e6000830186611fc3565b61226b6020830185611fc3565b61227860408301846121e1565b949350505050565b60006040820190506122956000830185611fc3565b6122a260208301846121e1565b9392505050565b60006020820190506122be6000830184611fd2565b92915050565b600060208201905081810360008301526122dd8161201a565b9050919050565b600060208201905081810360008301526122fd8161203d565b9050919050565b6000602082019050818103600083015261231d81612060565b9050919050565b6000602082019050818103600083015261233d81612083565b9050919050565b6000602082019050818103600083015261235d816120a6565b9050919050565b6000602082019050818103600083015261237d816120c9565b9050919050565b6000602082019050818103600083015261239d816120ec565b9050919050565b600060208201905081810360008301526123bd8161210f565b9050919050565b600060208201905081810360008301526123dd81612132565b9050919050565b600060208201905081810360008301526123fd81612155565b9050919050565b6000602082019050818103600083015261241d81612178565b9050919050565b6000602082019050818103600083015261243d816121be565b9050919050565b600060208201905061245960008301846121e1565b92915050565b600060e082019050612474600083018a6121e1565b81810360208301526124868189611fe1565b9050818103604083015261249a8188611fe1565b90506124a960608301876121e1565b6124b66080830186611fb4565b6124c360a0830185611fd2565b6124d060c08301846121e1565b98975050505050505050565b600060e0820190506124f1600083018a6121e1565b81810360208301526125038189611fe1565b905081810360408301526125178188611fe1565b905061252660608301876121e1565b6125336080830186611fc3565b61254060a08301856121e1565b61254d60c0830184611fd2565b98975050505050505050565b6000612563612574565b905061256f828261272b565b919050565b6000604051905090565b600067ffffffffffffffff82111561259957612598612832565b5b6125a282612875565b9050602081019050919050565b600081519050919050565b600081905092915050565b600082825260208201905092915050565b60006125e1826126ad565b91506125ec836126ad565b9250827fffffffffffffffffffffffffffffffffffffffffffffffffffffffffffffffff03821115612621576126206127a5565b5b828201905092915050565b6000612637826126ad565b9150612642836126ad565b925082612652576126516127d4565b5b828204905092915050565b60006126688261268d565b9050919050565b600061267a8261268d565b9050919050565b60008115159050919050565b600073ffffffffffffffffffffffffffffffffffffffff82169050919050565b6000819050919050565b82818337600083830152505050565b60005b838110156126e45780820151818401526020810190506126c9565b838111156126f3576000848401525b50505050565b6000600282049050600182168061271157607f821691505b6020821081141561272557612724612803565b5b50919050565b61273482612875565b810181811067ffffffffffffffff8211171561275357612752612832565b5b80604052505050565b6000612767826126ad565b91507fffffffffffffffffffffffffffffffffffffffffffffffffffffffffffffffff82141561279a576127996127a5565b5b600182019050919050565b7f4e487b7100000000000000000000000000000000000000000000000000000000600052601160045260246000fd5b7f4e487b7100000000000000000000000000000000000000000000000000000000600052601260045260246000fd5b7f4e487b7100000000000000000000000000000000000000000000000000000000600052602260045260246000fd5b7f4e487b7100000000000000000000000000000000000000000000000000000000600052604160045260246000fd5b600080fd5b600080fd5b600080fd5b600080fd5b6000601f19601f8301169050919050565b7f596f752068617665206e6f7420636f6e747269627574656420746f207468652060008201527f63616d706169676e2c2063616e6e6f7420726566756e64210000000000000000602082015250565b7f41646d696e2063616e6e6f742063617374206120766f74652120000000000000600082015250565b7f205468652063616d706169676e20636f6e747269627574696f6e20646561646c60008201527f696e6520656e6465642100000000000000000000000000000000000000000000602082015250565b7f5468652063616d706169676e2072616973656420616d6f756e7420686173206260008201527f65656e20726561636865642c2063616e6e6f7420726566756e64210000000000602082015250565b7f596f7572206164647265737320646f6573204e4f54206861766520616e79207460008201527f6f6b656e732c206e6f20766f74696e6720726967687473210000000000000000602082015250565b7f4d696e696d756d20636f6e747269627574696f6e206e6f74206d657421000000600082015250565b7f5468652066756e64696e672066756e647320676f616c20686173206e6f74206260008201527f65656e2072656163686564210000000000000000000000000000000000000000602082015250565b7f596f75206861766520616c6c726561647920766f74656420666f72207468697360008201527f207370656e64696e672072657175657374210000000000000000000000000000602082015250565b7f546865207265717565737420686173206e6f74207265636569766564206d6f7260008201527f65207468616e2068616c66206f6620766f746573210000000000000000000000602082015250565b7f4e6f7420656e6f7567682066756e64732072616973656420666f72207468697360008201527f207265717565737465642070726f706f73616c21000000000000000000000000602082015250565b7f5472616e7366657220746f206f776e6572206f662074686520636f757273652060008201527f6661696c65640000000000000000000000000000000000000000000000000000602082015250565b50565b7f4f6e6c792061646d696e21000000000000000000000000000000000000000000600082015250565b612bd48161265d565b8114612bdf57600080fd5b50565b612beb8161266f565b8114612bf657600080fd5b50565b612c0281612681565b8114612c0d57600080fd5b50565b612c19816126ad565b8114612c2457600080fd5b5056fea2646970667358221220b7ef94f87d625d7ffd3f9cd45480f212587107fd90a49818f93cc32aba8e0c0f64736f6c6343000807003360806040523480156200001157600080fd5b5060405162001de938038062001de9833981810160405281019062000037919062000641565b6040518060400160405280600881526020017f64616f546f6b656e0000000000000000000000000000000000000000000000008152506040518060400160405280600481526020017f44414f54000000000000000000000000000000000000000000000000000000008152508160039080519060200190620000bb92919062000563565b508060049080519060200190620000d492919062000563565b50505060003090506200010330670de0b6b3a764000085620000f7919062000880565b6200014260201b60201c565b6200013981836003670de0b6b3a76400008762000121919062000880565b6200012d919062000848565b620002bb60201b60201c565b50505062000b31565b600073ffffffffffffffffffffffffffffffffffffffff168273ffffffffffffffffffffffffffffffffffffffff161415620001b5576040517f08c379a0000000000000000000000000000000000000000000000000000000008152600401620001ac906200079b565b60405180910390fd5b620001c9600083836200055960201b60201c565b8060026000828254620001dd9190620007eb565b92505081905550806000808473ffffffffffffffffffffffffffffffffffffffff1673ffffffffffffffffffffffffffffffffffffffff1681526020019081526020016000206000828254620002349190620007eb565b925050819055508173ffffffffffffffffffffffffffffffffffffffff16600073ffffffffffffffffffffffffffffffffffffffff167fddf252ad1be2c89b69c2b068fc378daa952ba7f163c4a11628f55a4df523b3ef836040516200029b9190620007bd565b60405180910390a3620002b7600083836200055e60201b60201c565b5050565b600073ffffffffffffffffffffffffffffffffffffffff168373ffffffffffffffffffffffffffffffffffffffff1614156200032e576040517f08c379a0000000000000000000000000000000000000000000000000000000008152600401620003259062000779565b60405180910390fd5b600073ffffffffffffffffffffffffffffffffffffffff168273ffffffffffffffffffffffffffffffffffffffff161415620003a1576040517f08c379a0000000000000000000000000000000000000000000000000000000008152600401620003989062000735565b60405180910390fd5b620003b48383836200055960201b60201c565b60008060008573ffffffffffffffffffffffffffffffffffffffff1673ffffffffffffffffffffffffffffffffffffffff168152602001908152602001600020549050818110156200043d576040517f08c379a0000000000000000000000000000000000000000000000000000000008152600401620004349062000757565b60405180910390fd5b8181036000808673ffffffffffffffffffffffffffffffffffffffff1673ffffffffffffffffffffffffffffffffffffffff16815260200190815260200160002081905550816000808573ffffffffffffffffffffffffffffffffffffffff1673ffffffffffffffffffffffffffffffffffffffff1681526020019081526020016000206000828254620004d29190620007eb565b925050819055508273ffffffffffffffffffffffffffffffffffffffff168473ffffffffffffffffffffffffffffffffffffffff167fddf252ad1be2c89b69c2b068fc378daa952ba7f163c4a11628f55a4df523b3ef84604051620005389190620007bd565b60405180910390a3620005538484846200055e60201b60201c565b50505050565b505050565b505050565b82805462000571906200091f565b90600052602060002090601f016020900481019282620005955760008555620005e1565b82601f10620005b057805160ff1916838001178555620005e1565b82800160010185558215620005e1579182015b82811115620005e0578251825591602001919060010190620005c3565b5b509050620005f09190620005f4565b5090565b5b808211156200060f576000816000905550600101620005f5565b5090565b600081519050620006248162000afd565b92915050565b6000815190506200063b8162000b17565b92915050565b600080604083850312156200065b576200065a620009e2565b5b60006200066b858286016200062a565b92505060206200067e8582860162000613565b9150509250929050565b600062000697602383620007da565b9150620006a482620009e7565b604082019050919050565b6000620006be602683620007da565b9150620006cb8262000a36565b604082019050919050565b6000620006e5602583620007da565b9150620006f28262000a85565b604082019050919050565b60006200070c601f83620007da565b9150620007198262000ad4565b602082019050919050565b6200072f8162000915565b82525050565b60006020820190508181036000830152620007508162000688565b9050919050565b600060208201905081810360008301526200077281620006af565b9050919050565b600060208201905081810360008301526200079481620006d6565b9050919050565b60006020820190508181036000830152620007b681620006fd565b9050919050565b6000602082019050620007d4600083018462000724565b92915050565b600082825260208201905092915050565b6000620007f88262000915565b9150620008058362000915565b9250827fffffffffffffffffffffffffffffffffffffffffffffffffffffffffffffffff038211156200083d576200083c62000955565b5b828201905092915050565b6000620008558262000915565b9150620008628362000915565b92508262000875576200087462000984565b5b828204905092915050565b60006200088d8262000915565b91506200089a8362000915565b9250817fffffffffffffffffffffffffffffffffffffffffffffffffffffffffffffffff0483118215151615620008d657620008d562000955565b5b828202905092915050565b6000620008ee82620008f5565b9050919050565b600073ffffffffffffffffffffffffffffffffffffffff82169050919050565b6000819050919050565b600060028204905060018216806200093857607f821691505b602082108114156200094f576200094e620009b3565b5b50919050565b7f4e487b7100000000000000000000000000000000000000000000000000000000600052601160045260246000fd5b7f4e487b7100000000000000000000000000000000000000000000000000000000600052601260045260246000fd5b7f4e487b7100000000000000000000000000000000000000000000000000000000600052602260045260246000fd5b600080fd5b7f45524332303a207472616e7366657220746f20746865207a65726f206164647260008201527f6573730000000000000000000000000000000000000000000000000000000000602082015250565b7f45524332303a207472616e7366657220616d6f756e742065786365656473206260008201527f616c616e63650000000000000000000000000000000000000000000000000000602082015250565b7f45524332303a207472616e736665722066726f6d20746865207a65726f20616460008201527f6472657373000000000000000000000000000000000000000000000000000000602082015250565b7f45524332303a206d696e7420746f20746865207a65726f206164647265737300600082015250565b62000b0881620008e1565b811462000b1457600080fd5b50565b62000b228162000915565b811462000b2e57600080fd5b50565b6112a88062000b416000396000f3fe608060405234801561001057600080fd5b50600436106100a95760003560e01c80633950935111610071578063395093511461016857806370a082311461019857806395d89b41146101c8578063a457c2d7146101e6578063a9059cbb14610216578063dd62ed3e14610246576100a9565b806306fdde03146100ae578063095ea7b3146100cc57806318160ddd146100fc57806323b872dd1461011a578063313ce5671461014a575b600080fd5b6100b6610276565b6040516100c39190610d58565b60405180910390f35b6100e660048036038101906100e19190610bc5565b610308565b6040516100f39190610d3d565b60405180910390f35b610104610324565b6040516101119190610e3a565b60405180910390f35b610134600480360381019061012f9190610b72565b61032e565b6040516101419190610d3d565b60405180910390f35b61015261035c565b60405161015f9190610e55565b60405180910390f35b610182600480360381019061017d9190610bc5565b610365565b60405161018f9190610d3d565b60405180910390f35b6101b260048036038101906101ad9190610b05565b61040f565b6040516101bf9190610e3a565b60405180910390f35b6101d0610457565b6040516101dd9190610d58565b60405180910390f35b61020060048036038101906101fb9190610bc5565b6104e9565b60405161020d9190610d3d565b60405180910390f35b610230600480360381019061022b9190610bc5565b6105d3565b60405161023d9190610d3d565b60405180910390f35b610260600480360381019061025b9190610b32565b6105f6565b60405161026d9190610e3a565b60405180910390f35b60606003805461028590610fc4565b80601f01602080910402602001604051908101604052809291908181526020018280546102b190610fc4565b80156102fe5780601f106102d3576101008083540402835291602001916102fe565b820191906000526020600020905b8154815290600101906020018083116102e157829003601f168201915b5050505050905090565b60008030905061031981858561067d565b600191505092915050565b6000600254905090565b60003093506103518484670de0b6b3a76400008561034c9190610ee2565b610848565b600190509392505050565b60006012905090565b600080610370610ac9565b9050610404818585600160008673ffffffffffffffffffffffffffffffffffffffff1673ffffffffffffffffffffffffffffffffffffffff16815260200190815260200160002060008973ffffffffffffffffffffffffffffffffffffffff1673ffffffffffffffffffffffffffffffffffffffff168152602001908152602001600020546103ff9190610e8c565b61067d565b600191505092915050565b60008060008373ffffffffffffffffffffffffffffffffffffffff1673ffffffffffffffffffffffffffffffffffffffff168152602001908152602001600020549050919050565b60606004805461046690610fc4565b80601f016020809104026020016040519081016040528092919081815260200182805461049290610fc4565b80156104df5780601f106104b4576101008083540402835291602001916104df565b820191906000526020600020905b8154815290600101906020018083116104c257829003601f168201915b5050505050905090565b6000806104f4610ac9565b90506000600160008373ffffffffffffffffffffffffffffffffffffffff1673ffffffffffffffffffffffffffffffffffffffff16815260200190815260200160002060008673ffffffffffffffffffffffffffffffffffffffff1673ffffffffffffffffffffffffffffffffffffffff168152602001908152602001600020549050838110156105ba576040517f08c379a00000000000000000000000000000000000000000000000000000000081526004016105b190610e1a565b60405180910390fd5b6105c7828686840361067d565b60019250505092915050565b6000806105de610ac9565b90506105eb818585610848565b600191505092915050565b6000600160008473ffffffffffffffffffffffffffffffffffffffff1673ffffffffffffffffffffffffffffffffffffffff16815260200190815260200160002060008373ffffffffffffffffffffffffffffffffffffffff1673ffffffffffffffffffffffffffffffffffffffff16815260200190815260200160002054905092915050565b600073ffffffffffffffffffffffffffffffffffffffff168373ffffffffffffffffffffffffffffffffffffffff1614156106ed576040517f08c379a00000000000000000000000000000000000000000000000000000000081526004016106e490610dfa565b60405180910390fd5b600073ffffffffffffffffffffffffffffffffffffffff168273ffffffffffffffffffffffffffffffffffffffff16141561075d576040517f08c379a000000000000000000000000000000000000000000000000000000000815260040161075490610d9a565b60405180910390fd5b80600160008573ffffffffffffffffffffffffffffffffffffffff1673ffffffffffffffffffffffffffffffffffffffff16815260200190815260200160002060008473ffffffffffffffffffffffffffffffffffffffff1673ffffffffffffffffffffffffffffffffffffffff168152602001908152602001600020819055508173ffffffffffffffffffffffffffffffffffffffff168373ffffffffffffffffffffffffffffffffffffffff167f8c5be1e5ebec7d5bd14f71427d1e84f3dd0314c0f7b2291e5b200ac8c7c3b9258360405161083b9190610e3a565b60405180910390a3505050565b600073ffffffffffffffffffffffffffffffffffffffff168373ffffffffffffffffffffffffffffffffffffffff1614156108b8576040517f08c379a00000000000000000000000000000000000000000000000000000000081526004016108af90610dda565b60405180910390fd5b600073ffffffffffffffffffffffffffffffffffffffff168273ffffffffffffffffffffffffffffffffffffffff161415610928576040517f08c379a000000000000000000000000000000000000000000000000000000000815260040161091f90610d7a565b60405180910390fd5b610933838383610ad1565b60008060008573ffffffffffffffffffffffffffffffffffffffff1673ffffffffffffffffffffffffffffffffffffffff168152602001908152602001600020549050818110156109b9576040517f08c379a00000000000000000000000000000000000000000000000000000000081526004016109b090610dba565b60405180910390fd5b8181036000808673ffffffffffffffffffffffffffffffffffffffff1673ffffffffffffffffffffffffffffffffffffffff16815260200190815260200160002081905550816000808573ffffffffffffffffffffffffffffffffffffffff1673ffffffffffffffffffffffffffffffffffffffff1681526020019081526020016000206000828254610a4c9190610e8c565b925050819055508273ffffffffffffffffffffffffffffffffffffffff168473ffffffffffffffffffffffffffffffffffffffff167fddf252ad1be2c89b69c2b068fc378daa952ba7f163c4a11628f55a4df523b3ef84604051610ab09190610e3a565b60405180910390a3610ac3848484610ad6565b50505050565b600033905090565b505050565b505050565b600081359050610aea81611244565b92915050565b600081359050610aff8161125b565b92915050565b600060208284031215610b1b57610b1a611054565b5b6000610b2984828501610adb565b91505092915050565b60008060408385031215610b4957610b48611054565b5b6000610b5785828601610adb565b9250506020610b6885828601610adb565b9150509250929050565b600080600060608486031215610b8b57610b8a611054565b5b6000610b9986828701610adb565b9350506020610baa86828701610adb565b9250506040610bbb86828701610af0565b9150509250925092565b60008060408385031215610bdc57610bdb611054565b5b6000610bea85828601610adb565b9250506020610bfb85828601610af0565b9150509250929050565b610c0e81610f4e565b82525050565b6000610c1f82610e70565b610c298185610e7b565b9350610c39818560208601610f91565b610c4281611059565b840191505092915050565b6000610c5a602383610e7b565b9150610c658261106a565b604082019050919050565b6000610c7d602283610e7b565b9150610c88826110b9565b604082019050919050565b6000610ca0602683610e7b565b9150610cab82611108565b604082019050919050565b6000610cc3602583610e7b565b9150610cce82611157565b604082019050919050565b6000610ce6602483610e7b565b9150610cf1826111a6565b604082019050919050565b6000610d09602583610e7b565b9150610d14826111f5565b604082019050919050565b610d2881610f7a565b82525050565b610d3781610f84565b82525050565b6000602082019050610d526000830184610c05565b92915050565b60006020820190508181036000830152610d728184610c14565b905092915050565b60006020820190508181036000830152610d9381610c4d565b9050919050565b60006020820190508181036000830152610db381610c70565b9050919050565b60006020820190508181036000830152610dd381610c93565b9050919050565b60006020820190508181036000830152610df381610cb6565b9050919050565b60006020820190508181036000830152610e1381610cd9565b9050919050565b60006020820190508181036000830152610e3381610cfc565b9050919050565b6000602082019050610e4f6000830184610d1f565b92915050565b6000602082019050610e6a6000830184610d2e565b92915050565b600081519050919050565b600082825260208201905092915050565b6000610e9782610f7a565b9150610ea283610f7a565b9250827fffffffffffffffffffffffffffffffffffffffffffffffffffffffffffffffff03821115610ed757610ed6610ff6565b5b828201905092915050565b6000610eed82610f7a565b9150610ef883610f7a565b9250817fffffffffffffffffffffffffffffffffffffffffffffffffffffffffffffffff0483118215151615610f3157610f30610ff6565b5b828202905092915050565b6000610f4782610f5a565b9050919050565b60008115159050919050565b600073ffffffffffffffffffffffffffffffffffffffff82169050919050565b6000819050919050565b600060ff82169050919050565b60005b83811015610faf578082015181840152602081019050610f94565b83811115610fbe576000848401525b50505050565b60006002820490506001821680610fdc57607f821691505b60208210811415610ff057610fef611025565b5b50919050565b7f4e487b7100000000000000000000000000000000000000000000000000000000600052601160045260246000fd5b7f4e487b7100000000000000000000000000000000000000000000000000000000600052602260045260246000fd5b600080fd5b6000601f19601f8301169050919050565b7f45524332303a207472616e7366657220746f20746865207a65726f206164647260008201527f6573730000000000000000000000000000000000000000000000000000000000602082015250565b7f45524332303a20617070726f766520746f20746865207a65726f20616464726560008201527f7373000000000000000000000000000000000000000000000000000000000000602082015250565b7f45524332303a207472616e7366657220616d6f756e742065786365656473206260008201527f616c616e63650000000000000000000000000000000000000000000000000000602082015250565b7f45524332303a207472616e736665722066726f6d20746865207a65726f20616460008201527f6472657373000000000000000000000000000000000000000000000000000000602082015250565b7f45524332303a20617070726f76652066726f6d20746865207a65726f2061646460008201527f7265737300000000000000000000000000000000000000000000000000000000602082015250565b7f45524332303a2064656372656173656420616c6c6f77616e63652062656c6f7760008201527f207a65726f000000000000000000000000000000000000000000000000000000602082015250565b61124d81610f3c565b811461125857600080fd5b50565b61126481610f7a565b811461126f57600080fd5b5056fea264697066735822122054633abc94379696134515e003154b9271a46950d39cc02b4985d1e6abec057464736f6c63430008070033",
  "immutableReferences": {},
  "source": "// SPDX-License-Identifier: MIT\r\npragma solidity 0.8.7;\r\n\r\npragma experimental ABIEncoderV2;\r\nimport \"./DAOT.sol\";\r\n\r\ncontract CrowdFunding {\r\n    address public admin;\r\n    uint256 public noOfContributors;\r\n    uint256 public goal;\r\n    uint256 public deadline;\r\n    uint256 public minContribution;\r\n    uint256 public raisedAmount;\r\n    uint256 public id;\r\n    uint256 public totalDestributedTokens;\r\n    uint256 public tokenTransferAmount;\r\n\r\n    DAOT daot = new DAOT(100000000, msg.sender);\r\n\r\n    struct Request {\r\n        uint256 id;\r\n        string title;\r\n        string description;\r\n        uint256 value;\r\n        address payable recipient;\r\n        bool completed;\r\n        uint256 noOfVotes;\r\n        mapping(address => bool) voters;\r\n    }\r\n\r\n    mapping(address => uint256) public contributors;\r\n    mapping(uint256 => Request) public spendingRequests;\r\n    mapping(address => bool) public voted;\r\n    mapping(address => uint256) public contributorsVoteWeight;\r\n\r\n    constructor(\r\n        uint256 _deadline,\r\n        uint256 _goal,\r\n        uint256 _minContribution\r\n    ) {\r\n        minContribution = _minContribution;\r\n        deadline = block.timestamp + _deadline;\r\n        goal = _goal;\r\n        admin = msg.sender;\r\n    }\r\n\r\n    function contribute() external payable {\r\n        require(\r\n            deadline > block.timestamp,\r\n            \" The campaign contribution deadline ended!\"\r\n        );\r\n        require(msg.value >= minContribution, \"Minimum contribution not met!\");\r\n        if (contributors[msg.sender] == 0) {\r\n            noOfContributors++;\r\n        }\r\n        tokenTransferAmount = msg.value / 10**11;\r\n        contributors[msg.sender] += msg.value;\r\n        raisedAmount += msg.value;\r\n        // 1 token = 0,00000001 % of total supply\r\n        // 100 tokens = 0,000001 % of total supply\r\n\r\n        // 100000000000000 wei = 0,00001 eth/0,03USD  = 1000 TOKEN\r\n        // 200000000000000 wei = 0,00002 eth/0,06USD  = 2000 TOKEN\r\n        // 11000000000000000 wei = 0,01 eth/30USD = 110000 TOKENs\r\n\r\n        totalDestributedTokens += msg.value / 10**11;\r\n\r\n        daot.approve(msg.sender, tokenTransferAmount);\r\n        _transferTokens(tokenTransferAmount);\r\n    }\r\n\r\n    function _transferTokens(uint256 _amount) private {\r\n        daot.transferFrom(address(daot), msg.sender, _amount);\r\n    }\r\n\r\n    function getRefund() external payable {\r\n        require(\r\n            deadline < block.timestamp && raisedAmount < goal,\r\n            \"The campaign raised amount has been reached, cannot refund!\"\r\n        );\r\n\r\n        require(\r\n            contributors[msg.sender] > 0,\r\n            \"You have not contributed to the campaign, cannot refund!\"\r\n        );\r\n        address payable recipient = payable(msg.sender);\r\n        uint256 value = contributors[msg.sender];\r\n        contributors[msg.sender] = 0;\r\n\r\n        (bool success, ) = recipient.call{value: value}(\"\");\r\n        require(success, \"Transfer to owner of the course failed\");\r\n    }\r\n\r\n    function spendingRequest(\r\n        string memory _title,\r\n        string memory _description,\r\n        address payable _recipient,\r\n        uint256 _value\r\n    ) external onlyOwner {\r\n        require(\r\n            raisedAmount >= _value,\r\n            \"Not enough funds raised for this requested proposal!\"\r\n        );\r\n\r\n        Request storage newRequest = spendingRequests[id];\r\n        newRequest.id = id;\r\n        newRequest.description = _description;\r\n        newRequest.title = _title;\r\n        newRequest.recipient = _recipient;\r\n        newRequest.value = _value;\r\n        newRequest.noOfVotes = 0;\r\n\r\n        id++;\r\n    }\r\n\r\n    function vote(uint256 _id) external tokenOwnerRights {\r\n        Request storage request = spendingRequests[_id];\r\n        require(msg.sender != admin, \"Admin cannot cast a vote! \");\r\n        require(\r\n            request.voters[msg.sender] == false,\r\n            \"You have allready voted for this spending request!\"\r\n        );\r\n\r\n        uint256 voteWeight = _balanceOfDaotAddr(msg.sender);\r\n        request.noOfVotes += voteWeight;\r\n\r\n        request.voters[msg.sender] = true;\r\n\r\n        voted[msg.sender] = true;\r\n    }\r\n\r\n    function transferRequestFunds(uint256 _id)\r\n        external\r\n        payable\r\n        onlyOwner\r\n        requestApproved(_id)\r\n    {\r\n        require(\r\n            raisedAmount >= goal,\r\n            \"The funding funds goal has not been reached!\"\r\n        );\r\n        Request storage request = spendingRequests[_id];\r\n        request.completed = true;\r\n\r\n        (bool success, ) = request.recipient.call{value: request.value}(\"\");\r\n        require(success, \"Transfer to owner of the course failed\");\r\n    }\r\n    function transferOwnership(address _newAdmin) external onlyOwner {\r\n        admin = _newAdmin;\r\n    }\r\n\r\n    //---------------------------------------------helper functions------------------------------------\r\n\r\n    function tokenHolderAddress() public view returns(address){\r\n\r\n\r\n        return address(daot);\r\n    }\r\n    \r\n    \r\n    function totalSupply() public view returns (uint256) {\r\n        return daot.totalSupply() / 10**18;\r\n    }\r\n\r\n    function _balanceOfDaotAddr(address _account)\r\n        private\r\n        view\r\n        returns (uint256)\r\n    {\r\n        return daot.balanceOf(_account) / 10**18;\r\n    }\r\n\r\n    function balanceOfDaotAddr(address _account) public view returns (uint256) {\r\n        return daot.balanceOf(_account) / 10**18;\r\n    }\r\n\r\n    function allowance(address _owner, address _spender)\r\n        public\r\n        view\r\n        returns (uint256)\r\n    {\r\n        return daot.allowance(_owner, _spender);\r\n    }\r\n\r\n    function hasVoted(address _voter) external view returns (bool) {\r\n        return voted[_voter];\r\n    }\r\n\r\n    function votedForSpendingRequest(uint256 _id) external view returns (bool) {\r\n        Request storage r = spendingRequests[_id];\r\n\r\n        return r.voters[msg.sender];\r\n    }\r\n\r\n    function deadline_() external view returns (bool) {\r\n        bool isDeadline = false;\r\n\r\n        if (deadline < block.timestamp) {\r\n            isDeadline = true;\r\n        }\r\n\r\n        return isDeadline;\r\n    }\r\n\r\n    function getSpendingRequest(uint256 _id)\r\n        public\r\n        view\r\n        returns (\r\n            uint256,\r\n            string memory,\r\n            string memory,\r\n            uint256,\r\n            address,\r\n            uint256,\r\n            bool\r\n        )\r\n    {\r\n        Request storage r = spendingRequests[_id];\r\n\r\n        return (\r\n            r.id,\r\n            r.title,\r\n            r.description,\r\n            r.value,\r\n            r.recipient,\r\n            r.noOfVotes,\r\n            r.completed\r\n        );\r\n    }\r\n\r\n    function raisedAmount_() external view returns (bool) {\r\n        bool isRaised = false;\r\n\r\n        if (raisedAmount >= goal) {\r\n            isRaised = true;\r\n        }\r\n\r\n        return isRaised;\r\n    }\r\n\r\n    function noOfVoters_(uint256 _id) external view returns (bool) {\r\n        bool enoughVotes = false;\r\n        Request storage request = spendingRequests[_id];\r\n        if (request.noOfVotes > totalDestributedTokens / 2) {\r\n            enoughVotes = true;\r\n        }\r\n\r\n        return enoughVotes;\r\n    }\r\n\r\n    function goal_() external view returns (uint256) {\r\n        return goal;\r\n    }\r\n\r\n    function getTotalDistrubitedTokens() public view returns (uint256) {\r\n        return totalDestributedTokens;\r\n    }\r\n\r\n    function completedRequests(uint256 _id) external view returns (bool) {\r\n        Request storage request = spendingRequests[_id];\r\n\r\n        return (request.completed);\r\n    }\r\n\r\n    //-----------------------modifiers------------------------------------------------------\r\n    modifier requestApproved(uint256 _id) {\r\n        Request storage request = spendingRequests[_id];\r\n        require(\r\n            request.noOfVotes > totalDestributedTokens / 2,\r\n            \"The request has not received more than half of votes!\"\r\n        );\r\n        _;\r\n    }\r\n\r\n    modifier tokenOwnerRights() {\r\n        require(\r\n            balanceOfDaotAddr(msg.sender) > 0,\r\n            \"Your address does NOT have any tokens, no voting rights!\"\r\n        );\r\n        _;\r\n    }\r\n\r\n    modifier onlyOwner() {\r\n        require(msg.sender == admin, \"Only admin!\");\r\n        _;\r\n    }\r\n}\r\n",
  "sourcePath": "C:\\Udemy -Complete DApp blockchain development\\daodapp_nextjs\\contracts\\Crowdfunding.sol",
  "compiler": {
    "name": "solc",
    "version": "0.8.7+commit.e28d00a7.Emscripten.clang"
  },
  "schemaVersion": "3.4.4",
  "updatedAt": "2022-02-16T16:22:00.243Z",
  "devdoc": {
    "kind": "dev",
    "methods": {},
    "version": 1
  },
  "userdoc": {
    "kind": "user",
    "methods": {},
    "version": 1
  }
}