{
  "contractName": "CrowdFunding",
  "abi": [
    {
      "inputs": [
        {
          "internalType": "uint256",
          "name": "_deadline",
          "type": "uint256"
        },
        {
          "internalType": "uint256",
          "name": "_goal",
          "type": "uint256"
        },
        {
          "internalType": "uint256",
          "name": "_minContribution",
          "type": "uint256"
        }
      ],
      "stateMutability": "nonpayable",
      "type": "constructor"
    },
    {
      "inputs": [],
      "name": "admin",
      "outputs": [
        {
          "internalType": "address",
          "name": "",
          "type": "address"
        }
      ],
      "stateMutability": "view",
      "type": "function",
      "constant": true
    },
    {
      "inputs": [
        {
          "internalType": "address",
          "name": "",
          "type": "address"
        }
      ],
      "name": "contributors",
      "outputs": [
        {
          "internalType": "uint256",
          "name": "",
          "type": "uint256"
        }
      ],
      "stateMutability": "view",
      "type": "function",
      "constant": true
    },
    {
      "inputs": [
        {
          "internalType": "address",
          "name": "",
          "type": "address"
        }
      ],
      "name": "contributorsVoteWeight",
      "outputs": [
        {
          "internalType": "uint256",
          "name": "",
          "type": "uint256"
        }
      ],
      "stateMutability": "view",
      "type": "function",
      "constant": true
    },
    {
      "inputs": [],
      "name": "deadline",
      "outputs": [
        {
          "internalType": "uint256",
          "name": "",
          "type": "uint256"
        }
      ],
      "stateMutability": "view",
      "type": "function",
      "constant": true
    },
    {
      "inputs": [],
      "name": "goal",
      "outputs": [
        {
          "internalType": "uint256",
          "name": "",
          "type": "uint256"
        }
      ],
      "stateMutability": "view",
      "type": "function",
      "constant": true
    },
    {
      "inputs": [],
      "name": "id",
      "outputs": [
        {
          "internalType": "uint256",
          "name": "",
          "type": "uint256"
        }
      ],
      "stateMutability": "view",
      "type": "function",
      "constant": true
    },
    {
      "inputs": [],
      "name": "minContribution",
      "outputs": [
        {
          "internalType": "uint256",
          "name": "",
          "type": "uint256"
        }
      ],
      "stateMutability": "view",
      "type": "function",
      "constant": true
    },
    {
      "inputs": [],
      "name": "noOfContributors",
      "outputs": [
        {
          "internalType": "uint256",
          "name": "",
          "type": "uint256"
        }
      ],
      "stateMutability": "view",
      "type": "function",
      "constant": true
    },
    {
      "inputs": [],
      "name": "raisedAmount",
      "outputs": [
        {
          "internalType": "uint256",
          "name": "",
          "type": "uint256"
        }
      ],
      "stateMutability": "view",
      "type": "function",
      "constant": true
    },
    {
      "inputs": [
        {
          "internalType": "uint256",
          "name": "",
          "type": "uint256"
        }
      ],
      "name": "spendingRequests",
      "outputs": [
        {
          "internalType": "uint256",
          "name": "id",
          "type": "uint256"
        },
        {
          "internalType": "string",
          "name": "title",
          "type": "string"
        },
        {
          "internalType": "string",
          "name": "description",
          "type": "string"
        },
        {
          "internalType": "uint256",
          "name": "value",
          "type": "uint256"
        },
        {
          "internalType": "address payable",
          "name": "recipient",
          "type": "address"
        },
        {
          "internalType": "bool",
          "name": "completed",
          "type": "bool"
        },
        {
          "internalType": "uint256",
          "name": "noOfVotes",
          "type": "uint256"
        }
      ],
      "stateMutability": "view",
      "type": "function",
      "constant": true
    },
    {
      "inputs": [],
      "name": "tokenTransferAmount",
      "outputs": [
        {
          "internalType": "uint256",
          "name": "",
          "type": "uint256"
        }
      ],
      "stateMutability": "view",
      "type": "function",
      "constant": true
    },
    {
      "inputs": [],
      "name": "totalDestributedTokens",
      "outputs": [
        {
          "internalType": "uint256",
          "name": "",
          "type": "uint256"
        }
      ],
      "stateMutability": "view",
      "type": "function",
      "constant": true
    },
    {
      "inputs": [
        {
          "internalType": "uint256",
          "name": "",
          "type": "uint256"
        },
        {
          "internalType": "address",
          "name": "",
          "type": "address"
        }
      ],
      "name": "voted",
      "outputs": [
        {
          "internalType": "bool",
          "name": "",
          "type": "bool"
        }
      ],
      "stateMutability": "view",
      "type": "function",
      "constant": true
    },
    {
      "inputs": [],
      "name": "contribute",
      "outputs": [],
      "stateMutability": "payable",
      "type": "function",
      "payable": true
    },
    {
      "inputs": [],
      "name": "getRefund",
      "outputs": [],
      "stateMutability": "payable",
      "type": "function",
      "payable": true
    },
    {
      "inputs": [
        {
          "internalType": "string",
          "name": "_title",
          "type": "string"
        },
        {
          "internalType": "string",
          "name": "_description",
          "type": "string"
        },
        {
          "internalType": "address payable",
          "name": "_recipient",
          "type": "address"
        },
        {
          "internalType": "uint256",
          "name": "_value",
          "type": "uint256"
        }
      ],
      "name": "spendingRequest",
      "outputs": [],
      "stateMutability": "nonpayable",
      "type": "function"
    },
    {
      "inputs": [
        {
          "internalType": "uint256",
          "name": "_id",
          "type": "uint256"
        }
      ],
      "name": "vote",
      "outputs": [],
      "stateMutability": "nonpayable",
      "type": "function"
    },
    {
      "inputs": [
        {
          "internalType": "uint256",
          "name": "_id",
          "type": "uint256"
        }
      ],
      "name": "transferRequestFunds",
      "outputs": [],
      "stateMutability": "payable",
      "type": "function",
      "payable": true
    },
    {
      "inputs": [
        {
          "internalType": "address",
          "name": "_newAdmin",
          "type": "address"
        }
      ],
      "name": "transferOwnership",
      "outputs": [],
      "stateMutability": "nonpayable",
      "type": "function"
    },
    {
      "inputs": [],
      "name": "tokenHolderAddress",
      "outputs": [
        {
          "internalType": "address",
          "name": "",
          "type": "address"
        }
      ],
      "stateMutability": "view",
      "type": "function",
      "constant": true
    },
    {
      "inputs": [],
      "name": "totalSupply",
      "outputs": [
        {
          "internalType": "uint256",
          "name": "",
          "type": "uint256"
        }
      ],
      "stateMutability": "view",
      "type": "function",
      "constant": true
    },
    {
      "inputs": [
        {
          "internalType": "address",
          "name": "_account",
          "type": "address"
        }
      ],
      "name": "balanceOfDaotAddr",
      "outputs": [
        {
          "internalType": "uint256",
          "name": "",
          "type": "uint256"
        }
      ],
      "stateMutability": "view",
      "type": "function",
      "constant": true
    },
    {
      "inputs": [
        {
          "internalType": "address",
          "name": "_owner",
          "type": "address"
        },
        {
          "internalType": "address",
          "name": "_spender",
          "type": "address"
        }
      ],
      "name": "allowance",
      "outputs": [
        {
          "internalType": "uint256",
          "name": "",
          "type": "uint256"
        }
      ],
      "stateMutability": "view",
      "type": "function",
      "constant": true
    },
    {
      "inputs": [
        {
          "internalType": "uint256",
          "name": "_id",
          "type": "uint256"
        }
      ],
      "name": "votedForSpendingRequest",
      "outputs": [
        {
          "internalType": "bool",
          "name": "",
          "type": "bool"
        }
      ],
      "stateMutability": "view",
      "type": "function",
      "constant": true
    },
    {
      "inputs": [],
      "name": "deadline_",
      "outputs": [
        {
          "internalType": "bool",
          "name": "",
          "type": "bool"
        }
      ],
      "stateMutability": "view",
      "type": "function",
      "constant": true
    },
    {
      "inputs": [
        {
          "internalType": "uint256",
          "name": "_id",
          "type": "uint256"
        }
      ],
      "name": "getSpendingRequest",
      "outputs": [
        {
          "internalType": "uint256",
          "name": "",
          "type": "uint256"
        },
        {
          "internalType": "string",
          "name": "",
          "type": "string"
        },
        {
          "internalType": "string",
          "name": "",
          "type": "string"
        },
        {
          "internalType": "uint256",
          "name": "",
          "type": "uint256"
        },
        {
          "internalType": "address",
          "name": "",
          "type": "address"
        },
        {
          "internalType": "uint256",
          "name": "",
          "type": "uint256"
        },
        {
          "internalType": "bool",
          "name": "",
          "type": "bool"
        }
      ],
      "stateMutability": "view",
      "type": "function",
      "constant": true
    },
    {
      "inputs": [],
      "name": "raisedAmount_",
      "outputs": [
        {
          "internalType": "bool",
          "name": "",
          "type": "bool"
        }
      ],
      "stateMutability": "view",
      "type": "function",
      "constant": true
    },
    {
      "inputs": [
        {
          "internalType": "uint256",
          "name": "_id",
          "type": "uint256"
        }
      ],
      "name": "noOfVoters_",
      "outputs": [
        {
          "internalType": "bool",
          "name": "",
          "type": "bool"
        }
      ],
      "stateMutability": "view",
      "type": "function",
      "constant": true
    },
    {
      "inputs": [],
      "name": "goal_",
      "outputs": [
        {
          "internalType": "uint256",
          "name": "",
          "type": "uint256"
        }
      ],
      "stateMutability": "view",
      "type": "function",
      "constant": true
    },
    {
      "inputs": [],
      "name": "getTotalDistrubitedTokens",
      "outputs": [
        {
          "internalType": "uint256",
          "name": "",
          "type": "uint256"
        }
      ],
      "stateMutability": "view",
      "type": "function",
      "constant": true
    },
    {
      "inputs": [
        {
          "internalType": "uint256",
          "name": "_id",
          "type": "uint256"
        }
      ],
      "name": "completedRequests",
      "outputs": [
        {
          "internalType": "bool",
          "name": "",
          "type": "bool"
        }
      ],
      "stateMutability": "view",
      "type": "function",
      "constant": true
    }
  ],
  "bytecode": "0x60806040526305f5e10033604051620000189062000121565b62000025929190620001c4565b604051809103906000f08015801562000042573d6000803e3d6000fd5b50600960006101000a81548173ffffffffffffffffffffffffffffffffffffffff021916908373ffffffffffffffffffffffffffffffffffffffff1602179055503480156200009057600080fd5b5060405162004df138038062004df18339818101604052810190620000b6919062000146565b806004819055508242620000cb9190620001f1565b60038190555081600281905550336000806101000a81548173ffffffffffffffffffffffffffffffffffffffff021916908373ffffffffffffffffffffffffffffffffffffffff160217905550505050620002ee565b611de9806200300883390190565b6000815190506200014081620002d4565b92915050565b600080600060608486031215620001625762000161620002cf565b5b600062000172868287016200012f565b935050602062000185868287016200012f565b925050604062000198868287016200012f565b9150509250925092565b620001ad816200024e565b82525050565b620001be816200028c565b82525050565b6000604082019050620001db6000830185620001b3565b620001ea6020830184620001a2565b9392505050565b6000620001fe8262000282565b91506200020b8362000282565b9250827fffffffffffffffffffffffffffffffffffffffffffffffffffffffffffffffff03821115620002435762000242620002a0565b5b828201905092915050565b60006200025b8262000262565b9050919050565b600073ffffffffffffffffffffffffffffffffffffffff82169050919050565b6000819050919050565b6000620002998262000282565b9050919050565b7f4e487b7100000000000000000000000000000000000000000000000000000000600052601160045260246000fd5b600080fd5b620002df8162000282565b8114620002eb57600080fd5b50565b612d0a80620002fe6000396000f3fe6080604052600436106101d85760003560e01c80636bbe367211610102578063c59ee1dc11610095578063f0fbfbf311610064578063f0fbfbf3146106a7578063f2fde38b146106e4578063f851a4401461070d578063fdba0ed914610738576101d8565b8063c59ee1dc146105f2578063d7bb99ba1461061d578063dd62ed3e14610627578063e77e0f8e14610664576101d8565b8063af640d0f116100d1578063af640d0f14610576578063af87b5b6146105a1578063b2d5ae44146105bd578063c3826914146105c7576101d8565b80636bbe3672146104ba57806390aadd60146104e3578063a8d68abe1461050e578063aaffadf31461054b576101d8565b80633ebe8fd51161017a5780634c69b583116101495780634c69b583146103d85780634e18eb29146104155780634e260f6f146104525780635277b4ae1461047d576101d8565b80633ebe8fd51461031a57806340193883146103575780634159f397146103825780634b35bbd5146103ad576101d8565b80631841cc34116101b65780631841cc341461025c5780631f6d49421461028757806329dcb0cf146102c457806335359a3f146102ef576101d8565b80630121b93f146101dd57806302d802d01461020657806318160ddd14610231575b600080fd5b3480156101e957600080fd5b5061020460048036038101906101ff9190611f01565b61077b565b005b34801561021257600080fd5b5061021b610a01565b60405161022891906122b3565b60405180910390f35b34801561023d57600080fd5b50610246610a1e565b604051610253919061246e565b60405180910390f35b34801561026857600080fd5b50610271610ad8565b60405161027e919061246e565b60405180910390f35b34801561029357600080fd5b506102ae60048036038101906102a99190611dc8565b610ade565b6040516102bb919061246e565b60405180910390f35b3480156102d057600080fd5b506102d9610af6565b6040516102e6919061246e565b60405180910390f35b3480156102fb57600080fd5b50610304610afc565b604051610311919061220f565b60405180910390f35b34801561032657600080fd5b50610341600480360381019061033c9190611dc8565b610b26565b60405161034e919061246e565b60405180910390f35b34801561036357600080fd5b5061036c610bed565b604051610379919061246e565b60405180910390f35b34801561038e57600080fd5b50610397610bf3565b6040516103a4919061246e565b60405180910390f35b3480156103b957600080fd5b506103c2610bfd565b6040516103cf919061246e565b60405180910390f35b3480156103e457600080fd5b506103ff60048036038101906103fa9190611f01565b610c03565b60405161040c91906122b3565b60405180910390f35b34801561042157600080fd5b5061043c60048036038101906104379190611f01565b610c4a565b60405161044991906122b3565b60405180910390f35b34801561045e57600080fd5b50610467610cb1565b604051610474919061246e565b60405180910390f35b34801561048957600080fd5b506104a4600480360381019061049f9190611f5b565b610cb7565b6040516104b191906122b3565b60405180910390f35b3480156104c657600080fd5b506104e160048036038101906104dc9190611e62565b610ce6565b005b3480156104ef57600080fd5b506104f8610e84565b60405161050591906122b3565b60405180910390f35b34801561051a57600080fd5b5061053560048036038101906105309190611dc8565b610ea2565b604051610542919061246e565b60405180910390f35b34801561055757600080fd5b50610560610eba565b60405161056d919061246e565b60405180910390f35b34801561058257600080fd5b5061058b610ec0565b604051610598919061246e565b60405180910390f35b6105bb60048036038101906105b69190611f01565b610ec6565b005b6105c5611133565b005b3480156105d357600080fd5b506105dc611347565b6040516105e9919061246e565b60405180910390f35b3480156105fe57600080fd5b50610607611351565b604051610614919061246e565b60405180910390f35b610625611357565b005b34801561063357600080fd5b5061064e60048036038101906106499190611df5565b6115af565b60405161065b919061246e565b60405180910390f35b34801561067057600080fd5b5061068b60048036038101906106869190611f01565b611666565b60405161069e9796959493929190612489565b60405180910390f35b3480156106b357600080fd5b506106ce60048036038101906106c99190611f01565b6117e5565b6040516106db91906122b3565b60405180910390f35b3480156106f057600080fd5b5061070b60048036038101906107069190611dc8565b611817565b005b34801561071957600080fd5b506107226118e8565b60405161072f919061220f565b60405180910390f35b34801561074457600080fd5b5061075f600480360381019061075a9190611f01565b61190c565b6040516107729796959493929190612506565b60405180910390f35b600061078633610b26565b116107c6576040517f08c379a00000000000000000000000000000000000000000000000000000000081526004016107bd9061234e565b60405180910390fd5b6000600b60006006548152602001908152602001600020905060008054906101000a900473ffffffffffffffffffffffffffffffffffffffff1673ffffffffffffffffffffffffffffffffffffffff163373ffffffffffffffffffffffffffffffffffffffff16141561086e576040517f08c379a0000000000000000000000000000000000000000000000000000000008152600401610865906122ee565b60405180910390fd5b60001515600d600084815260200190815260200160002060003373ffffffffffffffffffffffffffffffffffffffff1673ffffffffffffffffffffffffffffffffffffffff16815260200190815260200160002060009054906101000a900460ff16151514610912576040517f08c379a0000000000000000000000000000000000000000000000000000000008152600401610909906123ce565b60405180910390fd5b600115158160040160149054906101000a900460ff161515141561096b576040517f08c379a00000000000000000000000000000000000000000000000000000000081526004016109629061238e565b60405180910390fd5b600061097633611aae565b90508082600501600082825461098c9190612600565b925050819055506001600d600085815260200190815260200160002060003373ffffffffffffffffffffffffffffffffffffffff1673ffffffffffffffffffffffffffffffffffffffff16815260200190815260200160002060006101000a81548160ff021916908315150217905550505050565b60008060009050426003541015610a1757600190505b8091505090565b6000670de0b6b3a7640000600960009054906101000a900473ffffffffffffffffffffffffffffffffffffffff1673ffffffffffffffffffffffffffffffffffffffff166318160ddd6040518163ffffffff1660e01b815260040160206040518083038186803b158015610a9157600080fd5b505afa158015610aa5573d6000803e3d6000fd5b505050506040513d601f19601f82011682018060405250810190610ac99190611f2e565b610ad39190612656565b905090565b60085481565b600a6020528060005260406000206000915090505481565b60035481565b6000600960009054906101000a900473ffffffffffffffffffffffffffffffffffffffff16905090565b6000670de0b6b3a7640000600960009054906101000a900473ffffffffffffffffffffffffffffffffffffffff1673ffffffffffffffffffffffffffffffffffffffff166370a08231846040518263ffffffff1660e01b8152600401610b8c919061220f565b60206040518083038186803b158015610ba457600080fd5b505afa158015610bb8573d6000803e3d6000fd5b505050506040513d601f19601f82011682018060405250810190610bdc9190611f2e565b610be69190612656565b9050919050565b60025481565b6000600254905090565b60075481565b600080600090506000600b600085815260200190815260200160002090506002600754610c309190612656565b81600501541115610c4057600191505b8192505050919050565b6000600d600083815260200190815260200160002060003373ffffffffffffffffffffffffffffffffffffffff1673ffffffffffffffffffffffffffffffffffffffff16815260200190815260200160002060009054906101000a900460ff169050919050565b60015481565b600d6020528160005260406000206020528060005260406000206000915091509054906101000a900460ff1681565b60008054906101000a900473ffffffffffffffffffffffffffffffffffffffff1673ffffffffffffffffffffffffffffffffffffffff163373ffffffffffffffffffffffffffffffffffffffff1614610d74576040517f08c379a0000000000000000000000000000000000000000000000000000000008152600401610d6b9061244e565b60405180910390fd5b806005541015610db9576040517f08c379a0000000000000000000000000000000000000000000000000000000008152600401610db09061240e565b60405180910390fd5b6000600b600060065481526020019081526020016000209050600654816000018190555083816002019080519060200190610df5929190611c4c565b5084816001019080519060200190610e0e929190611c4c565b50828160040160006101000a81548173ffffffffffffffffffffffffffffffffffffffff021916908373ffffffffffffffffffffffffffffffffffffffff1602179055508181600301819055506000816005018190555060066000815480929190610e78906127ba565b91905055505050505050565b6000806000905060025460055410610e9b57600190505b8091505090565b600c6020528060005260406000206000915090505481565b60045481565b60065481565b60008054906101000a900473ffffffffffffffffffffffffffffffffffffffff1673ffffffffffffffffffffffffffffffffffffffff163373ffffffffffffffffffffffffffffffffffffffff1614610f54576040517f08c379a0000000000000000000000000000000000000000000000000000000008152600401610f4b9061244e565b60405180910390fd5b806000600b600083815260200190815260200160002090506002600754610f7b9190612656565b816005015411610fc0576040517f08c379a0000000000000000000000000000000000000000000000000000000008152600401610fb7906123ee565b60405180910390fd5b6002546005541015611007576040517f08c379a0000000000000000000000000000000000000000000000000000000008152600401610ffe906123ae565b60405180910390fd5b6000600b6000858152602001908152602001600020905060018160040160146101000a81548160ff02191690831515021790555060008160040160009054906101000a900473ffffffffffffffffffffffffffffffffffffffff1673ffffffffffffffffffffffffffffffffffffffff168260030154604051611089906121fa565b60006040518083038185875af1925050503d80600081146110c6576040519150601f19603f3d011682016040523d82523d6000602084013e6110cb565b606091505b505090508061110f576040517f08c379a00000000000000000000000000000000000000000000000000000000081526004016111069061242e565b60405180910390fd5b8160030154600560008282546111259190612687565b925050819055505050505050565b426003541080156111475750600254600554105b611186576040517f08c379a000000000000000000000000000000000000000000000000000000000815260040161117d9061232e565b60405180910390fd5b6000600a60003373ffffffffffffffffffffffffffffffffffffffff1673ffffffffffffffffffffffffffffffffffffffff1681526020019081526020016000205411611208576040517f08c379a00000000000000000000000000000000000000000000000000000000081526004016111ff906122ce565b60405180910390fd5b60003390506000600a60003373ffffffffffffffffffffffffffffffffffffffff1673ffffffffffffffffffffffffffffffffffffffff1681526020019081526020016000205490506000600a60003373ffffffffffffffffffffffffffffffffffffffff1673ffffffffffffffffffffffffffffffffffffffff1681526020019081526020016000208190555060008273ffffffffffffffffffffffffffffffffffffffff16826040516112bc906121fa565b60006040518083038185875af1925050503d80600081146112f9576040519150601f19603f3d011682016040523d82523d6000602084013e6112fe565b606091505b5050905080611342576040517f08c379a00000000000000000000000000000000000000000000000000000000081526004016113399061242e565b60405180910390fd5b505050565b6000600754905090565b60055481565b426003541161139b576040517f08c379a00000000000000000000000000000000000000000000000000000000081526004016113929061230e565b60405180910390fd5b6004543410156113e0576040517f08c379a00000000000000000000000000000000000000000000000000000000081526004016113d79061236e565b60405180910390fd5b6000600a60003373ffffffffffffffffffffffffffffffffffffffff1673ffffffffffffffffffffffffffffffffffffffff168152602001908152602001600020541415611441576001600081548092919061143b906127ba565b91905055505b64174876e800346114529190612656565b60088190555034600a60003373ffffffffffffffffffffffffffffffffffffffff1673ffffffffffffffffffffffffffffffffffffffff16815260200190815260200160002060008282546114a79190612600565b9250508190555034600560008282546114c09190612600565b9250508190555064174876e800346114d89190612656565b600760008282546114e99190612600565b92505081905550600960009054906101000a900473ffffffffffffffffffffffffffffffffffffffff1673ffffffffffffffffffffffffffffffffffffffff1663095ea7b3336008546040518363ffffffff1660e01b815260040161154f92919061228a565b602060405180830381600087803b15801561156957600080fd5b505af115801561157d573d6000803e3d6000fd5b505050506040513d601f19601f820116820180604052508101906115a19190611e35565b506115ad600854611b75565b565b6000600960009054906101000a900473ffffffffffffffffffffffffffffffffffffffff1673ffffffffffffffffffffffffffffffffffffffff1663dd62ed3e84846040518363ffffffff1660e01b815260040161160e92919061222a565b60206040518083038186803b15801561162657600080fd5b505afa15801561163a573d6000803e3d6000fd5b505050506040513d601f19601f8201168201806040525081019061165e9190611f2e565b905092915050565b600b60205280600052604060002060009150905080600001549080600101805461168f90612757565b80601f01602080910402602001604051908101604052809291908181526020018280546116bb90612757565b80156117085780601f106116dd57610100808354040283529160200191611708565b820191906000526020600020905b8154815290600101906020018083116116eb57829003601f168201915b50505050509080600201805461171d90612757565b80601f016020809104026020016040519081016040528092919081815260200182805461174990612757565b80156117965780601f1061176b57610100808354040283529160200191611796565b820191906000526020600020905b81548152906001019060200180831161177957829003601f168201915b5050505050908060030154908060040160009054906101000a900473ffffffffffffffffffffffffffffffffffffffff16908060040160149054906101000a900460ff16908060050154905087565b600080600b600084815260200190815260200160002090508060040160149054906101000a900460ff16915050919050565b60008054906101000a900473ffffffffffffffffffffffffffffffffffffffff1673ffffffffffffffffffffffffffffffffffffffff163373ffffffffffffffffffffffffffffffffffffffff16146118a5576040517f08c379a000000000000000000000000000000000000000000000000000000000815260040161189c9061244e565b60405180910390fd5b806000806101000a81548173ffffffffffffffffffffffffffffffffffffffff021916908373ffffffffffffffffffffffffffffffffffffffff16021790555050565b60008054906101000a900473ffffffffffffffffffffffffffffffffffffffff1681565b60006060806000806000806000600b60008a815260200190815260200160002090508060000154816001018260020183600301548460040160009054906101000a900473ffffffffffffffffffffffffffffffffffffffff1685600501548660040160149054906101000a900460ff1685805461198890612757565b80601f01602080910402602001604051908101604052809291908181526020018280546119b490612757565b8015611a015780601f106119d657610100808354040283529160200191611a01565b820191906000526020600020905b8154815290600101906020018083116119e457829003601f168201915b50505050509550848054611a1490612757565b80601f0160208091040260200160405190810160405280929190818152602001828054611a4090612757565b8015611a8d5780601f10611a6257610100808354040283529160200191611a8d565b820191906000526020600020905b815481529060010190602001808311611a7057829003601f168201915b50505050509450975097509750975097509750975050919395979092949650565b6000670de0b6b3a7640000600960009054906101000a900473ffffffffffffffffffffffffffffffffffffffff1673ffffffffffffffffffffffffffffffffffffffff166370a08231846040518263ffffffff1660e01b8152600401611b14919061220f565b60206040518083038186803b158015611b2c57600080fd5b505afa158015611b40573d6000803e3d6000fd5b505050506040513d601f19601f82011682018060405250810190611b649190611f2e565b611b6e9190612656565b9050919050565b600960009054906101000a900473ffffffffffffffffffffffffffffffffffffffff1673ffffffffffffffffffffffffffffffffffffffff166323b872dd600960009054906101000a900473ffffffffffffffffffffffffffffffffffffffff1633846040518463ffffffff1660e01b8152600401611bf693929190612253565b602060405180830381600087803b158015611c1057600080fd5b505af1158015611c24573d6000803e3d6000fd5b505050506040513d601f19601f82011682018060405250810190611c489190611e35565b5050565b828054611c5890612757565b90600052602060002090601f016020900481019282611c7a5760008555611cc1565b82601f10611c9357805160ff1916838001178555611cc1565b82800160010185558215611cc1579182015b82811115611cc0578251825591602001919060010190611ca5565b5b509050611cce9190611cd2565b5090565b5b80821115611ceb576000816000905550600101611cd3565b5090565b6000611d02611cfd846125a8565b612583565b905082815260208101848484011115611d1e57611d1d6128c4565b5b611d29848285612715565b509392505050565b600081359050611d4081612c78565b92915050565b600081359050611d5581612c8f565b92915050565b600081519050611d6a81612ca6565b92915050565b600082601f830112611d8557611d846128bf565b5b8135611d95848260208601611cef565b91505092915050565b600081359050611dad81612cbd565b92915050565b600081519050611dc281612cbd565b92915050565b600060208284031215611dde57611ddd6128ce565b5b6000611dec84828501611d31565b91505092915050565b60008060408385031215611e0c57611e0b6128ce565b5b6000611e1a85828601611d31565b9250506020611e2b85828601611d31565b9150509250929050565b600060208284031215611e4b57611e4a6128ce565b5b6000611e5984828501611d5b565b91505092915050565b60008060008060808587031215611e7c57611e7b6128ce565b5b600085013567ffffffffffffffff811115611e9a57611e996128c9565b5b611ea687828801611d70565b945050602085013567ffffffffffffffff811115611ec757611ec66128c9565b5b611ed387828801611d70565b9350506040611ee487828801611d46565b9250506060611ef587828801611d9e565b91505092959194509250565b600060208284031215611f1757611f166128ce565b5b6000611f2584828501611d9e565b91505092915050565b600060208284031215611f4457611f436128ce565b5b6000611f5284828501611db3565b91505092915050565b60008060408385031215611f7257611f716128ce565b5b6000611f8085828601611d9e565b9250506020611f9185828601611d31565b9150509250929050565b611fa4816126cd565b82525050565b611fb3816126bb565b82525050565b611fc2816126df565b82525050565b6000611fd3826125d9565b611fdd81856125ef565b9350611fed818560208601612724565b611ff6816128d3565b840191505092915050565b600061200e6038836125ef565b9150612019826128e4565b604082019050919050565b6000612031601a836125ef565b915061203c82612933565b602082019050919050565b6000612054602a836125ef565b915061205f8261295c565b604082019050919050565b6000612077603b836125ef565b9150612082826129ab565b604082019050919050565b600061209a6038836125ef565b91506120a5826129fa565b604082019050919050565b60006120bd601d836125ef565b91506120c882612a49565b602082019050919050565b60006120e06028836125ef565b91506120eb82612a72565b604082019050919050565b6000612103602c836125ef565b915061210e82612ac1565b604082019050919050565b60006121266032836125ef565b915061213182612b10565b604082019050919050565b60006121496035836125ef565b915061215482612b5f565b604082019050919050565b600061216c6034836125ef565b915061217782612bae565b604082019050919050565b600061218f6026836125ef565b915061219a82612bfd565b604082019050919050565b60006121b26000836125e4565b91506121bd82612c4c565b600082019050919050565b60006121d5600b836125ef565b91506121e082612c4f565b602082019050919050565b6121f48161270b565b82525050565b6000612205826121a5565b9150819050919050565b60006020820190506122246000830184611faa565b92915050565b600060408201905061223f6000830185611faa565b61224c6020830184611faa565b9392505050565b60006060820190506122686000830186611faa565b6122756020830185611faa565b61228260408301846121eb565b949350505050565b600060408201905061229f6000830185611faa565b6122ac60208301846121eb565b9392505050565b60006020820190506122c86000830184611fb9565b92915050565b600060208201905081810360008301526122e781612001565b9050919050565b6000602082019050818103600083015261230781612024565b9050919050565b6000602082019050818103600083015261232781612047565b9050919050565b600060208201905081810360008301526123478161206a565b9050919050565b600060208201905081810360008301526123678161208d565b9050919050565b60006020820190508181036000830152612387816120b0565b9050919050565b600060208201905081810360008301526123a7816120d3565b9050919050565b600060208201905081810360008301526123c7816120f6565b9050919050565b600060208201905081810360008301526123e781612119565b9050919050565b600060208201905081810360008301526124078161213c565b9050919050565b600060208201905081810360008301526124278161215f565b9050919050565b6000602082019050818103600083015261244781612182565b9050919050565b60006020820190508181036000830152612467816121c8565b9050919050565b600060208201905061248360008301846121eb565b92915050565b600060e08201905061249e600083018a6121eb565b81810360208301526124b08189611fc8565b905081810360408301526124c48188611fc8565b90506124d360608301876121eb565b6124e06080830186611f9b565b6124ed60a0830185611fb9565b6124fa60c08301846121eb565b98975050505050505050565b600060e08201905061251b600083018a6121eb565b818103602083015261252d8189611fc8565b905081810360408301526125418188611fc8565b905061255060608301876121eb565b61255d6080830186611faa565b61256a60a08301856121eb565b61257760c0830184611fb9565b98975050505050505050565b600061258d61259e565b90506125998282612789565b919050565b6000604051905090565b600067ffffffffffffffff8211156125c3576125c2612890565b5b6125cc826128d3565b9050602081019050919050565b600081519050919050565b600081905092915050565b600082825260208201905092915050565b600061260b8261270b565b91506126168361270b565b9250827fffffffffffffffffffffffffffffffffffffffffffffffffffffffffffffffff0382111561264b5761264a612803565b5b828201905092915050565b60006126618261270b565b915061266c8361270b565b92508261267c5761267b612832565b5b828204905092915050565b60006126928261270b565b915061269d8361270b565b9250828210156126b0576126af612803565b5b828203905092915050565b60006126c6826126eb565b9050919050565b60006126d8826126eb565b9050919050565b60008115159050919050565b600073ffffffffffffffffffffffffffffffffffffffff82169050919050565b6000819050919050565b82818337600083830152505050565b60005b83811015612742578082015181840152602081019050612727565b83811115612751576000848401525b50505050565b6000600282049050600182168061276f57607f821691505b6020821081141561278357612782612861565b5b50919050565b612792826128d3565b810181811067ffffffffffffffff821117156127b1576127b0612890565b5b80604052505050565b60006127c58261270b565b91507fffffffffffffffffffffffffffffffffffffffffffffffffffffffffffffffff8214156127f8576127f7612803565b5b600182019050919050565b7f4e487b7100000000000000000000000000000000000000000000000000000000600052601160045260246000fd5b7f4e487b7100000000000000000000000000000000000000000000000000000000600052601260045260246000fd5b7f4e487b7100000000000000000000000000000000000000000000000000000000600052602260045260246000fd5b7f4e487b7100000000000000000000000000000000000000000000000000000000600052604160045260246000fd5b600080fd5b600080fd5b600080fd5b600080fd5b6000601f19601f8301169050919050565b7f596f752068617665206e6f7420636f6e747269627574656420746f207468652060008201527f63616d706169676e2c2063616e6e6f7420726566756e64210000000000000000602082015250565b7f41646d696e2063616e6e6f742063617374206120766f74652120000000000000600082015250565b7f205468652063616d706169676e20636f6e747269627574696f6e20646561646c60008201527f696e6520656e6465642100000000000000000000000000000000000000000000602082015250565b7f5468652063616d706169676e2072616973656420616d6f756e7420686173206260008201527f65656e20726561636865642c2063616e6e6f7420726566756e64210000000000602082015250565b7f596f7572206164647265737320646f6573204e4f54206861766520616e79207460008201527f6f6b656e732c206e6f20766f74696e6720726967687473210000000000000000602082015250565b7f4d696e696d756d20636f6e747269627574696f6e206e6f74206d657421000000600082015250565b7f43616e6e6f7420766f74652c207370656e64696e67207265717565737420636f60008201527f6d706c6574656421000000000000000000000000000000000000000000000000602082015250565b7f5468652066756e64696e672066756e647320676f616c20686173206e6f74206260008201527f65656e2072656163686564210000000000000000000000000000000000000000602082015250565b7f596f75206861766520616c6c726561647920766f74656420666f72207468697360008201527f207370656e64696e672072657175657374210000000000000000000000000000602082015250565b7f546865207265717565737420686173206e6f74207265636569766564206d6f7260008201527f65207468616e2068616c66206f6620766f746573210000000000000000000000602082015250565b7f4e6f7420656e6f7567682066756e64732072616973656420666f72207468697360008201527f207265717565737465642070726f706f73616c21000000000000000000000000602082015250565b7f5472616e7366657220746f206f776e6572206f662074686520636f757273652060008201527f6661696c65640000000000000000000000000000000000000000000000000000602082015250565b50565b7f4f6e6c792061646d696e21000000000000000000000000000000000000000000600082015250565b612c81816126bb565b8114612c8c57600080fd5b50565b612c98816126cd565b8114612ca357600080fd5b50565b612caf816126df565b8114612cba57600080fd5b50565b612cc68161270b565b8114612cd157600080fd5b5056fea2646970667358221220896b9c362deef3c4917126b846a664e1d28e5406095cfad533fdfdbc35fd3af664736f6c6343000807003360806040523480156200001157600080fd5b5060405162001de938038062001de9833981810160405281019062000037919062000641565b6040518060400160405280600881526020017f64616f546f6b656e0000000000000000000000000000000000000000000000008152506040518060400160405280600481526020017f44414f54000000000000000000000000000000000000000000000000000000008152508160039080519060200190620000bb92919062000563565b508060049080519060200190620000d492919062000563565b50505060003090506200010330670de0b6b3a764000085620000f7919062000880565b6200014260201b60201c565b6200013981836003670de0b6b3a76400008762000121919062000880565b6200012d919062000848565b620002bb60201b60201c565b50505062000b31565b600073ffffffffffffffffffffffffffffffffffffffff168273ffffffffffffffffffffffffffffffffffffffff161415620001b5576040517f08c379a0000000000000000000000000000000000000000000000000000000008152600401620001ac906200079b565b60405180910390fd5b620001c9600083836200055960201b60201c565b8060026000828254620001dd9190620007eb565b92505081905550806000808473ffffffffffffffffffffffffffffffffffffffff1673ffffffffffffffffffffffffffffffffffffffff1681526020019081526020016000206000828254620002349190620007eb565b925050819055508173ffffffffffffffffffffffffffffffffffffffff16600073ffffffffffffffffffffffffffffffffffffffff167fddf252ad1be2c89b69c2b068fc378daa952ba7f163c4a11628f55a4df523b3ef836040516200029b9190620007bd565b60405180910390a3620002b7600083836200055e60201b60201c565b5050565b600073ffffffffffffffffffffffffffffffffffffffff168373ffffffffffffffffffffffffffffffffffffffff1614156200032e576040517f08c379a0000000000000000000000000000000000000000000000000000000008152600401620003259062000779565b60405180910390fd5b600073ffffffffffffffffffffffffffffffffffffffff168273ffffffffffffffffffffffffffffffffffffffff161415620003a1576040517f08c379a0000000000000000000000000000000000000000000000000000000008152600401620003989062000735565b60405180910390fd5b620003b48383836200055960201b60201c565b60008060008573ffffffffffffffffffffffffffffffffffffffff1673ffffffffffffffffffffffffffffffffffffffff168152602001908152602001600020549050818110156200043d576040517f08c379a0000000000000000000000000000000000000000000000000000000008152600401620004349062000757565b60405180910390fd5b8181036000808673ffffffffffffffffffffffffffffffffffffffff1673ffffffffffffffffffffffffffffffffffffffff16815260200190815260200160002081905550816000808573ffffffffffffffffffffffffffffffffffffffff1673ffffffffffffffffffffffffffffffffffffffff1681526020019081526020016000206000828254620004d29190620007eb565b925050819055508273ffffffffffffffffffffffffffffffffffffffff168473ffffffffffffffffffffffffffffffffffffffff167fddf252ad1be2c89b69c2b068fc378daa952ba7f163c4a11628f55a4df523b3ef84604051620005389190620007bd565b60405180910390a3620005538484846200055e60201b60201c565b50505050565b505050565b505050565b82805462000571906200091f565b90600052602060002090601f016020900481019282620005955760008555620005e1565b82601f10620005b057805160ff1916838001178555620005e1565b82800160010185558215620005e1579182015b82811115620005e0578251825591602001919060010190620005c3565b5b509050620005f09190620005f4565b5090565b5b808211156200060f576000816000905550600101620005f5565b5090565b600081519050620006248162000afd565b92915050565b6000815190506200063b8162000b17565b92915050565b600080604083850312156200065b576200065a620009e2565b5b60006200066b858286016200062a565b92505060206200067e8582860162000613565b9150509250929050565b600062000697602383620007da565b9150620006a482620009e7565b604082019050919050565b6000620006be602683620007da565b9150620006cb8262000a36565b604082019050919050565b6000620006e5602583620007da565b9150620006f28262000a85565b604082019050919050565b60006200070c601f83620007da565b9150620007198262000ad4565b602082019050919050565b6200072f8162000915565b82525050565b60006020820190508181036000830152620007508162000688565b9050919050565b600060208201905081810360008301526200077281620006af565b9050919050565b600060208201905081810360008301526200079481620006d6565b9050919050565b60006020820190508181036000830152620007b681620006fd565b9050919050565b6000602082019050620007d4600083018462000724565b92915050565b600082825260208201905092915050565b6000620007f88262000915565b9150620008058362000915565b9250827fffffffffffffffffffffffffffffffffffffffffffffffffffffffffffffffff038211156200083d576200083c62000955565b5b828201905092915050565b6000620008558262000915565b9150620008628362000915565b92508262000875576200087462000984565b5b828204905092915050565b60006200088d8262000915565b91506200089a8362000915565b9250817fffffffffffffffffffffffffffffffffffffffffffffffffffffffffffffffff0483118215151615620008d657620008d562000955565b5b828202905092915050565b6000620008ee82620008f5565b9050919050565b600073ffffffffffffffffffffffffffffffffffffffff82169050919050565b6000819050919050565b600060028204905060018216806200093857607f821691505b602082108114156200094f576200094e620009b3565b5b50919050565b7f4e487b7100000000000000000000000000000000000000000000000000000000600052601160045260246000fd5b7f4e487b7100000000000000000000000000000000000000000000000000000000600052601260045260246000fd5b7f4e487b7100000000000000000000000000000000000000000000000000000000600052602260045260246000fd5b600080fd5b7f45524332303a207472616e7366657220746f20746865207a65726f206164647260008201527f6573730000000000000000000000000000000000000000000000000000000000602082015250565b7f45524332303a207472616e7366657220616d6f756e742065786365656473206260008201527f616c616e63650000000000000000000000000000000000000000000000000000602082015250565b7f45524332303a207472616e736665722066726f6d20746865207a65726f20616460008201527f6472657373000000000000000000000000000000000000000000000000000000602082015250565b7f45524332303a206d696e7420746f20746865207a65726f206164647265737300600082015250565b62000b0881620008e1565b811462000b1457600080fd5b50565b62000b228162000915565b811462000b2e57600080fd5b50565b6112a88062000b416000396000f3fe608060405234801561001057600080fd5b50600436106100a95760003560e01c80633950935111610071578063395093511461016857806370a082311461019857806395d89b41146101c8578063a457c2d7146101e6578063a9059cbb14610216578063dd62ed3e14610246576100a9565b806306fdde03146100ae578063095ea7b3146100cc57806318160ddd146100fc57806323b872dd1461011a578063313ce5671461014a575b600080fd5b6100b6610276565b6040516100c39190610d58565b60405180910390f35b6100e660048036038101906100e19190610bc5565b610308565b6040516100f39190610d3d565b60405180910390f35b610104610324565b6040516101119190610e3a565b60405180910390f35b610134600480360381019061012f9190610b72565b61032e565b6040516101419190610d3d565b60405180910390f35b61015261035c565b60405161015f9190610e55565b60405180910390f35b610182600480360381019061017d9190610bc5565b610365565b60405161018f9190610d3d565b60405180910390f35b6101b260048036038101906101ad9190610b05565b61040f565b6040516101bf9190610e3a565b60405180910390f35b6101d0610457565b6040516101dd9190610d58565b60405180910390f35b61020060048036038101906101fb9190610bc5565b6104e9565b60405161020d9190610d3d565b60405180910390f35b610230600480360381019061022b9190610bc5565b6105d3565b60405161023d9190610d3d565b60405180910390f35b610260600480360381019061025b9190610b32565b6105f6565b60405161026d9190610e3a565b60405180910390f35b60606003805461028590610fc4565b80601f01602080910402602001604051908101604052809291908181526020018280546102b190610fc4565b80156102fe5780601f106102d3576101008083540402835291602001916102fe565b820191906000526020600020905b8154815290600101906020018083116102e157829003601f168201915b5050505050905090565b60008030905061031981858561067d565b600191505092915050565b6000600254905090565b60003093506103518484670de0b6b3a76400008561034c9190610ee2565b610848565b600190509392505050565b60006012905090565b600080610370610ac9565b9050610404818585600160008673ffffffffffffffffffffffffffffffffffffffff1673ffffffffffffffffffffffffffffffffffffffff16815260200190815260200160002060008973ffffffffffffffffffffffffffffffffffffffff1673ffffffffffffffffffffffffffffffffffffffff168152602001908152602001600020546103ff9190610e8c565b61067d565b600191505092915050565b60008060008373ffffffffffffffffffffffffffffffffffffffff1673ffffffffffffffffffffffffffffffffffffffff168152602001908152602001600020549050919050565b60606004805461046690610fc4565b80601f016020809104026020016040519081016040528092919081815260200182805461049290610fc4565b80156104df5780601f106104b4576101008083540402835291602001916104df565b820191906000526020600020905b8154815290600101906020018083116104c257829003601f168201915b5050505050905090565b6000806104f4610ac9565b90506000600160008373ffffffffffffffffffffffffffffffffffffffff1673ffffffffffffffffffffffffffffffffffffffff16815260200190815260200160002060008673ffffffffffffffffffffffffffffffffffffffff1673ffffffffffffffffffffffffffffffffffffffff168152602001908152602001600020549050838110156105ba576040517f08c379a00000000000000000000000000000000000000000000000000000000081526004016105b190610e1a565b60405180910390fd5b6105c7828686840361067d565b60019250505092915050565b6000806105de610ac9565b90506105eb818585610848565b600191505092915050565b6000600160008473ffffffffffffffffffffffffffffffffffffffff1673ffffffffffffffffffffffffffffffffffffffff16815260200190815260200160002060008373ffffffffffffffffffffffffffffffffffffffff1673ffffffffffffffffffffffffffffffffffffffff16815260200190815260200160002054905092915050565b600073ffffffffffffffffffffffffffffffffffffffff168373ffffffffffffffffffffffffffffffffffffffff1614156106ed576040517f08c379a00000000000000000000000000000000000000000000000000000000081526004016106e490610dfa565b60405180910390fd5b600073ffffffffffffffffffffffffffffffffffffffff168273ffffffffffffffffffffffffffffffffffffffff16141561075d576040517f08c379a000000000000000000000000000000000000000000000000000000000815260040161075490610d9a565b60405180910390fd5b80600160008573ffffffffffffffffffffffffffffffffffffffff1673ffffffffffffffffffffffffffffffffffffffff16815260200190815260200160002060008473ffffffffffffffffffffffffffffffffffffffff1673ffffffffffffffffffffffffffffffffffffffff168152602001908152602001600020819055508173ffffffffffffffffffffffffffffffffffffffff168373ffffffffffffffffffffffffffffffffffffffff167f8c5be1e5ebec7d5bd14f71427d1e84f3dd0314c0f7b2291e5b200ac8c7c3b9258360405161083b9190610e3a565b60405180910390a3505050565b600073ffffffffffffffffffffffffffffffffffffffff168373ffffffffffffffffffffffffffffffffffffffff1614156108b8576040517f08c379a00000000000000000000000000000000000000000000000000000000081526004016108af90610dda565b60405180910390fd5b600073ffffffffffffffffffffffffffffffffffffffff168273ffffffffffffffffffffffffffffffffffffffff161415610928576040517f08c379a000000000000000000000000000000000000000000000000000000000815260040161091f90610d7a565b60405180910390fd5b610933838383610ad1565b60008060008573ffffffffffffffffffffffffffffffffffffffff1673ffffffffffffffffffffffffffffffffffffffff168152602001908152602001600020549050818110156109b9576040517f08c379a00000000000000000000000000000000000000000000000000000000081526004016109b090610dba565b60405180910390fd5b8181036000808673ffffffffffffffffffffffffffffffffffffffff1673ffffffffffffffffffffffffffffffffffffffff16815260200190815260200160002081905550816000808573ffffffffffffffffffffffffffffffffffffffff1673ffffffffffffffffffffffffffffffffffffffff1681526020019081526020016000206000828254610a4c9190610e8c565b925050819055508273ffffffffffffffffffffffffffffffffffffffff168473ffffffffffffffffffffffffffffffffffffffff167fddf252ad1be2c89b69c2b068fc378daa952ba7f163c4a11628f55a4df523b3ef84604051610ab09190610e3a565b60405180910390a3610ac3848484610ad6565b50505050565b600033905090565b505050565b505050565b600081359050610aea81611244565b92915050565b600081359050610aff8161125b565b92915050565b600060208284031215610b1b57610b1a611054565b5b6000610b2984828501610adb565b91505092915050565b60008060408385031215610b4957610b48611054565b5b6000610b5785828601610adb565b9250506020610b6885828601610adb565b9150509250929050565b600080600060608486031215610b8b57610b8a611054565b5b6000610b9986828701610adb565b9350506020610baa86828701610adb565b9250506040610bbb86828701610af0565b9150509250925092565b60008060408385031215610bdc57610bdb611054565b5b6000610bea85828601610adb565b9250506020610bfb85828601610af0565b9150509250929050565b610c0e81610f4e565b82525050565b6000610c1f82610e70565b610c298185610e7b565b9350610c39818560208601610f91565b610c4281611059565b840191505092915050565b6000610c5a602383610e7b565b9150610c658261106a565b604082019050919050565b6000610c7d602283610e7b565b9150610c88826110b9565b604082019050919050565b6000610ca0602683610e7b565b9150610cab82611108565b604082019050919050565b6000610cc3602583610e7b565b9150610cce82611157565b604082019050919050565b6000610ce6602483610e7b565b9150610cf1826111a6565b604082019050919050565b6000610d09602583610e7b565b9150610d14826111f5565b604082019050919050565b610d2881610f7a565b82525050565b610d3781610f84565b82525050565b6000602082019050610d526000830184610c05565b92915050565b60006020820190508181036000830152610d728184610c14565b905092915050565b60006020820190508181036000830152610d9381610c4d565b9050919050565b60006020820190508181036000830152610db381610c70565b9050919050565b60006020820190508181036000830152610dd381610c93565b9050919050565b60006020820190508181036000830152610df381610cb6565b9050919050565b60006020820190508181036000830152610e1381610cd9565b9050919050565b60006020820190508181036000830152610e3381610cfc565b9050919050565b6000602082019050610e4f6000830184610d1f565b92915050565b6000602082019050610e6a6000830184610d2e565b92915050565b600081519050919050565b600082825260208201905092915050565b6000610e9782610f7a565b9150610ea283610f7a565b9250827fffffffffffffffffffffffffffffffffffffffffffffffffffffffffffffffff03821115610ed757610ed6610ff6565b5b828201905092915050565b6000610eed82610f7a565b9150610ef883610f7a565b9250817fffffffffffffffffffffffffffffffffffffffffffffffffffffffffffffffff0483118215151615610f3157610f30610ff6565b5b828202905092915050565b6000610f4782610f5a565b9050919050565b60008115159050919050565b600073ffffffffffffffffffffffffffffffffffffffff82169050919050565b6000819050919050565b600060ff82169050919050565b60005b83811015610faf578082015181840152602081019050610f94565b83811115610fbe576000848401525b50505050565b60006002820490506001821680610fdc57607f821691505b60208210811415610ff057610fef611025565b5b50919050565b7f4e487b7100000000000000000000000000000000000000000000000000000000600052601160045260246000fd5b7f4e487b7100000000000000000000000000000000000000000000000000000000600052602260045260246000fd5b600080fd5b6000601f19601f8301169050919050565b7f45524332303a207472616e7366657220746f20746865207a65726f206164647260008201527f6573730000000000000000000000000000000000000000000000000000000000602082015250565b7f45524332303a20617070726f766520746f20746865207a65726f20616464726560008201527f7373000000000000000000000000000000000000000000000000000000000000602082015250565b7f45524332303a207472616e7366657220616d6f756e742065786365656473206260008201527f616c616e63650000000000000000000000000000000000000000000000000000602082015250565b7f45524332303a207472616e736665722066726f6d20746865207a65726f20616460008201527f6472657373000000000000000000000000000000000000000000000000000000602082015250565b7f45524332303a20617070726f76652066726f6d20746865207a65726f2061646460008201527f7265737300000000000000000000000000000000000000000000000000000000602082015250565b7f45524332303a2064656372656173656420616c6c6f77616e63652062656c6f7760008201527f207a65726f000000000000000000000000000000000000000000000000000000602082015250565b61124d81610f3c565b811461125857600080fd5b50565b61126481610f7a565b811461126f57600080fd5b5056fea26469706673582212202ef6c9c1c268c92579e9c16692a43c046986b2329549fc7362d24cf8fe54687764736f6c63430008070033",
  "immutableReferences": {},
  "source": "// SPDX-License-Identifier: MIT\r\npragma solidity 0.8.7;\r\n\r\npragma experimental ABIEncoderV2;\r\nimport \"./DAOT.sol\";\r\n\r\ncontract CrowdFunding {\r\n    address public admin;\r\n    uint256 public noOfContributors;\r\n    uint256 public goal;\r\n    uint256 public deadline;\r\n    uint256 public minContribution;\r\n    uint256 public raisedAmount;\r\n    uint256 public id;\r\n    uint256 public totalDestributedTokens;\r\n    uint256 public tokenTransferAmount;\r\n\r\n    DAOT daot = new DAOT(100000000, msg.sender);\r\n\r\n    struct Request {\r\n        uint256 id;\r\n        string title;\r\n        string description;\r\n        uint256 value;\r\n        address payable recipient;\r\n        bool completed;\r\n        uint256 noOfVotes;\r\n    \r\n    }\r\n\r\n    mapping(address => uint256) public contributors;\r\n    mapping(uint256 => Request) public spendingRequests;\r\n    mapping(address => uint256) public contributorsVoteWeight;\r\n    mapping(uint => mapping (address => bool)) public voted;\r\n\r\n    constructor(\r\n        uint256 _deadline,\r\n        uint256 _goal,\r\n        uint256 _minContribution\r\n    ) {\r\n        minContribution = _minContribution;\r\n        deadline = block.timestamp + _deadline;\r\n        goal = _goal;\r\n        admin = msg.sender;\r\n    }\r\n\r\n    function contribute()  external payable {\r\n        require(\r\n            deadline > block.timestamp,\r\n            \" The campaign contribution deadline ended!\"\r\n        );\r\n        require(msg.value >= minContribution, \"Minimum contribution not met!\");\r\n        if (contributors[msg.sender] == 0) {\r\n            noOfContributors++;\r\n        }\r\n        tokenTransferAmount = msg.value / 10**11;\r\n        contributors[msg.sender] += msg.value;\r\n        raisedAmount += msg.value;\r\n \r\n\r\n        // 100000000000000 wei = 0,00001 eth/0,03USD  = 1000 TOKEN\r\n      \r\n\r\n        totalDestributedTokens += msg.value / 10**11;\r\n\r\n        daot.approve(msg.sender, tokenTransferAmount);\r\n        _transferTokens(tokenTransferAmount);\r\n    }\r\n\r\n    function _transferTokens(uint256 _amount) private {\r\n        daot.transferFrom(address(daot), msg.sender, _amount);\r\n    }\r\n\r\n    function getRefund() external payable {\r\n        require(\r\n            deadline < block.timestamp && raisedAmount < goal,\r\n            \"The campaign raised amount has been reached, cannot refund!\"\r\n        );\r\n\r\n        require(\r\n            contributors[msg.sender] > 0,\r\n            \"You have not contributed to the campaign, cannot refund!\"\r\n        );\r\n        address payable recipient = payable(msg.sender);\r\n        uint256 value = contributors[msg.sender];\r\n        contributors[msg.sender] = 0;\r\n\r\n        (bool success, ) = recipient.call{value: value}(\"\");\r\n        require(success, \"Transfer to owner of the course failed\");\r\n    }\r\n\r\n    function spendingRequest(\r\n        string memory _title,\r\n        string memory _description,\r\n        address payable _recipient,\r\n        uint256 _value\r\n    ) external onlyAdmin {\r\n        require(\r\n            raisedAmount >= _value,\r\n            \"Not enough funds raised for this requested proposal!\"\r\n        );\r\n\r\n        Request storage newRequest = spendingRequests[id];\r\n        newRequest.id = id;\r\n        newRequest.description = _description;\r\n        newRequest.title = _title;\r\n        newRequest.recipient = _recipient;\r\n        newRequest.value = _value;\r\n        newRequest.noOfVotes = 0;\r\n\r\n        id++;\r\n    }\r\n\r\n    function vote(uint256 _id) external tokenOwnerRights {\r\n        Request storage request = spendingRequests[id];   \r\n        require(msg.sender != admin, \"Admin cannot cast a vote! \");\r\n        require(voted[_id][msg.sender] == false, \"You have allready voted for this spending request!\");\r\n        require(request.completed != true ,\"Cannot vote, spending request completed!\");\r\n\r\n        uint256 voteWeight = _balanceOfDaotAddr(msg.sender);\r\n        request.noOfVotes += voteWeight;\r\n\r\n        voted[_id][msg.sender] = true;\r\n\r\n    \r\n    }\r\n\r\n    function transferRequestFunds(uint256 _id)\r\n        external\r\n        payable\r\n        onlyAdmin\r\n        requestApproved(_id)\r\n    {\r\n        require(\r\n            raisedAmount >= goal,\r\n            \"The funding funds goal has not been reached!\"\r\n        );\r\n        Request storage request = spendingRequests[_id];\r\n        request.completed = true;\r\n\r\n        (bool success, ) = request.recipient.call{value: request.value}(\"\");\r\n        require(success, \"Transfer to owner of the course failed\");\r\n        raisedAmount -= request.value;\r\n    }\r\n\r\n    function transferOwnership(address _newAdmin) external onlyAdmin {\r\n        admin = _newAdmin;\r\n    }\r\n\r\n    //---------------------------------------------helper functions------------------------------------\r\n\r\n    function tokenHolderAddress() public view returns(address){\r\n\r\n        return address(daot);\r\n    }\r\n    \r\n    \r\n    function totalSupply() public view returns (uint256) {\r\n        return daot.totalSupply() / 10**18;\r\n    }\r\n\r\n    function _balanceOfDaotAddr(address _account)\r\n        private\r\n        view\r\n        returns (uint256)\r\n    {\r\n        return daot.balanceOf(_account) / 10**18;\r\n    }\r\n\r\n    function balanceOfDaotAddr(address _account) public view returns (uint256) {\r\n        return daot.balanceOf(_account) / 10**18;\r\n    }\r\n\r\n    function allowance(address _owner, address _spender)\r\n        public\r\n        view\r\n        returns (uint256)\r\n    {\r\n        return daot.allowance(_owner, _spender);\r\n    }\r\n\r\n   function votedForSpendingRequest(uint _id) external view returns(bool){\r\n\r\n       return voted[_id][msg.sender];\r\n   }\r\n  \r\n\r\n    function deadline_() external view returns (bool) {\r\n        bool isDeadline = false;\r\n\r\n        if (deadline < block.timestamp) {\r\n            isDeadline = true;\r\n        }\r\n\r\n        return isDeadline;\r\n    }\r\n\r\n    function getSpendingRequest(uint256 _id)\r\n        public\r\n        view\r\n        returns (\r\n            uint256,\r\n            string memory,\r\n            string memory,\r\n            uint256,\r\n            address,\r\n            uint256,\r\n            bool\r\n        )\r\n    {\r\n        Request storage r = spendingRequests[_id];\r\n\r\n        return (\r\n            r.id,\r\n            r.title,\r\n            r.description,\r\n            r.value,\r\n            r.recipient,\r\n            r.noOfVotes,\r\n            r.completed\r\n        );\r\n    }\r\n\r\n    function raisedAmount_() external view returns (bool) {\r\n        bool isRaised = false;\r\n\r\n        if (raisedAmount >= goal) {\r\n            isRaised = true;\r\n        }\r\n\r\n        return isRaised;\r\n    }\r\n\r\n    function noOfVoters_(uint256 _id) external view returns (bool) {\r\n        bool enoughVotes = false;\r\n        Request storage request = spendingRequests[_id];\r\n        if (request.noOfVotes > totalDestributedTokens / 2) {\r\n            enoughVotes = true;\r\n        }\r\n\r\n        return enoughVotes;\r\n    }\r\n\r\n    function goal_() external view returns (uint256) {\r\n        return goal;\r\n    }\r\n\r\n    function getTotalDistrubitedTokens() public view returns (uint256) {\r\n        return totalDestributedTokens;\r\n    }\r\n\r\n    function completedRequests(uint256 _id) external view returns (bool) {\r\n        Request storage request = spendingRequests[_id];\r\n\r\n        return (request.completed);\r\n    }\r\n\r\n    //-----------------------modifiers------------------------------------------------------\r\n    modifier requestApproved(uint256 _id) {\r\n        Request storage request = spendingRequests[_id];\r\n        require(\r\n            request.noOfVotes > totalDestributedTokens / 2,\r\n            \"The request has not received more than half of votes!\"\r\n        );\r\n        _;\r\n    }\r\n\r\n    modifier tokenOwnerRights() {\r\n        require(\r\n            balanceOfDaotAddr(msg.sender) > 0,\r\n            \"Your address does NOT have any tokens, no voting rights!\"\r\n        );\r\n        _;\r\n    }\r\n\r\n    modifier onlyAdmin() {\r\n        require(msg.sender == admin, \"Only admin!\");\r\n        _;\r\n    }\r\n}\r\n",
  "sourcePath": "C:\\Udemy -Complete DApp blockchain development\\dao-dapp-nextjs_clone\\contracts\\Crowdfunding.sol",
  "compiler": {
    "name": "solc",
    "version": "0.8.7+commit.e28d00a7.Emscripten.clang"
  },
  "schemaVersion": "3.4.4",
  "updatedAt": "2022-03-19T17:02:59.017Z",
  "networkType": "ethereum",
  "devdoc": {
    "kind": "dev",
    "methods": {},
    "version": 1
  },
  "userdoc": {
    "kind": "user",
    "methods": {},
    "version": 1
  }
}